{
	"contracts/SocilaPeTransactions.sol": {
		"SocialPeTransactions": {
			"abi": [
				{
					"inputs": [
						{
							"internalType": "address",
							"name": "target",
							"type": "address"
						}
					],
					"name": "AddressEmptyCode",
					"type": "error"
				},
				{
					"inputs": [
						{
							"internalType": "address",
							"name": "implementation",
							"type": "address"
						}
					],
					"name": "ERC1967InvalidImplementation",
					"type": "error"
				},
				{
					"inputs": [],
					"name": "ERC1967NonPayable",
					"type": "error"
				},
				{
					"inputs": [],
					"name": "FailedCall",
					"type": "error"
				},
				{
					"inputs": [],
					"name": "InvalidInitialization",
					"type": "error"
				},
				{
					"inputs": [],
					"name": "NotInitializing",
					"type": "error"
				},
				{
					"inputs": [
						{
							"internalType": "address",
							"name": "owner",
							"type": "address"
						}
					],
					"name": "OwnableInvalidOwner",
					"type": "error"
				},
				{
					"inputs": [
						{
							"internalType": "address",
							"name": "account",
							"type": "address"
						}
					],
					"name": "OwnableUnauthorizedAccount",
					"type": "error"
				},
				{
					"inputs": [],
					"name": "UUPSUnauthorizedCallContext",
					"type": "error"
				},
				{
					"inputs": [
						{
							"internalType": "bytes32",
							"name": "slot",
							"type": "bytes32"
						}
					],
					"name": "UUPSUnsupportedProxiableUUID",
					"type": "error"
				},
				{
					"anonymous": false,
					"inputs": [
						{
							"indexed": true,
							"internalType": "address",
							"name": "user",
							"type": "address"
						},
						{
							"indexed": false,
							"internalType": "string",
							"name": "actionType",
							"type": "string"
						},
						{
							"indexed": false,
							"internalType": "uint256",
							"name": "timestamp",
							"type": "uint256"
						}
					],
					"name": "ActionRecorded",
					"type": "event"
				},
				{
					"anonymous": false,
					"inputs": [
						{
							"indexed": false,
							"internalType": "string",
							"name": "actionType",
							"type": "string"
						}
					],
					"name": "ActionTypeAdded",
					"type": "event"
				},
				{
					"anonymous": false,
					"inputs": [
						{
							"indexed": false,
							"internalType": "uint64",
							"name": "version",
							"type": "uint64"
						}
					],
					"name": "Initialized",
					"type": "event"
				},
				{
					"anonymous": false,
					"inputs": [
						{
							"indexed": true,
							"internalType": "address",
							"name": "previousOwner",
							"type": "address"
						},
						{
							"indexed": true,
							"internalType": "address",
							"name": "newOwner",
							"type": "address"
						}
					],
					"name": "OwnershipTransferred",
					"type": "event"
				},
				{
					"anonymous": false,
					"inputs": [
						{
							"indexed": true,
							"internalType": "address",
							"name": "implementation",
							"type": "address"
						}
					],
					"name": "Upgraded",
					"type": "event"
				},
				{
					"anonymous": false,
					"inputs": [
						{
							"indexed": true,
							"internalType": "address",
							"name": "user",
							"type": "address"
						}
					],
					"name": "UserRegistered",
					"type": "event"
				},
				{
					"inputs": [],
					"name": "UPGRADE_INTERFACE_VERSION",
					"outputs": [
						{
							"internalType": "string",
							"name": "",
							"type": "string"
						}
					],
					"stateMutability": "view",
					"type": "function"
				},
				{
					"inputs": [],
					"name": "actionCount",
					"outputs": [
						{
							"internalType": "uint256",
							"name": "",
							"type": "uint256"
						}
					],
					"stateMutability": "view",
					"type": "function"
				},
				{
					"inputs": [
						{
							"internalType": "uint256",
							"name": "",
							"type": "uint256"
						}
					],
					"name": "actions",
					"outputs": [
						{
							"internalType": "address",
							"name": "user",
							"type": "address"
						},
						{
							"internalType": "string",
							"name": "actionType",
							"type": "string"
						},
						{
							"internalType": "uint256",
							"name": "timestamp",
							"type": "uint256"
						}
					],
					"stateMutability": "view",
					"type": "function"
				},
				{
					"inputs": [
						{
							"internalType": "string",
							"name": "actionType",
							"type": "string"
						}
					],
					"name": "addActionType",
					"outputs": [],
					"stateMutability": "nonpayable",
					"type": "function"
				},
				{
					"inputs": [
						{
							"internalType": "string",
							"name": "",
							"type": "string"
						}
					],
					"name": "allowedActions",
					"outputs": [
						{
							"internalType": "bool",
							"name": "",
							"type": "bool"
						}
					],
					"stateMutability": "view",
					"type": "function"
				},
				{
					"inputs": [],
					"name": "initialize",
					"outputs": [],
					"stateMutability": "nonpayable",
					"type": "function"
				},
				{
					"inputs": [],
					"name": "owner",
					"outputs": [
						{
							"internalType": "address",
							"name": "",
							"type": "address"
						}
					],
					"stateMutability": "view",
					"type": "function"
				},
				{
					"inputs": [],
					"name": "proxiableUUID",
					"outputs": [
						{
							"internalType": "bytes32",
							"name": "",
							"type": "bytes32"
						}
					],
					"stateMutability": "view",
					"type": "function"
				},
				{
					"inputs": [
						{
							"internalType": "address",
							"name": "user",
							"type": "address"
						},
						{
							"internalType": "string",
							"name": "actionType",
							"type": "string"
						}
					],
					"name": "recordAction",
					"outputs": [],
					"stateMutability": "nonpayable",
					"type": "function"
				},
				{
					"inputs": [
						{
							"internalType": "address",
							"name": "user",
							"type": "address"
						}
					],
					"name": "registerUser",
					"outputs": [],
					"stateMutability": "nonpayable",
					"type": "function"
				},
				{
					"inputs": [
						{
							"internalType": "address",
							"name": "",
							"type": "address"
						}
					],
					"name": "registeredUsers",
					"outputs": [
						{
							"internalType": "bool",
							"name": "",
							"type": "bool"
						}
					],
					"stateMutability": "view",
					"type": "function"
				},
				{
					"inputs": [],
					"name": "renounceOwnership",
					"outputs": [],
					"stateMutability": "nonpayable",
					"type": "function"
				},
				{
					"inputs": [
						{
							"internalType": "address",
							"name": "newOwner",
							"type": "address"
						}
					],
					"name": "transferOwnership",
					"outputs": [],
					"stateMutability": "nonpayable",
					"type": "function"
				},
				{
					"inputs": [
						{
							"internalType": "address",
							"name": "newImplementation",
							"type": "address"
						},
						{
							"internalType": "bytes",
							"name": "data",
							"type": "bytes"
						}
					],
					"name": "upgradeToAndCall",
					"outputs": [],
					"stateMutability": "payable",
					"type": "function"
				}
			],
			"devdoc": {
				"errors": {
					"AddressEmptyCode(address)": [
						{
							"details": "There's no code at `target` (it is not a contract)."
						}
					],
					"ERC1967InvalidImplementation(address)": [
						{
							"details": "The `implementation` of the proxy is invalid."
						}
					],
					"ERC1967NonPayable()": [
						{
							"details": "An upgrade function sees `msg.value > 0` that may be lost."
						}
					],
					"FailedCall()": [
						{
							"details": "A call to an address target failed. The target may have reverted."
						}
					],
					"InvalidInitialization()": [
						{
							"details": "The contract is already initialized."
						}
					],
					"NotInitializing()": [
						{
							"details": "The contract is not initializing."
						}
					],
					"OwnableInvalidOwner(address)": [
						{
							"details": "The owner is not a valid owner account. (eg. `address(0)`)"
						}
					],
					"OwnableUnauthorizedAccount(address)": [
						{
							"details": "The caller account is not authorized to perform an operation."
						}
					],
					"UUPSUnauthorizedCallContext()": [
						{
							"details": "The call is from an unauthorized context."
						}
					],
					"UUPSUnsupportedProxiableUUID(bytes32)": [
						{
							"details": "The storage `slot` is unsupported as a UUID."
						}
					]
				},
				"events": {
					"Initialized(uint64)": {
						"details": "Triggered when the contract has been initialized or reinitialized."
					},
					"Upgraded(address)": {
						"details": "Emitted when the implementation is upgraded."
					}
				},
				"kind": "dev",
				"methods": {
					"owner()": {
						"details": "Returns the address of the current owner."
					},
					"proxiableUUID()": {
						"details": "Implementation of the ERC-1822 {proxiableUUID} function. This returns the storage slot used by the implementation. It is used to validate the implementation's compatibility when performing an upgrade. IMPORTANT: A proxy pointing at a proxiable contract should not be considered proxiable itself, because this risks bricking a proxy that upgrades to it, by delegating to itself until out of gas. Thus it is critical that this function revert if invoked through a proxy. This is guaranteed by the `notDelegated` modifier."
					},
					"renounceOwnership()": {
						"details": "Leaves the contract without owner. It will not be possible to call `onlyOwner` functions. Can only be called by the current owner. NOTE: Renouncing ownership will leave the contract without an owner, thereby disabling any functionality that is only available to the owner."
					},
					"transferOwnership(address)": {
						"details": "Transfers ownership of the contract to a new account (`newOwner`). Can only be called by the current owner."
					},
					"upgradeToAndCall(address,bytes)": {
						"custom:oz-upgrades-unsafe-allow-reachable": "delegatecall",
						"details": "Upgrade the implementation of the proxy to `newImplementation`, and subsequently execute the function call encoded in `data`. Calls {_authorizeUpgrade}. Emits an {Upgraded} event."
					}
				},
				"version": 1
			},
			"evm": {
				"assembly": "    /* \"contracts/SocilaPeTransactions.sol\":459:2780  contract SocialPeTransactions is Initializable, UUPSUpgradeable, OwnableUpgradeable, ReentrancyGuardUpgradeable {... */\n  mstore(0x40, 0xa0)\n    /* \"@openzeppelin/contracts-upgradeable/proxy/utils/UUPSUpgradeable.sol\":1171:1175  this */\n  address\n    /* \"@openzeppelin/contracts-upgradeable/proxy/utils/UUPSUpgradeable.sol\":1128:1176  address private immutable __self = address(this) */\n  0xffffffffffffffffffffffffffffffffffffffff\n  and\n  0x80\n  swap1\n  0xffffffffffffffffffffffffffffffffffffffff\n  and\n  dup2\n  mstore\n  pop\n    /* \"contracts/SocilaPeTransactions.sol\":459:2780  contract SocialPeTransactions is Initializable, UUPSUpgradeable, OwnableUpgradeable, ReentrancyGuardUpgradeable {... */\n  callvalue\n  dup1\n  iszero\n  tag_1\n  jumpi\n  0x00\n  dup1\n  revert\ntag_1:\n  pop\n  mload(0x80)\n  codecopy(0x00, dataOffset(sub_0), dataSize(sub_0))\n  0x00\n  assignImmutable(\"0x0b83f23a4eeb8c3f5f7d5934a2289bcf0186d09a12e1b7f20adf54e4b179db15\")\n  return(0x00, dataSize(sub_0))\nstop\n\nsub_0: assembly {\n        /* \"contracts/SocilaPeTransactions.sol\":459:2780  contract SocialPeTransactions is Initializable, UUPSUpgradeable, OwnableUpgradeable, ReentrancyGuardUpgradeable {... */\n      mstore(0x40, 0x80)\n      jumpi(tag_1, lt(calldatasize, 0x04))\n      shr(0xe0, calldataload(0x00))\n      dup1\n      0x8129fc1c\n      gt\n      tag_16\n      jumpi\n      dup1\n      0x9fea7aae\n      gt\n      tag_17\n      jumpi\n      dup1\n      0x9fea7aae\n      eq\n      tag_12\n      jumpi\n      dup1\n      0xad3cb1cc\n      eq\n      tag_13\n      jumpi\n      dup1\n      0xd7a88d17\n      eq\n      tag_14\n      jumpi\n      dup1\n      0xf2fde38b\n      eq\n      tag_15\n      jumpi\n      jump(tag_1)\n    tag_17:\n      dup1\n      0x8129fc1c\n      eq\n      tag_9\n      jumpi\n      dup1\n      0x83240f83\n      eq\n      tag_10\n      jumpi\n      dup1\n      0x8da5cb5b\n      eq\n      tag_11\n      jumpi\n      jump(tag_1)\n    tag_16:\n      dup1\n      0x4f1ef286\n      gt\n      tag_18\n      jumpi\n      dup1\n      0x4f1ef286\n      eq\n      tag_5\n      jumpi\n      dup1\n      0x52d1902d\n      eq\n      tag_6\n      jumpi\n      dup1\n      0x578b8cf5\n      eq\n      tag_7\n      jumpi\n      dup1\n      0x715018a6\n      eq\n      tag_8\n      jumpi\n      jump(tag_1)\n    tag_18:\n      dup1\n      0x0e50cee5\n      eq\n      tag_2\n      jumpi\n      dup1\n      0x2199d5cd\n      eq\n      tag_3\n      jumpi\n      dup1\n      0x29da5738\n      eq\n      tag_4\n      jumpi\n    tag_1:\n      0x00\n      dup1\n      revert\n        /* \"contracts/SocilaPeTransactions.sol\":828:875  mapping(address => bool) public registeredUsers */\n    tag_2:\n      callvalue\n      dup1\n      iszero\n      tag_19\n      jumpi\n      0x00\n      dup1\n      revert\n    tag_19:\n      pop\n      tag_20\n      0x04\n      dup1\n      calldatasize\n      sub\n      dup2\n      add\n      swap1\n      tag_21\n      swap2\n      swap1\n      tag_22\n      jump\t// in\n    tag_21:\n      tag_23\n      jump\t// in\n    tag_20:\n      mload(0x40)\n      tag_24\n      swap2\n      swap1\n      tag_25\n      jump\t// in\n    tag_24:\n      mload(0x40)\n      dup1\n      swap2\n      sub\n      swap1\n      return\n        /* \"contracts/SocilaPeTransactions.sol\":1363:1570  function registerUser(address user) external onlyOwner {... */\n    tag_3:\n      callvalue\n      dup1\n      iszero\n      tag_26\n      jumpi\n      0x00\n      dup1\n      revert\n    tag_26:\n      pop\n      tag_27\n      0x04\n      dup1\n      calldatasize\n      sub\n      dup2\n      add\n      swap1\n      tag_28\n      swap2\n      swap1\n      tag_22\n      jump\t// in\n    tag_28:\n      tag_29\n      jump\t// in\n    tag_27:\n      stop\n        /* \"contracts/SocilaPeTransactions.sol\":741:767  uint256 public actionCount */\n    tag_4:\n      callvalue\n      dup1\n      iszero\n      tag_30\n      jumpi\n      0x00\n      dup1\n      revert\n    tag_30:\n      pop\n      tag_31\n      tag_32\n      jump\t// in\n    tag_31:\n      mload(0x40)\n      tag_33\n      swap2\n      swap1\n      tag_34\n      jump\t// in\n    tag_33:\n      mload(0x40)\n      dup1\n      swap2\n      sub\n      swap1\n      return\n        /* \"@openzeppelin/contracts-upgradeable/proxy/utils/UUPSUpgradeable.sol\":4161:4375  function upgradeToAndCall(address newImplementation, bytes memory data) public payable virtual onlyProxy {... */\n    tag_5:\n      tag_35\n      0x04\n      dup1\n      calldatasize\n      sub\n      dup2\n      add\n      swap1\n      tag_36\n      swap2\n      swap1\n      tag_37\n      jump\t// in\n    tag_36:\n      tag_38\n      jump\t// in\n    tag_35:\n      stop\n        /* \"@openzeppelin/contracts-upgradeable/proxy/utils/UUPSUpgradeable.sol\":3708:3842  function proxiableUUID() external view virtual notDelegated returns (bytes32) {... */\n    tag_6:\n      callvalue\n      dup1\n      iszero\n      tag_39\n      jumpi\n      0x00\n      dup1\n      revert\n    tag_39:\n      pop\n      tag_40\n      tag_41\n      jump\t// in\n    tag_40:\n      mload(0x40)\n      tag_42\n      swap2\n      swap1\n      tag_43\n      jump\t// in\n    tag_42:\n      mload(0x40)\n      dup1\n      swap2\n      sub\n      swap1\n      return\n        /* \"contracts/SocilaPeTransactions.sol\":1947:2340  function recordAction(address user, string calldata actionType) external nonReentrant {... */\n    tag_7:\n      callvalue\n      dup1\n      iszero\n      tag_44\n      jumpi\n      0x00\n      dup1\n      revert\n    tag_44:\n      pop\n      tag_45\n      0x04\n      dup1\n      calldatasize\n      sub\n      dup2\n      add\n      swap1\n      tag_46\n      swap2\n      swap1\n      tag_47\n      jump\t// in\n    tag_46:\n      tag_48\n      jump\t// in\n    tag_45:\n      stop\n        /* \"@openzeppelin/contracts-upgradeable/access/OwnableUpgradeable.sol\":3155:3256  function renounceOwnership() public virtual onlyOwner {... */\n    tag_8:\n      callvalue\n      dup1\n      iszero\n      tag_49\n      jumpi\n      0x00\n      dup1\n      revert\n    tag_49:\n      pop\n      tag_50\n      tag_51\n      jump\t// in\n    tag_50:\n      stop\n        /* \"contracts/SocilaPeTransactions.sol\":1069:1278  function initialize() public initializer {... */\n    tag_9:\n      callvalue\n      dup1\n      iszero\n      tag_52\n      jumpi\n      0x00\n      dup1\n      revert\n    tag_52:\n      pop\n      tag_53\n      tag_54\n      jump\t// in\n    tag_53:\n      stop\n        /* \"contracts/SocilaPeTransactions.sol\":693:734  mapping(uint256 => Action) public actions */\n    tag_10:\n      callvalue\n      dup1\n      iszero\n      tag_55\n      jumpi\n      0x00\n      dup1\n      revert\n    tag_55:\n      pop\n      tag_56\n      0x04\n      dup1\n      calldatasize\n      sub\n      dup2\n      add\n      swap1\n      tag_57\n      swap2\n      swap1\n      tag_58\n      jump\t// in\n    tag_57:\n      tag_59\n      jump\t// in\n    tag_56:\n      mload(0x40)\n      tag_60\n      swap4\n      swap3\n      swap2\n      swap1\n      tag_61\n      jump\t// in\n    tag_60:\n      mload(0x40)\n      dup1\n      swap2\n      sub\n      swap1\n      return\n        /* \"@openzeppelin/contracts-upgradeable/access/OwnableUpgradeable.sol\":2441:2585  function owner() public view virtual returns (address) {... */\n    tag_11:\n      callvalue\n      dup1\n      iszero\n      tag_62\n      jumpi\n      0x00\n      dup1\n      revert\n    tag_62:\n      pop\n      tag_63\n      tag_64\n      jump\t// in\n    tag_63:\n      mload(0x40)\n      tag_65\n      swap2\n      swap1\n      tag_66\n      jump\t// in\n    tag_65:\n      mload(0x40)\n      dup1\n      swap2\n      sub\n      swap1\n      return\n        /* \"contracts/SocilaPeTransactions.sol\":1636:1878  function addActionType(string calldata actionType) external onlyOwner {... */\n    tag_12:\n      callvalue\n      dup1\n      iszero\n      tag_67\n      jumpi\n      0x00\n      dup1\n      revert\n    tag_67:\n      pop\n      tag_68\n      0x04\n      dup1\n      calldatasize\n      sub\n      dup2\n      add\n      swap1\n      tag_69\n      swap2\n      swap1\n      tag_70\n      jump\t// in\n    tag_69:\n      tag_71\n      jump\t// in\n    tag_68:\n      stop\n        /* \"@openzeppelin/contracts-upgradeable/proxy/utils/UUPSUpgradeable.sol\":1819:1877  string public constant UPGRADE_INTERFACE_VERSION = \"5.0.0\" */\n    tag_13:\n      callvalue\n      dup1\n      iszero\n      tag_72\n      jumpi\n      0x00\n      dup1\n      revert\n    tag_72:\n      pop\n      tag_73\n      tag_74\n      jump\t// in\n    tag_73:\n      mload(0x40)\n      tag_75\n      swap2\n      swap1\n      tag_76\n      jump\t// in\n    tag_75:\n      mload(0x40)\n      dup1\n      swap2\n      sub\n      swap1\n      return\n        /* \"contracts/SocilaPeTransactions.sol\":776:821  mapping(string => bool) public allowedActions */\n    tag_14:\n      callvalue\n      dup1\n      iszero\n      tag_77\n      jumpi\n      0x00\n      dup1\n      revert\n    tag_77:\n      pop\n      tag_78\n      0x04\n      dup1\n      calldatasize\n      sub\n      dup2\n      add\n      swap1\n      tag_79\n      swap2\n      swap1\n      tag_80\n      jump\t// in\n    tag_79:\n      tag_81\n      jump\t// in\n    tag_78:\n      mload(0x40)\n      tag_82\n      swap2\n      swap1\n      tag_25\n      jump\t// in\n    tag_82:\n      mload(0x40)\n      dup1\n      swap2\n      sub\n      swap1\n      return\n        /* \"@openzeppelin/contracts-upgradeable/access/OwnableUpgradeable.sol\":3405:3620  function transferOwnership(address newOwner) public virtual onlyOwner {... */\n    tag_15:\n      callvalue\n      dup1\n      iszero\n      tag_83\n      jumpi\n      0x00\n      dup1\n      revert\n    tag_83:\n      pop\n      tag_84\n      0x04\n      dup1\n      calldatasize\n      sub\n      dup2\n      add\n      swap1\n      tag_85\n      swap2\n      swap1\n      tag_22\n      jump\t// in\n    tag_85:\n      tag_86\n      jump\t// in\n    tag_84:\n      stop\n        /* \"contracts/SocilaPeTransactions.sol\":828:875  mapping(address => bool) public registeredUsers */\n    tag_23:\n      mstore(0x20, 0x35)\n      dup1\n      0x00\n      mstore\n      keccak256(0x00, 0x40)\n      0x00\n      swap2\n      pop\n      sload\n      swap1\n      0x0100\n      exp\n      swap1\n      div\n      0xff\n      and\n      dup2\n      jump\t// out\n        /* \"contracts/SocilaPeTransactions.sol\":1363:1570  function registerUser(address user) external onlyOwner {... */\n    tag_29:\n        /* \"@openzeppelin/contracts-upgradeable/access/OwnableUpgradeable.sol\":2334:2347  _checkOwner() */\n      tag_88\n        /* \"@openzeppelin/contracts-upgradeable/access/OwnableUpgradeable.sol\":2334:2345  _checkOwner */\n      tag_89\n        /* \"@openzeppelin/contracts-upgradeable/access/OwnableUpgradeable.sol\":2334:2347  _checkOwner() */\n      jump\t// in\n    tag_88:\n        /* \"contracts/SocilaPeTransactions.sol\":1438:1453  registeredUsers */\n      0x35\n        /* \"contracts/SocilaPeTransactions.sol\":1438:1459  registeredUsers[user] */\n      0x00\n        /* \"contracts/SocilaPeTransactions.sol\":1454:1458  user */\n      dup3\n        /* \"contracts/SocilaPeTransactions.sol\":1438:1459  registeredUsers[user] */\n      0xffffffffffffffffffffffffffffffffffffffff\n      and\n      0xffffffffffffffffffffffffffffffffffffffff\n      and\n      dup2\n      mstore\n      0x20\n      add\n      swap1\n      dup2\n      mstore\n      0x20\n      add\n      0x00\n      keccak256\n      0x00\n      swap1\n      sload\n      swap1\n      0x0100\n      exp\n      swap1\n      div\n      0xff\n      and\n        /* \"contracts/SocilaPeTransactions.sol\":1437:1459  !registeredUsers[user] */\n      iszero\n        /* \"contracts/SocilaPeTransactions.sol\":1429:1487  require(!registeredUsers[user], \"User already registered\") */\n      tag_91\n      jumpi\n      mload(0x40)\n      0x08c379a000000000000000000000000000000000000000000000000000000000\n      dup2\n      mstore\n      0x04\n      add\n      tag_92\n      swap1\n      tag_93\n      jump\t// in\n    tag_92:\n      mload(0x40)\n      dup1\n      swap2\n      sub\n      swap1\n      revert\n    tag_91:\n        /* \"contracts/SocilaPeTransactions.sol\":1522:1526  true */\n      0x01\n        /* \"contracts/SocilaPeTransactions.sol\":1498:1513  registeredUsers */\n      0x35\n        /* \"contracts/SocilaPeTransactions.sol\":1498:1519  registeredUsers[user] */\n      0x00\n        /* \"contracts/SocilaPeTransactions.sol\":1514:1518  user */\n      dup4\n        /* \"contracts/SocilaPeTransactions.sol\":1498:1519  registeredUsers[user] */\n      0xffffffffffffffffffffffffffffffffffffffff\n      and\n      0xffffffffffffffffffffffffffffffffffffffff\n      and\n      dup2\n      mstore\n      0x20\n      add\n      swap1\n      dup2\n      mstore\n      0x20\n      add\n      0x00\n      keccak256\n      0x00\n        /* \"contracts/SocilaPeTransactions.sol\":1498:1526  registeredUsers[user] = true */\n      0x0100\n      exp\n      dup2\n      sload\n      dup2\n      0xff\n      mul\n      not\n      and\n      swap1\n      dup4\n      iszero\n      iszero\n      mul\n      or\n      swap1\n      sstore\n      pop\n        /* \"contracts/SocilaPeTransactions.sol\":1557:1561  user */\n      dup1\n        /* \"contracts/SocilaPeTransactions.sol\":1542:1562  UserRegistered(user) */\n      0xffffffffffffffffffffffffffffffffffffffff\n      and\n      0x54db7a5cb4735e1aac1f53db512d3390390bb6637bd30ad4bf9fc98667d9b9b9\n      mload(0x40)\n      mload(0x40)\n      dup1\n      swap2\n      sub\n      swap1\n      log2\n        /* \"contracts/SocilaPeTransactions.sol\":1363:1570  function registerUser(address user) external onlyOwner {... */\n      pop\n      jump\t// out\n        /* \"contracts/SocilaPeTransactions.sol\":741:767  uint256 public actionCount */\n    tag_32:\n      sload(0x33)\n      dup2\n      jump\t// out\n        /* \"@openzeppelin/contracts-upgradeable/proxy/utils/UUPSUpgradeable.sol\":4161:4375  function upgradeToAndCall(address newImplementation, bytes memory data) public payable virtual onlyProxy {... */\n    tag_38:\n        /* \"@openzeppelin/contracts-upgradeable/proxy/utils/UUPSUpgradeable.sol\":2655:2668  _checkProxy() */\n      tag_95\n        /* \"@openzeppelin/contracts-upgradeable/proxy/utils/UUPSUpgradeable.sol\":2655:2666  _checkProxy */\n      tag_96\n        /* \"@openzeppelin/contracts-upgradeable/proxy/utils/UUPSUpgradeable.sol\":2655:2668  _checkProxy() */\n      jump\t// in\n    tag_95:\n        /* \"@openzeppelin/contracts-upgradeable/proxy/utils/UUPSUpgradeable.sol\":4276:4312  _authorizeUpgrade(newImplementation) */\n      tag_98\n        /* \"@openzeppelin/contracts-upgradeable/proxy/utils/UUPSUpgradeable.sol\":4294:4311  newImplementation */\n      dup3\n        /* \"@openzeppelin/contracts-upgradeable/proxy/utils/UUPSUpgradeable.sol\":4276:4293  _authorizeUpgrade */\n      tag_99\n        /* \"@openzeppelin/contracts-upgradeable/proxy/utils/UUPSUpgradeable.sol\":4276:4312  _authorizeUpgrade(newImplementation) */\n      jump\t// in\n    tag_98:\n        /* \"@openzeppelin/contracts-upgradeable/proxy/utils/UUPSUpgradeable.sol\":4322:4368  _upgradeToAndCallUUPS(newImplementation, data) */\n      tag_100\n        /* \"@openzeppelin/contracts-upgradeable/proxy/utils/UUPSUpgradeable.sol\":4344:4361  newImplementation */\n      dup3\n        /* \"@openzeppelin/contracts-upgradeable/proxy/utils/UUPSUpgradeable.sol\":4363:4367  data */\n      dup3\n        /* \"@openzeppelin/contracts-upgradeable/proxy/utils/UUPSUpgradeable.sol\":4322:4343  _upgradeToAndCallUUPS */\n      tag_101\n        /* \"@openzeppelin/contracts-upgradeable/proxy/utils/UUPSUpgradeable.sol\":4322:4368  _upgradeToAndCallUUPS(newImplementation, data) */\n      jump\t// in\n    tag_100:\n        /* \"@openzeppelin/contracts-upgradeable/proxy/utils/UUPSUpgradeable.sol\":4161:4375  function upgradeToAndCall(address newImplementation, bytes memory data) public payable virtual onlyProxy {... */\n      pop\n      pop\n      jump\t// out\n        /* \"@openzeppelin/contracts-upgradeable/proxy/utils/UUPSUpgradeable.sol\":3708:3842  function proxiableUUID() external view virtual notDelegated returns (bytes32) {... */\n    tag_41:\n        /* \"@openzeppelin/contracts-upgradeable/proxy/utils/UUPSUpgradeable.sol\":3777:3784  bytes32 */\n      0x00\n        /* \"@openzeppelin/contracts-upgradeable/proxy/utils/UUPSUpgradeable.sol\":2926:2946  _checkNotDelegated() */\n      tag_103\n        /* \"@openzeppelin/contracts-upgradeable/proxy/utils/UUPSUpgradeable.sol\":2926:2944  _checkNotDelegated */\n      tag_104\n        /* \"@openzeppelin/contracts-upgradeable/proxy/utils/UUPSUpgradeable.sol\":2926:2946  _checkNotDelegated() */\n      jump\t// in\n    tag_103:\n        /* \"@openzeppelin/contracts/proxy/ERC1967/ERC1967Utils.sol\":811:877  0x360894a13ba1a3210667c828492db98dca3e2076cc3735a920a3ca505d382bbc */\n      0x360894a13ba1a3210667c828492db98dca3e2076cc3735a920a3ca505d382bbc\n        /* \"@openzeppelin/contracts-upgradeable/proxy/utils/UUPSUpgradeable.sol\":3803:3835  ERC1967Utils.IMPLEMENTATION_SLOT */\n      0x00\n      shl\n        /* \"@openzeppelin/contracts-upgradeable/proxy/utils/UUPSUpgradeable.sol\":3796:3835  return ERC1967Utils.IMPLEMENTATION_SLOT */\n      swap1\n      pop\n        /* \"@openzeppelin/contracts-upgradeable/proxy/utils/UUPSUpgradeable.sol\":3708:3842  function proxiableUUID() external view virtual notDelegated returns (bytes32) {... */\n      swap1\n      jump\t// out\n        /* \"contracts/SocilaPeTransactions.sol\":1947:2340  function recordAction(address user, string calldata actionType) external nonReentrant {... */\n    tag_48:\n        /* \"@openzeppelin/contracts-upgradeable/security/ReentrancyGuardUpgradeable.sol\":2526:2547  _nonReentrantBefore() */\n      tag_107\n        /* \"@openzeppelin/contracts-upgradeable/security/ReentrancyGuardUpgradeable.sol\":2526:2545  _nonReentrantBefore */\n      tag_108\n        /* \"@openzeppelin/contracts-upgradeable/security/ReentrancyGuardUpgradeable.sol\":2526:2547  _nonReentrantBefore() */\n      jump\t// in\n    tag_107:\n        /* \"contracts/SocilaPeTransactions.sol\":2052:2067  registeredUsers */\n      0x35\n        /* \"contracts/SocilaPeTransactions.sol\":2052:2073  registeredUsers[user] */\n      0x00\n        /* \"contracts/SocilaPeTransactions.sol\":2068:2072  user */\n      dup5\n        /* \"contracts/SocilaPeTransactions.sol\":2052:2073  registeredUsers[user] */\n      0xffffffffffffffffffffffffffffffffffffffff\n      and\n      0xffffffffffffffffffffffffffffffffffffffff\n      and\n      dup2\n      mstore\n      0x20\n      add\n      swap1\n      dup2\n      mstore\n      0x20\n      add\n      0x00\n      keccak256\n      0x00\n      swap1\n      sload\n      swap1\n      0x0100\n      exp\n      swap1\n      div\n      0xff\n      and\n        /* \"contracts/SocilaPeTransactions.sol\":2044:2097  require(registeredUsers[user], \"User not registered\") */\n      tag_110\n      jumpi\n      mload(0x40)\n      0x08c379a000000000000000000000000000000000000000000000000000000000\n      dup2\n      mstore\n      0x04\n      add\n      tag_111\n      swap1\n      tag_112\n      jump\t// in\n    tag_111:\n      mload(0x40)\n      dup1\n      swap2\n      sub\n      swap1\n      revert\n    tag_110:\n        /* \"contracts/SocilaPeTransactions.sol\":2116:2130  allowedActions */\n      0x34\n        /* \"contracts/SocilaPeTransactions.sol\":2131:2141  actionType */\n      dup3\n      dup3\n        /* \"contracts/SocilaPeTransactions.sol\":2116:2142  allowedActions[actionType] */\n      mload(0x40)\n      tag_113\n      swap3\n      swap2\n      swap1\n      tag_114\n      jump\t// in\n    tag_113:\n      swap1\n      dup2\n      mstore\n      0x20\n      add\n      mload(0x40)\n      dup1\n      swap2\n      sub\n      swap1\n      keccak256\n      0x00\n      swap1\n      sload\n      swap1\n      0x0100\n      exp\n      swap1\n      div\n      0xff\n      and\n        /* \"contracts/SocilaPeTransactions.sol\":2108:2166  require(allowedActions[actionType], \"Invalid action type\") */\n      tag_115\n      jumpi\n      mload(0x40)\n      0x08c379a000000000000000000000000000000000000000000000000000000000\n      dup2\n      mstore\n      0x04\n      add\n      tag_116\n      swap1\n      tag_117\n      jump\t// in\n    tag_116:\n      mload(0x40)\n      dup1\n      swap2\n      sub\n      swap1\n      revert\n    tag_115:\n        /* \"contracts/SocilaPeTransactions.sol\":2202:2243  Action(user, actionType, block.timestamp) */\n      mload(0x40)\n      dup1\n      0x60\n      add\n      0x40\n      mstore\n      dup1\n        /* \"contracts/SocilaPeTransactions.sol\":2209:2213  user */\n      dup5\n        /* \"contracts/SocilaPeTransactions.sol\":2202:2243  Action(user, actionType, block.timestamp) */\n      0xffffffffffffffffffffffffffffffffffffffff\n      and\n      dup2\n      mstore\n      0x20\n      add\n        /* \"contracts/SocilaPeTransactions.sol\":2215:2225  actionType */\n      dup4\n      dup4\n        /* \"contracts/SocilaPeTransactions.sol\":2202:2243  Action(user, actionType, block.timestamp) */\n      dup1\n      dup1\n      0x1f\n      add\n      0x20\n      dup1\n      swap2\n      div\n      mul\n      0x20\n      add\n      mload(0x40)\n      swap1\n      dup2\n      add\n      0x40\n      mstore\n      dup1\n      swap4\n      swap3\n      swap2\n      swap1\n      dup2\n      dup2\n      mstore\n      0x20\n      add\n      dup4\n      dup4\n      dup1\n      dup3\n      dup5\n      calldatacopy\n      0x00\n      dup2\n      dup5\n      add\n      mstore\n      not(0x1f)\n      0x1f\n      dup3\n      add\n      and\n      swap1\n      pop\n      dup1\n      dup4\n      add\n      swap3\n      pop\n      pop\n      pop\n      pop\n      pop\n      pop\n      pop\n      dup2\n      mstore\n      0x20\n      add\n        /* \"contracts/SocilaPeTransactions.sol\":2227:2242  block.timestamp */\n      timestamp\n        /* \"contracts/SocilaPeTransactions.sol\":2202:2243  Action(user, actionType, block.timestamp) */\n      dup2\n      mstore\n      pop\n        /* \"contracts/SocilaPeTransactions.sol\":2179:2186  actions */\n      0x32\n        /* \"contracts/SocilaPeTransactions.sol\":2179:2199  actions[actionCount] */\n      0x00\n        /* \"contracts/SocilaPeTransactions.sol\":2187:2198  actionCount */\n      sload(0x33)\n        /* \"contracts/SocilaPeTransactions.sol\":2179:2199  actions[actionCount] */\n      dup2\n      mstore\n      0x20\n      add\n      swap1\n      dup2\n      mstore\n      0x20\n      add\n      0x00\n      keccak256\n        /* \"contracts/SocilaPeTransactions.sol\":2179:2243  actions[actionCount] = Action(user, actionType, block.timestamp) */\n      0x00\n      dup3\n      add\n      mload\n      dup2\n      0x00\n      add\n      exp(0x0100, 0x00)\n      dup2\n      sload\n      dup2\n      0xffffffffffffffffffffffffffffffffffffffff\n      mul\n      not\n      and\n      swap1\n      dup4\n      0xffffffffffffffffffffffffffffffffffffffff\n      and\n      mul\n      or\n      swap1\n      sstore\n      pop\n      0x20\n      dup3\n      add\n      mload\n      dup2\n      0x01\n      add\n      swap1\n      dup2\n      tag_118\n      swap2\n      swap1\n      tag_119\n      jump\t// in\n    tag_118:\n      pop\n      0x40\n      dup3\n      add\n      mload\n      dup2\n      0x02\n      add\n      sstore\n      swap1\n      pop\n      pop\n        /* \"contracts/SocilaPeTransactions.sol\":2274:2278  user */\n      dup3\n        /* \"contracts/SocilaPeTransactions.sol\":2259:2308  ActionRecorded(user, actionType, block.timestamp) */\n      0xffffffffffffffffffffffffffffffffffffffff\n      and\n      0x533f0a86420848556053acb6d591f6533cd0f33a263fff71497f9b2842ee6a72\n        /* \"contracts/SocilaPeTransactions.sol\":2280:2290  actionType */\n      dup4\n      dup4\n        /* \"contracts/SocilaPeTransactions.sol\":2292:2307  block.timestamp */\n      timestamp\n        /* \"contracts/SocilaPeTransactions.sol\":2259:2308  ActionRecorded(user, actionType, block.timestamp) */\n      mload(0x40)\n      tag_120\n      swap4\n      swap3\n      swap2\n      swap1\n      tag_121\n      jump\t// in\n    tag_120:\n      mload(0x40)\n      dup1\n      swap2\n      sub\n      swap1\n      log2\n        /* \"contracts/SocilaPeTransactions.sol\":2319:2330  actionCount */\n      0x33\n      0x00\n        /* \"contracts/SocilaPeTransactions.sol\":2319:2332  actionCount++ */\n      dup2\n      sload\n      dup1\n      swap3\n      swap2\n      swap1\n      tag_122\n      swap1\n      tag_123\n      jump\t// in\n    tag_122:\n      swap2\n      swap1\n      pop\n      sstore\n      pop\n        /* \"@openzeppelin/contracts-upgradeable/security/ReentrancyGuardUpgradeable.sol\":2568:2588  _nonReentrantAfter() */\n      tag_124\n        /* \"@openzeppelin/contracts-upgradeable/security/ReentrancyGuardUpgradeable.sol\":2568:2586  _nonReentrantAfter */\n      tag_125\n        /* \"@openzeppelin/contracts-upgradeable/security/ReentrancyGuardUpgradeable.sol\":2568:2588  _nonReentrantAfter() */\n      jump\t// in\n    tag_124:\n        /* \"contracts/SocilaPeTransactions.sol\":1947:2340  function recordAction(address user, string calldata actionType) external nonReentrant {... */\n      pop\n      pop\n      pop\n      jump\t// out\n        /* \"@openzeppelin/contracts-upgradeable/access/OwnableUpgradeable.sol\":3155:3256  function renounceOwnership() public virtual onlyOwner {... */\n    tag_51:\n        /* \"@openzeppelin/contracts-upgradeable/access/OwnableUpgradeable.sol\":2334:2347  _checkOwner() */\n      tag_127\n        /* \"@openzeppelin/contracts-upgradeable/access/OwnableUpgradeable.sol\":2334:2345  _checkOwner */\n      tag_89\n        /* \"@openzeppelin/contracts-upgradeable/access/OwnableUpgradeable.sol\":2334:2347  _checkOwner() */\n      jump\t// in\n    tag_127:\n        /* \"@openzeppelin/contracts-upgradeable/access/OwnableUpgradeable.sol\":3219:3249  _transferOwnership(address(0)) */\n      tag_129\n        /* \"@openzeppelin/contracts-upgradeable/access/OwnableUpgradeable.sol\":3246:3247  0 */\n      0x00\n        /* \"@openzeppelin/contracts-upgradeable/access/OwnableUpgradeable.sol\":3219:3237  _transferOwnership */\n      tag_130\n        /* \"@openzeppelin/contracts-upgradeable/access/OwnableUpgradeable.sol\":3219:3249  _transferOwnership(address(0)) */\n      jump\t// in\n    tag_129:\n        /* \"@openzeppelin/contracts-upgradeable/access/OwnableUpgradeable.sol\":3155:3256  function renounceOwnership() public virtual onlyOwner {... */\n      jump\t// out\n        /* \"contracts/SocilaPeTransactions.sol\":1069:1278  function initialize() public initializer {... */\n    tag_54:\n        /* \"@openzeppelin/contracts-upgradeable/proxy/utils/Initializable.sol\":4158:4188  InitializableStorage storage $ */\n      0x00\n        /* \"@openzeppelin/contracts-upgradeable/proxy/utils/Initializable.sol\":4191:4217  _getInitializableStorage() */\n      tag_132\n        /* \"@openzeppelin/contracts-upgradeable/proxy/utils/Initializable.sol\":4191:4215  _getInitializableStorage */\n      tag_133\n        /* \"@openzeppelin/contracts-upgradeable/proxy/utils/Initializable.sol\":4191:4217  _getInitializableStorage() */\n      jump\t// in\n    tag_132:\n        /* \"@openzeppelin/contracts-upgradeable/proxy/utils/Initializable.sol\":4158:4217  InitializableStorage storage $ = _getInitializableStorage() */\n      swap1\n      pop\n        /* \"@openzeppelin/contracts-upgradeable/proxy/utils/Initializable.sol\":4279:4298  bool isTopLevelCall */\n      0x00\n        /* \"@openzeppelin/contracts-upgradeable/proxy/utils/Initializable.sol\":4302:4303  $ */\n      dup2\n        /* \"@openzeppelin/contracts-upgradeable/proxy/utils/Initializable.sol\":4302:4317  $._initializing */\n      0x00\n      add\n      0x08\n      swap1\n      sload\n      swap1\n      0x0100\n      exp\n      swap1\n      div\n      0xff\n      and\n        /* \"@openzeppelin/contracts-upgradeable/proxy/utils/Initializable.sol\":4301:4317  !$._initializing */\n      iszero\n        /* \"@openzeppelin/contracts-upgradeable/proxy/utils/Initializable.sol\":4279:4317  bool isTopLevelCall = !$._initializing */\n      swap1\n      pop\n        /* \"@openzeppelin/contracts-upgradeable/proxy/utils/Initializable.sol\":4327:4345  uint64 initialized */\n      0x00\n        /* \"@openzeppelin/contracts-upgradeable/proxy/utils/Initializable.sol\":4348:4349  $ */\n      dup3\n        /* \"@openzeppelin/contracts-upgradeable/proxy/utils/Initializable.sol\":4348:4362  $._initialized */\n      0x00\n      add\n      0x00\n      swap1\n      sload\n      swap1\n      0x0100\n      exp\n      swap1\n      div\n      0xffffffffffffffff\n      and\n        /* \"@openzeppelin/contracts-upgradeable/proxy/utils/Initializable.sol\":4327:4362  uint64 initialized = $._initialized */\n      swap1\n      pop\n        /* \"@openzeppelin/contracts-upgradeable/proxy/utils/Initializable.sol\":4706:4723  bool initialSetup */\n      0x00\n        /* \"@openzeppelin/contracts-upgradeable/proxy/utils/Initializable.sol\":4741:4742  0 */\n      dup1\n        /* \"@openzeppelin/contracts-upgradeable/proxy/utils/Initializable.sol\":4726:4737  initialized */\n      dup3\n        /* \"@openzeppelin/contracts-upgradeable/proxy/utils/Initializable.sol\":4726:4742  initialized == 0 */\n      0xffffffffffffffff\n      and\n      eq\n        /* \"@openzeppelin/contracts-upgradeable/proxy/utils/Initializable.sol\":4726:4760  initialized == 0 && isTopLevelCall */\n      dup1\n      iszero\n      tag_134\n      jumpi\n      pop\n        /* \"@openzeppelin/contracts-upgradeable/proxy/utils/Initializable.sol\":4746:4760  isTopLevelCall */\n      dup3\n        /* \"@openzeppelin/contracts-upgradeable/proxy/utils/Initializable.sol\":4726:4760  initialized == 0 && isTopLevelCall */\n    tag_134:\n        /* \"@openzeppelin/contracts-upgradeable/proxy/utils/Initializable.sol\":4706:4760  bool initialSetup = initialized == 0 && isTopLevelCall */\n      swap1\n      pop\n        /* \"@openzeppelin/contracts-upgradeable/proxy/utils/Initializable.sol\":4770:4787  bool construction */\n      0x00\n        /* \"@openzeppelin/contracts-upgradeable/proxy/utils/Initializable.sol\":4805:4806  1 */\n      0x01\n        /* \"@openzeppelin/contracts-upgradeable/proxy/utils/Initializable.sol\":4790:4801  initialized */\n      dup4\n        /* \"@openzeppelin/contracts-upgradeable/proxy/utils/Initializable.sol\":4790:4806  initialized == 1 */\n      0xffffffffffffffff\n      and\n      eq\n        /* \"@openzeppelin/contracts-upgradeable/proxy/utils/Initializable.sol\":4790:4840  initialized == 1 && address(this).code.length == 0 */\n      dup1\n      iszero\n      tag_135\n      jumpi\n      pop\n        /* \"@openzeppelin/contracts-upgradeable/proxy/utils/Initializable.sol\":4839:4840  0 */\n      0x00\n        /* \"@openzeppelin/contracts-upgradeable/proxy/utils/Initializable.sol\":4818:4822  this */\n      address\n        /* \"@openzeppelin/contracts-upgradeable/proxy/utils/Initializable.sol\":4810:4835  address(this).code.length */\n      0xffffffffffffffffffffffffffffffffffffffff\n      and\n      extcodesize\n        /* \"@openzeppelin/contracts-upgradeable/proxy/utils/Initializable.sol\":4810:4840  address(this).code.length == 0 */\n      eq\n        /* \"@openzeppelin/contracts-upgradeable/proxy/utils/Initializable.sol\":4790:4840  initialized == 1 && address(this).code.length == 0 */\n    tag_135:\n        /* \"@openzeppelin/contracts-upgradeable/proxy/utils/Initializable.sol\":4770:4840  bool construction = initialized == 1 && address(this).code.length == 0 */\n      swap1\n      pop\n        /* \"@openzeppelin/contracts-upgradeable/proxy/utils/Initializable.sol\":4856:4868  initialSetup */\n      dup2\n        /* \"@openzeppelin/contracts-upgradeable/proxy/utils/Initializable.sol\":4855:4868  !initialSetup */\n      iszero\n        /* \"@openzeppelin/contracts-upgradeable/proxy/utils/Initializable.sol\":4855:4885  !initialSetup && !construction */\n      dup1\n      iszero\n      tag_136\n      jumpi\n      pop\n        /* \"@openzeppelin/contracts-upgradeable/proxy/utils/Initializable.sol\":4873:4885  construction */\n      dup1\n        /* \"@openzeppelin/contracts-upgradeable/proxy/utils/Initializable.sol\":4872:4885  !construction */\n      iszero\n        /* \"@openzeppelin/contracts-upgradeable/proxy/utils/Initializable.sol\":4855:4885  !initialSetup && !construction */\n    tag_136:\n        /* \"@openzeppelin/contracts-upgradeable/proxy/utils/Initializable.sol\":4851:4942  if (!initialSetup && !construction) {... */\n      iszero\n      tag_137\n      jumpi\n        /* \"@openzeppelin/contracts-upgradeable/proxy/utils/Initializable.sol\":4908:4931  InvalidInitialization() */\n      mload(0x40)\n      0xf92ee8a900000000000000000000000000000000000000000000000000000000\n      dup2\n      mstore\n      0x04\n      add\n      mload(0x40)\n      dup1\n      swap2\n      sub\n      swap1\n      revert\n        /* \"@openzeppelin/contracts-upgradeable/proxy/utils/Initializable.sol\":4851:4942  if (!initialSetup && !construction) {... */\n    tag_137:\n        /* \"@openzeppelin/contracts-upgradeable/proxy/utils/Initializable.sol\":4968:4969  1 */\n      0x01\n        /* \"@openzeppelin/contracts-upgradeable/proxy/utils/Initializable.sol\":4951:4952  $ */\n      dup6\n        /* \"@openzeppelin/contracts-upgradeable/proxy/utils/Initializable.sol\":4951:4965  $._initialized */\n      0x00\n      add\n      0x00\n        /* \"@openzeppelin/contracts-upgradeable/proxy/utils/Initializable.sol\":4951:4969  $._initialized = 1 */\n      0x0100\n      exp\n      dup2\n      sload\n      dup2\n      0xffffffffffffffff\n      mul\n      not\n      and\n      swap1\n      dup4\n      0xffffffffffffffff\n      and\n      mul\n      or\n      swap1\n      sstore\n      pop\n        /* \"@openzeppelin/contracts-upgradeable/proxy/utils/Initializable.sol\":4983:4997  isTopLevelCall */\n      dup4\n        /* \"@openzeppelin/contracts-upgradeable/proxy/utils/Initializable.sol\":4979:5046  if (isTopLevelCall) {... */\n      iszero\n      tag_138\n      jumpi\n        /* \"@openzeppelin/contracts-upgradeable/proxy/utils/Initializable.sol\":5031:5035  true */\n      0x01\n        /* \"@openzeppelin/contracts-upgradeable/proxy/utils/Initializable.sol\":5013:5014  $ */\n      dup6\n        /* \"@openzeppelin/contracts-upgradeable/proxy/utils/Initializable.sol\":5013:5028  $._initializing */\n      0x00\n      add\n      0x08\n        /* \"@openzeppelin/contracts-upgradeable/proxy/utils/Initializable.sol\":5013:5035  $._initializing = true */\n      0x0100\n      exp\n      dup2\n      sload\n      dup2\n      0xff\n      mul\n      not\n      and\n      swap1\n      dup4\n      iszero\n      iszero\n      mul\n      or\n      swap1\n      sstore\n      pop\n        /* \"@openzeppelin/contracts-upgradeable/proxy/utils/Initializable.sol\":4979:5046  if (isTopLevelCall) {... */\n    tag_138:\n        /* \"contracts/SocilaPeTransactions.sol\":1121:1147  __Ownable_init(msg.sender) */\n      tag_140\n        /* \"contracts/SocilaPeTransactions.sol\":1136:1146  msg.sender */\n      caller\n        /* \"contracts/SocilaPeTransactions.sol\":1121:1135  __Ownable_init */\n      tag_141\n        /* \"contracts/SocilaPeTransactions.sol\":1121:1147  __Ownable_init(msg.sender) */\n      jump\t// in\n    tag_140:\n        /* \"contracts/SocilaPeTransactions.sol\":1158:1182  __UUPSUpgradeable_init() */\n      tag_142\n        /* \"contracts/SocilaPeTransactions.sol\":1158:1180  __UUPSUpgradeable_init */\n      tag_143\n        /* \"contracts/SocilaPeTransactions.sol\":1158:1182  __UUPSUpgradeable_init() */\n      jump\t// in\n    tag_142:\n        /* \"contracts/SocilaPeTransactions.sol\":1193:1209  __Context_init() */\n      tag_144\n        /* \"contracts/SocilaPeTransactions.sol\":1193:1207  __Context_init */\n      tag_145\n        /* \"contracts/SocilaPeTransactions.sol\":1193:1209  __Context_init() */\n      jump\t// in\n    tag_144:\n        /* \"contracts/SocilaPeTransactions.sol\":1220:1244  __ReentrancyGuard_init() */\n      tag_146\n        /* \"contracts/SocilaPeTransactions.sol\":1220:1242  __ReentrancyGuard_init */\n      tag_147\n        /* \"contracts/SocilaPeTransactions.sol\":1220:1244  __ReentrancyGuard_init() */\n      jump\t// in\n    tag_146:\n        /* \"contracts/SocilaPeTransactions.sol\":1269:1270  0 */\n      0x00\n        /* \"contracts/SocilaPeTransactions.sol\":1255:1266  actionCount */\n      0x33\n        /* \"contracts/SocilaPeTransactions.sol\":1255:1270  actionCount = 0 */\n      dup2\n      swap1\n      sstore\n      pop\n        /* \"@openzeppelin/contracts-upgradeable/proxy/utils/Initializable.sol\":5070:5084  isTopLevelCall */\n      dup4\n        /* \"@openzeppelin/contracts-upgradeable/proxy/utils/Initializable.sol\":5066:5167  if (isTopLevelCall) {... */\n      iszero\n      tag_148\n      jumpi\n        /* \"@openzeppelin/contracts-upgradeable/proxy/utils/Initializable.sol\":5118:5123  false */\n      0x00\n        /* \"@openzeppelin/contracts-upgradeable/proxy/utils/Initializable.sol\":5100:5101  $ */\n      dup6\n        /* \"@openzeppelin/contracts-upgradeable/proxy/utils/Initializable.sol\":5100:5115  $._initializing */\n      0x00\n      add\n      0x08\n        /* \"@openzeppelin/contracts-upgradeable/proxy/utils/Initializable.sol\":5100:5123  $._initializing = false */\n      0x0100\n      exp\n      dup2\n      sload\n      dup2\n      0xff\n      mul\n      not\n      and\n      swap1\n      dup4\n      iszero\n      iszero\n      mul\n      or\n      swap1\n      sstore\n      pop\n        /* \"@openzeppelin/contracts-upgradeable/proxy/utils/Initializable.sol\":5142:5156  Initialized(1) */\n      0xc7f505b2f371ae2175ee4913f4499e1f2633a7b5936321eed1cdaeb6115181d2\n        /* \"@openzeppelin/contracts-upgradeable/proxy/utils/Initializable.sol\":5154:5155  1 */\n      0x01\n        /* \"@openzeppelin/contracts-upgradeable/proxy/utils/Initializable.sol\":5142:5156  Initialized(1) */\n      mload(0x40)\n      tag_149\n      swap2\n      swap1\n      tag_150\n      jump\t// in\n    tag_149:\n      mload(0x40)\n      dup1\n      swap2\n      sub\n      swap1\n      log1\n        /* \"@openzeppelin/contracts-upgradeable/proxy/utils/Initializable.sol\":5066:5167  if (isTopLevelCall) {... */\n    tag_148:\n        /* \"@openzeppelin/contracts-upgradeable/proxy/utils/Initializable.sol\":4092:5173  {... */\n      pop\n      pop\n      pop\n      pop\n      pop\n        /* \"contracts/SocilaPeTransactions.sol\":1069:1278  function initialize() public initializer {... */\n      jump\t// out\n        /* \"contracts/SocilaPeTransactions.sol\":693:734  mapping(uint256 => Action) public actions */\n    tag_59:\n      mstore(0x20, 0x32)\n      dup1\n      0x00\n      mstore\n      keccak256(0x00, 0x40)\n      0x00\n      swap2\n      pop\n      swap1\n      pop\n      dup1\n      0x00\n      add\n      0x00\n      swap1\n      sload\n      swap1\n      0x0100\n      exp\n      swap1\n      div\n      0xffffffffffffffffffffffffffffffffffffffff\n      and\n      swap1\n      dup1\n      0x01\n      add\n      dup1\n      sload\n      tag_151\n      swap1\n      tag_152\n      jump\t// in\n    tag_151:\n      dup1\n      0x1f\n      add\n      0x20\n      dup1\n      swap2\n      div\n      mul\n      0x20\n      add\n      mload(0x40)\n      swap1\n      dup2\n      add\n      0x40\n      mstore\n      dup1\n      swap3\n      swap2\n      swap1\n      dup2\n      dup2\n      mstore\n      0x20\n      add\n      dup3\n      dup1\n      sload\n      tag_153\n      swap1\n      tag_152\n      jump\t// in\n    tag_153:\n      dup1\n      iszero\n      tag_154\n      jumpi\n      dup1\n      0x1f\n      lt\n      tag_155\n      jumpi\n      0x0100\n      dup1\n      dup4\n      sload\n      div\n      mul\n      dup4\n      mstore\n      swap2\n      0x20\n      add\n      swap2\n      jump(tag_154)\n    tag_155:\n      dup3\n      add\n      swap2\n      swap1\n      0x00\n      mstore\n      keccak256(0x00, 0x20)\n      swap1\n    tag_156:\n      dup2\n      sload\n      dup2\n      mstore\n      swap1\n      0x01\n      add\n      swap1\n      0x20\n      add\n      dup1\n      dup4\n      gt\n      tag_156\n      jumpi\n      dup3\n      swap1\n      sub\n      0x1f\n      and\n      dup3\n      add\n      swap2\n    tag_154:\n      pop\n      pop\n      pop\n      pop\n      pop\n      swap1\n      dup1\n      0x02\n      add\n      sload\n      swap1\n      pop\n      dup4\n      jump\t// out\n        /* \"@openzeppelin/contracts-upgradeable/access/OwnableUpgradeable.sol\":2441:2585  function owner() public view virtual returns (address) {... */\n    tag_64:\n        /* \"@openzeppelin/contracts-upgradeable/access/OwnableUpgradeable.sol\":2487:2494  address */\n      0x00\n        /* \"@openzeppelin/contracts-upgradeable/access/OwnableUpgradeable.sol\":2506:2530  OwnableStorage storage $ */\n      dup1\n        /* \"@openzeppelin/contracts-upgradeable/access/OwnableUpgradeable.sol\":2533:2553  _getOwnableStorage() */\n      tag_158\n        /* \"@openzeppelin/contracts-upgradeable/access/OwnableUpgradeable.sol\":2533:2551  _getOwnableStorage */\n      tag_159\n        /* \"@openzeppelin/contracts-upgradeable/access/OwnableUpgradeable.sol\":2533:2553  _getOwnableStorage() */\n      jump\t// in\n    tag_158:\n        /* \"@openzeppelin/contracts-upgradeable/access/OwnableUpgradeable.sol\":2506:2553  OwnableStorage storage $ = _getOwnableStorage() */\n      swap1\n      pop\n        /* \"@openzeppelin/contracts-upgradeable/access/OwnableUpgradeable.sol\":2570:2571  $ */\n      dup1\n        /* \"@openzeppelin/contracts-upgradeable/access/OwnableUpgradeable.sol\":2570:2578  $._owner */\n      0x00\n      add\n      0x00\n      swap1\n      sload\n      swap1\n      0x0100\n      exp\n      swap1\n      div\n      0xffffffffffffffffffffffffffffffffffffffff\n      and\n        /* \"@openzeppelin/contracts-upgradeable/access/OwnableUpgradeable.sol\":2563:2578  return $._owner */\n      swap2\n      pop\n      pop\n        /* \"@openzeppelin/contracts-upgradeable/access/OwnableUpgradeable.sol\":2441:2585  function owner() public view virtual returns (address) {... */\n      swap1\n      jump\t// out\n        /* \"contracts/SocilaPeTransactions.sol\":1636:1878  function addActionType(string calldata actionType) external onlyOwner {... */\n    tag_71:\n        /* \"@openzeppelin/contracts-upgradeable/access/OwnableUpgradeable.sol\":2334:2347  _checkOwner() */\n      tag_161\n        /* \"@openzeppelin/contracts-upgradeable/access/OwnableUpgradeable.sol\":2334:2345  _checkOwner */\n      tag_89\n        /* \"@openzeppelin/contracts-upgradeable/access/OwnableUpgradeable.sol\":2334:2347  _checkOwner() */\n      jump\t// in\n    tag_161:\n        /* \"contracts/SocilaPeTransactions.sol\":1726:1740  allowedActions */\n      0x34\n        /* \"contracts/SocilaPeTransactions.sol\":1741:1751  actionType */\n      dup3\n      dup3\n        /* \"contracts/SocilaPeTransactions.sol\":1726:1752  allowedActions[actionType] */\n      mload(0x40)\n      tag_163\n      swap3\n      swap2\n      swap1\n      tag_114\n      jump\t// in\n    tag_163:\n      swap1\n      dup2\n      mstore\n      0x20\n      add\n      mload(0x40)\n      dup1\n      swap2\n      sub\n      swap1\n      keccak256\n      0x00\n      swap1\n      sload\n      swap1\n      0x0100\n      exp\n      swap1\n      div\n      0xff\n      and\n        /* \"contracts/SocilaPeTransactions.sol\":1725:1752  !allowedActions[actionType] */\n      iszero\n        /* \"contracts/SocilaPeTransactions.sol\":1717:1783  require(!allowedActions[actionType], \"Action type already exists\") */\n      tag_164\n      jumpi\n      mload(0x40)\n      0x08c379a000000000000000000000000000000000000000000000000000000000\n      dup2\n      mstore\n      0x04\n      add\n      tag_165\n      swap1\n      tag_166\n      jump\t// in\n    tag_165:\n      mload(0x40)\n      dup1\n      swap2\n      sub\n      swap1\n      revert\n    tag_164:\n        /* \"contracts/SocilaPeTransactions.sol\":1823:1827  true */\n      0x01\n        /* \"contracts/SocilaPeTransactions.sol\":1794:1808  allowedActions */\n      0x34\n        /* \"contracts/SocilaPeTransactions.sol\":1809:1819  actionType */\n      dup4\n      dup4\n        /* \"contracts/SocilaPeTransactions.sol\":1794:1820  allowedActions[actionType] */\n      mload(0x40)\n      tag_167\n      swap3\n      swap2\n      swap1\n      tag_114\n      jump\t// in\n    tag_167:\n      swap1\n      dup2\n      mstore\n      0x20\n      add\n      mload(0x40)\n      dup1\n      swap2\n      sub\n      swap1\n      keccak256\n      0x00\n        /* \"contracts/SocilaPeTransactions.sol\":1794:1827  allowedActions[actionType] = true */\n      0x0100\n      exp\n      dup2\n      sload\n      dup2\n      0xff\n      mul\n      not\n      and\n      swap1\n      dup4\n      iszero\n      iszero\n      mul\n      or\n      swap1\n      sstore\n      pop\n        /* \"contracts/SocilaPeTransactions.sol\":1843:1870  ActionTypeAdded(actionType) */\n      0xd87f5fb4a18fdf6f8930e7dc0b120b68ee3677d2b64526ae81d70aa82882a753\n        /* \"contracts/SocilaPeTransactions.sol\":1859:1869  actionType */\n      dup3\n      dup3\n        /* \"contracts/SocilaPeTransactions.sol\":1843:1870  ActionTypeAdded(actionType) */\n      mload(0x40)\n      tag_168\n      swap3\n      swap2\n      swap1\n      tag_169\n      jump\t// in\n    tag_168:\n      mload(0x40)\n      dup1\n      swap2\n      sub\n      swap1\n      log1\n        /* \"contracts/SocilaPeTransactions.sol\":1636:1878  function addActionType(string calldata actionType) external onlyOwner {... */\n      pop\n      pop\n      jump\t// out\n        /* \"@openzeppelin/contracts-upgradeable/proxy/utils/UUPSUpgradeable.sol\":1819:1877  string public constant UPGRADE_INTERFACE_VERSION = \"5.0.0\" */\n    tag_74:\n      mload(0x40)\n      dup1\n      0x40\n      add\n      0x40\n      mstore\n      dup1\n      0x05\n      dup2\n      mstore\n      0x20\n      add\n      0x352e302e30000000000000000000000000000000000000000000000000000000\n      dup2\n      mstore\n      pop\n      dup2\n      jump\t// out\n        /* \"contracts/SocilaPeTransactions.sol\":776:821  mapping(string => bool) public allowedActions */\n    tag_81:\n      0x34\n      dup2\n      dup1\n      mload\n      0x20\n      dup2\n      add\n      dup3\n      add\n      dup1\n      mload\n      dup5\n      dup3\n      mstore\n      0x20\n      dup4\n      add\n      0x20\n      dup6\n      add\n      keccak256\n      dup2\n      dup4\n      mstore\n      dup1\n      swap6\n      pop\n      pop\n      pop\n      pop\n      pop\n      pop\n      0x00\n      swap2\n      pop\n      sload\n      swap1\n      0x0100\n      exp\n      swap1\n      div\n      0xff\n      and\n      dup2\n      jump\t// out\n        /* \"@openzeppelin/contracts-upgradeable/access/OwnableUpgradeable.sol\":3405:3620  function transferOwnership(address newOwner) public virtual onlyOwner {... */\n    tag_86:\n        /* \"@openzeppelin/contracts-upgradeable/access/OwnableUpgradeable.sol\":2334:2347  _checkOwner() */\n      tag_171\n        /* \"@openzeppelin/contracts-upgradeable/access/OwnableUpgradeable.sol\":2334:2345  _checkOwner */\n      tag_89\n        /* \"@openzeppelin/contracts-upgradeable/access/OwnableUpgradeable.sol\":2334:2347  _checkOwner() */\n      jump\t// in\n    tag_171:\n        /* \"@openzeppelin/contracts-upgradeable/access/OwnableUpgradeable.sol\":3509:3510  0 */\n      0x00\n        /* \"@openzeppelin/contracts-upgradeable/access/OwnableUpgradeable.sol\":3489:3511  newOwner == address(0) */\n      0xffffffffffffffffffffffffffffffffffffffff\n      and\n        /* \"@openzeppelin/contracts-upgradeable/access/OwnableUpgradeable.sol\":3489:3497  newOwner */\n      dup2\n        /* \"@openzeppelin/contracts-upgradeable/access/OwnableUpgradeable.sol\":3489:3511  newOwner == address(0) */\n      0xffffffffffffffffffffffffffffffffffffffff\n      and\n      sub\n        /* \"@openzeppelin/contracts-upgradeable/access/OwnableUpgradeable.sol\":3485:3576  if (newOwner == address(0)) {... */\n      tag_173\n      jumpi\n        /* \"@openzeppelin/contracts-upgradeable/access/OwnableUpgradeable.sol\":3562:3563  0 */\n      0x00\n        /* \"@openzeppelin/contracts-upgradeable/access/OwnableUpgradeable.sol\":3534:3565  OwnableInvalidOwner(address(0)) */\n      mload(0x40)\n      0x1e4fbdf700000000000000000000000000000000000000000000000000000000\n      dup2\n      mstore\n      0x04\n      add\n      tag_174\n      swap2\n      swap1\n      tag_66\n      jump\t// in\n    tag_174:\n      mload(0x40)\n      dup1\n      swap2\n      sub\n      swap1\n      revert\n        /* \"@openzeppelin/contracts-upgradeable/access/OwnableUpgradeable.sol\":3485:3576  if (newOwner == address(0)) {... */\n    tag_173:\n        /* \"@openzeppelin/contracts-upgradeable/access/OwnableUpgradeable.sol\":3585:3613  _transferOwnership(newOwner) */\n      tag_175\n        /* \"@openzeppelin/contracts-upgradeable/access/OwnableUpgradeable.sol\":3604:3612  newOwner */\n      dup2\n        /* \"@openzeppelin/contracts-upgradeable/access/OwnableUpgradeable.sol\":3585:3603  _transferOwnership */\n      tag_130\n        /* \"@openzeppelin/contracts-upgradeable/access/OwnableUpgradeable.sol\":3585:3613  _transferOwnership(newOwner) */\n      jump\t// in\n    tag_175:\n        /* \"@openzeppelin/contracts-upgradeable/access/OwnableUpgradeable.sol\":3405:3620  function transferOwnership(address newOwner) public virtual onlyOwner {... */\n      pop\n      jump\t// out\n        /* \"@openzeppelin/contracts-upgradeable/access/OwnableUpgradeable.sol\":2658:2820  function _checkOwner() internal view virtual {... */\n    tag_89:\n        /* \"@openzeppelin/contracts-upgradeable/access/OwnableUpgradeable.sol\":2728:2740  _msgSender() */\n      tag_177\n        /* \"@openzeppelin/contracts-upgradeable/access/OwnableUpgradeable.sol\":2728:2738  _msgSender */\n      tag_178\n        /* \"@openzeppelin/contracts-upgradeable/access/OwnableUpgradeable.sol\":2728:2740  _msgSender() */\n      jump\t// in\n    tag_177:\n        /* \"@openzeppelin/contracts-upgradeable/access/OwnableUpgradeable.sol\":2717:2740  owner() != _msgSender() */\n      0xffffffffffffffffffffffffffffffffffffffff\n      and\n        /* \"@openzeppelin/contracts-upgradeable/access/OwnableUpgradeable.sol\":2717:2724  owner() */\n      tag_179\n        /* \"@openzeppelin/contracts-upgradeable/access/OwnableUpgradeable.sol\":2717:2722  owner */\n      tag_64\n        /* \"@openzeppelin/contracts-upgradeable/access/OwnableUpgradeable.sol\":2717:2724  owner() */\n      jump\t// in\n    tag_179:\n        /* \"@openzeppelin/contracts-upgradeable/access/OwnableUpgradeable.sol\":2717:2740  owner() != _msgSender() */\n      0xffffffffffffffffffffffffffffffffffffffff\n      and\n      eq\n        /* \"@openzeppelin/contracts-upgradeable/access/OwnableUpgradeable.sol\":2713:2814  if (owner() != _msgSender()) {... */\n      tag_180\n      jumpi\n        /* \"@openzeppelin/contracts-upgradeable/access/OwnableUpgradeable.sol\":2790:2802  _msgSender() */\n      tag_181\n        /* \"@openzeppelin/contracts-upgradeable/access/OwnableUpgradeable.sol\":2790:2800  _msgSender */\n      tag_178\n        /* \"@openzeppelin/contracts-upgradeable/access/OwnableUpgradeable.sol\":2790:2802  _msgSender() */\n      jump\t// in\n    tag_181:\n        /* \"@openzeppelin/contracts-upgradeable/access/OwnableUpgradeable.sol\":2763:2803  OwnableUnauthorizedAccount(_msgSender()) */\n      mload(0x40)\n      0x118cdaa700000000000000000000000000000000000000000000000000000000\n      dup2\n      mstore\n      0x04\n      add\n      tag_182\n      swap2\n      swap1\n      tag_66\n      jump\t// in\n    tag_182:\n      mload(0x40)\n      dup1\n      swap2\n      sub\n      swap1\n      revert\n        /* \"@openzeppelin/contracts-upgradeable/access/OwnableUpgradeable.sol\":2713:2814  if (owner() != _msgSender()) {... */\n    tag_180:\n        /* \"@openzeppelin/contracts-upgradeable/access/OwnableUpgradeable.sol\":2658:2820  function _checkOwner() internal view virtual {... */\n      jump\t// out\n        /* \"@openzeppelin/contracts-upgradeable/proxy/utils/UUPSUpgradeable.sol\":4603:4915  function _checkProxy() internal view virtual {... */\n    tag_96:\n        /* \"@openzeppelin/contracts-upgradeable/proxy/utils/UUPSUpgradeable.sol\":4692:4698  __self */\n      immutable(\"0x0b83f23a4eeb8c3f5f7d5934a2289bcf0186d09a12e1b7f20adf54e4b179db15\")\n        /* \"@openzeppelin/contracts-upgradeable/proxy/utils/UUPSUpgradeable.sol\":4675:4698  address(this) == __self */\n      0xffffffffffffffffffffffffffffffffffffffff\n      and\n        /* \"@openzeppelin/contracts-upgradeable/proxy/utils/UUPSUpgradeable.sol\":4683:4687  this */\n      address\n        /* \"@openzeppelin/contracts-upgradeable/proxy/utils/UUPSUpgradeable.sol\":4675:4698  address(this) == __self */\n      0xffffffffffffffffffffffffffffffffffffffff\n      and\n      eq\n        /* \"@openzeppelin/contracts-upgradeable/proxy/utils/UUPSUpgradeable.sol\":4675:4795  address(this) == __self || // Must be called through delegatecall... */\n      dup1\n      tag_184\n      jumpi\n      pop\n        /* \"@openzeppelin/contracts-upgradeable/proxy/utils/UUPSUpgradeable.sol\":4789:4795  __self */\n      immutable(\"0x0b83f23a4eeb8c3f5f7d5934a2289bcf0186d09a12e1b7f20adf54e4b179db15\")\n        /* \"@openzeppelin/contracts-upgradeable/proxy/utils/UUPSUpgradeable.sol\":4753:4795  ERC1967Utils.getImplementation() != __self */\n      0xffffffffffffffffffffffffffffffffffffffff\n      and\n        /* \"@openzeppelin/contracts-upgradeable/proxy/utils/UUPSUpgradeable.sol\":4753:4785  ERC1967Utils.getImplementation() */\n      tag_185\n        /* \"@openzeppelin/contracts-upgradeable/proxy/utils/UUPSUpgradeable.sol\":4753:4783  ERC1967Utils.getImplementation */\n      tag_186\n        /* \"@openzeppelin/contracts-upgradeable/proxy/utils/UUPSUpgradeable.sol\":4753:4785  ERC1967Utils.getImplementation() */\n      jump\t// in\n    tag_185:\n        /* \"@openzeppelin/contracts-upgradeable/proxy/utils/UUPSUpgradeable.sol\":4753:4795  ERC1967Utils.getImplementation() != __self */\n      0xffffffffffffffffffffffffffffffffffffffff\n      and\n      eq\n      iszero\n        /* \"@openzeppelin/contracts-upgradeable/proxy/utils/UUPSUpgradeable.sol\":4675:4795  address(this) == __self || // Must be called through delegatecall... */\n    tag_184:\n        /* \"@openzeppelin/contracts-upgradeable/proxy/utils/UUPSUpgradeable.sol\":4658:4909  if (... */\n      iszero\n      tag_187\n      jumpi\n        /* \"@openzeppelin/contracts-upgradeable/proxy/utils/UUPSUpgradeable.sol\":4869:4898  UUPSUnauthorizedCallContext() */\n      mload(0x40)\n      0xe07c8dba00000000000000000000000000000000000000000000000000000000\n      dup2\n      mstore\n      0x04\n      add\n      mload(0x40)\n      dup1\n      swap2\n      sub\n      swap1\n      revert\n        /* \"@openzeppelin/contracts-upgradeable/proxy/utils/UUPSUpgradeable.sol\":4658:4909  if (... */\n    tag_187:\n        /* \"@openzeppelin/contracts-upgradeable/proxy/utils/UUPSUpgradeable.sol\":4603:4915  function _checkProxy() internal view virtual {... */\n      jump\t// out\n        /* \"contracts/SocilaPeTransactions.sol\":2394:2478  function _authorizeUpgrade(address newImplementation) internal override onlyOwner {} */\n    tag_99:\n        /* \"@openzeppelin/contracts-upgradeable/access/OwnableUpgradeable.sol\":2334:2347  _checkOwner() */\n      tag_189\n        /* \"@openzeppelin/contracts-upgradeable/access/OwnableUpgradeable.sol\":2334:2345  _checkOwner */\n      tag_89\n        /* \"@openzeppelin/contracts-upgradeable/access/OwnableUpgradeable.sol\":2334:2347  _checkOwner() */\n      jump\t// in\n    tag_189:\n        /* \"contracts/SocilaPeTransactions.sol\":2394:2478  function _authorizeUpgrade(address newImplementation) internal override onlyOwner {} */\n      pop\n      jump\t// out\n        /* \"@openzeppelin/contracts-upgradeable/proxy/utils/UUPSUpgradeable.sol\":6057:6595  function _upgradeToAndCallUUPS(address newImplementation, bytes memory data) private {... */\n    tag_101:\n        /* \"@openzeppelin/contracts-upgradeable/proxy/utils/UUPSUpgradeable.sol\":6174:6191  newImplementation */\n      dup2\n        /* \"@openzeppelin/contracts-upgradeable/proxy/utils/UUPSUpgradeable.sol\":6156:6206  IERC1822Proxiable(newImplementation).proxiableUUID */\n      0xffffffffffffffffffffffffffffffffffffffff\n      and\n      0x52d1902d\n        /* \"@openzeppelin/contracts-upgradeable/proxy/utils/UUPSUpgradeable.sol\":6156:6208  IERC1822Proxiable(newImplementation).proxiableUUID() */\n      mload(0x40)\n      dup2\n      0xffffffff\n      and\n      0xe0\n      shl\n      dup2\n      mstore\n      0x04\n      add\n      0x20\n      mload(0x40)\n      dup1\n      dup4\n      sub\n      dup2\n      dup7\n      gas\n      staticcall\n      swap3\n      pop\n      pop\n      pop\n      dup1\n      iszero\n      tag_192\n      jumpi\n      pop\n      mload(0x40)\n      returndatasize\n      not(0x1f)\n      0x1f\n      dup3\n      add\n      and\n      dup3\n      add\n      dup1\n      0x40\n      mstore\n      pop\n      dup2\n      add\n      swap1\n      tag_193\n      swap2\n      swap1\n      tag_194\n      jump\t// in\n    tag_193:\n      0x01\n    tag_192:\n        /* \"@openzeppelin/contracts-upgradeable/proxy/utils/UUPSUpgradeable.sol\":6152:6589  try IERC1822Proxiable(newImplementation).proxiableUUID() returns (bytes32 slot) {... */\n      tag_195\n      jumpi\n        /* \"@openzeppelin/contracts-upgradeable/proxy/utils/UUPSUpgradeable.sol\":6560:6577  newImplementation */\n      dup2\n        /* \"@openzeppelin/contracts-upgradeable/proxy/utils/UUPSUpgradeable.sol\":6518:6578  ERC1967Utils.ERC1967InvalidImplementation(newImplementation) */\n      mload(0x40)\n      0x4c9c8ce300000000000000000000000000000000000000000000000000000000\n      dup2\n      mstore\n      0x04\n      add\n      tag_199\n      swap2\n      swap1\n      tag_66\n      jump\t// in\n    tag_199:\n      mload(0x40)\n      dup1\n      swap2\n      sub\n      swap1\n      revert\n        /* \"@openzeppelin/contracts-upgradeable/proxy/utils/UUPSUpgradeable.sol\":6152:6589  try IERC1822Proxiable(newImplementation).proxiableUUID() returns (bytes32 slot) {... */\n    tag_195:\n        /* \"@openzeppelin/contracts/proxy/ERC1967/ERC1967Utils.sol\":811:877  0x360894a13ba1a3210667c828492db98dca3e2076cc3735a920a3ca505d382bbc */\n      0x360894a13ba1a3210667c828492db98dca3e2076cc3735a920a3ca505d382bbc\n        /* \"@openzeppelin/contracts-upgradeable/proxy/utils/UUPSUpgradeable.sol\":6258:6290  ERC1967Utils.IMPLEMENTATION_SLOT */\n      0x00\n      shl\n        /* \"@openzeppelin/contracts-upgradeable/proxy/utils/UUPSUpgradeable.sol\":6250:6254  slot */\n      dup2\n        /* \"@openzeppelin/contracts-upgradeable/proxy/utils/UUPSUpgradeable.sol\":6250:6290  slot != ERC1967Utils.IMPLEMENTATION_SLOT */\n      eq\n        /* \"@openzeppelin/contracts-upgradeable/proxy/utils/UUPSUpgradeable.sol\":6246:6366  if (slot != ERC1967Utils.IMPLEMENTATION_SLOT) {... */\n      tag_201\n      jumpi\n        /* \"@openzeppelin/contracts-upgradeable/proxy/utils/UUPSUpgradeable.sol\":6346:6350  slot */\n      dup1\n        /* \"@openzeppelin/contracts-upgradeable/proxy/utils/UUPSUpgradeable.sol\":6317:6351  UUPSUnsupportedProxiableUUID(slot) */\n      mload(0x40)\n      0xaa1d49a400000000000000000000000000000000000000000000000000000000\n      dup2\n      mstore\n      0x04\n      add\n      tag_202\n      swap2\n      swap1\n      tag_43\n      jump\t// in\n    tag_202:\n      mload(0x40)\n      dup1\n      swap2\n      sub\n      swap1\n      revert\n        /* \"@openzeppelin/contracts-upgradeable/proxy/utils/UUPSUpgradeable.sol\":6246:6366  if (slot != ERC1967Utils.IMPLEMENTATION_SLOT) {... */\n    tag_201:\n        /* \"@openzeppelin/contracts-upgradeable/proxy/utils/UUPSUpgradeable.sol\":6379:6433  ERC1967Utils.upgradeToAndCall(newImplementation, data) */\n      tag_203\n        /* \"@openzeppelin/contracts-upgradeable/proxy/utils/UUPSUpgradeable.sol\":6409:6426  newImplementation */\n      dup4\n        /* \"@openzeppelin/contracts-upgradeable/proxy/utils/UUPSUpgradeable.sol\":6428:6432  data */\n      dup4\n        /* \"@openzeppelin/contracts-upgradeable/proxy/utils/UUPSUpgradeable.sol\":6379:6408  ERC1967Utils.upgradeToAndCall */\n      tag_204\n        /* \"@openzeppelin/contracts-upgradeable/proxy/utils/UUPSUpgradeable.sol\":6379:6433  ERC1967Utils.upgradeToAndCall(newImplementation, data) */\n      jump\t// in\n    tag_203:\n        /* \"@openzeppelin/contracts-upgradeable/proxy/utils/UUPSUpgradeable.sol\":6209:6444  returns (bytes32 slot) {... */\n      pop\n        /* \"@openzeppelin/contracts-upgradeable/proxy/utils/UUPSUpgradeable.sol\":6057:6595  function _upgradeToAndCallUUPS(address newImplementation, bytes memory data) private {... */\n      pop\n      pop\n      jump\t// out\n        /* \"@openzeppelin/contracts-upgradeable/proxy/utils/UUPSUpgradeable.sol\":5032:5245  function _checkNotDelegated() internal view virtual {... */\n    tag_104:\n        /* \"@openzeppelin/contracts-upgradeable/proxy/utils/UUPSUpgradeable.sol\":5115:5121  __self */\n      immutable(\"0x0b83f23a4eeb8c3f5f7d5934a2289bcf0186d09a12e1b7f20adf54e4b179db15\")\n        /* \"@openzeppelin/contracts-upgradeable/proxy/utils/UUPSUpgradeable.sol\":5098:5121  address(this) != __self */\n      0xffffffffffffffffffffffffffffffffffffffff\n      and\n        /* \"@openzeppelin/contracts-upgradeable/proxy/utils/UUPSUpgradeable.sol\":5106:5110  this */\n      address\n        /* \"@openzeppelin/contracts-upgradeable/proxy/utils/UUPSUpgradeable.sol\":5098:5121  address(this) != __self */\n      0xffffffffffffffffffffffffffffffffffffffff\n      and\n      eq\n        /* \"@openzeppelin/contracts-upgradeable/proxy/utils/UUPSUpgradeable.sol\":5094:5239  if (address(this) != __self) {... */\n      tag_206\n      jumpi\n        /* \"@openzeppelin/contracts-upgradeable/proxy/utils/UUPSUpgradeable.sol\":5199:5228  UUPSUnauthorizedCallContext() */\n      mload(0x40)\n      0xe07c8dba00000000000000000000000000000000000000000000000000000000\n      dup2\n      mstore\n      0x04\n      add\n      mload(0x40)\n      dup1\n      swap2\n      sub\n      swap1\n      revert\n        /* \"@openzeppelin/contracts-upgradeable/proxy/utils/UUPSUpgradeable.sol\":5094:5239  if (address(this) != __self) {... */\n    tag_206:\n        /* \"@openzeppelin/contracts-upgradeable/proxy/utils/UUPSUpgradeable.sol\":5032:5245  function _checkNotDelegated() internal view virtual {... */\n      jump\t// out\n        /* \"@openzeppelin/contracts-upgradeable/security/ReentrancyGuardUpgradeable.sol\":2601:2888  function _nonReentrantBefore() private {... */\n    tag_108:\n        /* \"@openzeppelin/contracts-upgradeable/security/ReentrancyGuardUpgradeable.sol\":1851:1852  2 */\n      0x02\n        /* \"@openzeppelin/contracts-upgradeable/security/ReentrancyGuardUpgradeable.sol\":2733:2740  _status */\n      sload(0x00)\n        /* \"@openzeppelin/contracts-upgradeable/security/ReentrancyGuardUpgradeable.sol\":2733:2752  _status != _ENTERED */\n      sub\n        /* \"@openzeppelin/contracts-upgradeable/security/ReentrancyGuardUpgradeable.sol\":2725:2788  require(_status != _ENTERED, \"ReentrancyGuard: reentrant call\") */\n      tag_208\n      jumpi\n      mload(0x40)\n      0x08c379a000000000000000000000000000000000000000000000000000000000\n      dup2\n      mstore\n      0x04\n      add\n      tag_209\n      swap1\n      tag_210\n      jump\t// in\n    tag_209:\n      mload(0x40)\n      dup1\n      swap2\n      sub\n      swap1\n      revert\n    tag_208:\n        /* \"@openzeppelin/contracts-upgradeable/security/ReentrancyGuardUpgradeable.sol\":1851:1852  2 */\n      0x02\n        /* \"@openzeppelin/contracts-upgradeable/security/ReentrancyGuardUpgradeable.sol\":2863:2870  _status */\n      0x00\n        /* \"@openzeppelin/contracts-upgradeable/security/ReentrancyGuardUpgradeable.sol\":2863:2881  _status = _ENTERED */\n      dup2\n      swap1\n      sstore\n      pop\n        /* \"@openzeppelin/contracts-upgradeable/security/ReentrancyGuardUpgradeable.sol\":2601:2888  function _nonReentrantBefore() private {... */\n      jump\t// out\n        /* \"@openzeppelin/contracts-upgradeable/security/ReentrancyGuardUpgradeable.sol\":2894:3103  function _nonReentrantAfter() private {... */\n    tag_125:\n        /* \"@openzeppelin/contracts-upgradeable/security/ReentrancyGuardUpgradeable.sol\":1808:1809  1 */\n      0x01\n        /* \"@openzeppelin/contracts-upgradeable/security/ReentrancyGuardUpgradeable.sol\":3074:3081  _status */\n      0x00\n        /* \"@openzeppelin/contracts-upgradeable/security/ReentrancyGuardUpgradeable.sol\":3074:3096  _status = _NOT_ENTERED */\n      dup2\n      swap1\n      sstore\n      pop\n        /* \"@openzeppelin/contracts-upgradeable/security/ReentrancyGuardUpgradeable.sol\":2894:3103  function _nonReentrantAfter() private {... */\n      jump\t// out\n        /* \"@openzeppelin/contracts-upgradeable/access/OwnableUpgradeable.sol\":3774:4022  function _transferOwnership(address newOwner) internal virtual {... */\n    tag_130:\n        /* \"@openzeppelin/contracts-upgradeable/access/OwnableUpgradeable.sol\":3847:3871  OwnableStorage storage $ */\n      0x00\n        /* \"@openzeppelin/contracts-upgradeable/access/OwnableUpgradeable.sol\":3874:3894  _getOwnableStorage() */\n      tag_213\n        /* \"@openzeppelin/contracts-upgradeable/access/OwnableUpgradeable.sol\":3874:3892  _getOwnableStorage */\n      tag_159\n        /* \"@openzeppelin/contracts-upgradeable/access/OwnableUpgradeable.sol\":3874:3894  _getOwnableStorage() */\n      jump\t// in\n    tag_213:\n        /* \"@openzeppelin/contracts-upgradeable/access/OwnableUpgradeable.sol\":3847:3894  OwnableStorage storage $ = _getOwnableStorage() */\n      swap1\n      pop\n        /* \"@openzeppelin/contracts-upgradeable/access/OwnableUpgradeable.sol\":3904:3920  address oldOwner */\n      0x00\n        /* \"@openzeppelin/contracts-upgradeable/access/OwnableUpgradeable.sol\":3923:3924  $ */\n      dup2\n        /* \"@openzeppelin/contracts-upgradeable/access/OwnableUpgradeable.sol\":3923:3931  $._owner */\n      0x00\n      add\n      0x00\n      swap1\n      sload\n      swap1\n      0x0100\n      exp\n      swap1\n      div\n      0xffffffffffffffffffffffffffffffffffffffff\n      and\n        /* \"@openzeppelin/contracts-upgradeable/access/OwnableUpgradeable.sol\":3904:3931  address oldOwner = $._owner */\n      swap1\n      pop\n        /* \"@openzeppelin/contracts-upgradeable/access/OwnableUpgradeable.sol\":3952:3960  newOwner */\n      dup3\n        /* \"@openzeppelin/contracts-upgradeable/access/OwnableUpgradeable.sol\":3941:3942  $ */\n      dup3\n        /* \"@openzeppelin/contracts-upgradeable/access/OwnableUpgradeable.sol\":3941:3949  $._owner */\n      0x00\n      add\n      0x00\n        /* \"@openzeppelin/contracts-upgradeable/access/OwnableUpgradeable.sol\":3941:3960  $._owner = newOwner */\n      0x0100\n      exp\n      dup2\n      sload\n      dup2\n      0xffffffffffffffffffffffffffffffffffffffff\n      mul\n      not\n      and\n      swap1\n      dup4\n      0xffffffffffffffffffffffffffffffffffffffff\n      and\n      mul\n      or\n      swap1\n      sstore\n      pop\n        /* \"@openzeppelin/contracts-upgradeable/access/OwnableUpgradeable.sol\":4006:4014  newOwner */\n      dup3\n        /* \"@openzeppelin/contracts-upgradeable/access/OwnableUpgradeable.sol\":3975:4015  OwnershipTransferred(oldOwner, newOwner) */\n      0xffffffffffffffffffffffffffffffffffffffff\n      and\n        /* \"@openzeppelin/contracts-upgradeable/access/OwnableUpgradeable.sol\":3996:4004  oldOwner */\n      dup2\n        /* \"@openzeppelin/contracts-upgradeable/access/OwnableUpgradeable.sol\":3975:4015  OwnershipTransferred(oldOwner, newOwner) */\n      0xffffffffffffffffffffffffffffffffffffffff\n      and\n      0x8be0079c531659141344cd1fd0a4f28419497f9722a3daafe3b4186f6b6457e0\n      mload(0x40)\n      mload(0x40)\n      dup1\n      swap2\n      sub\n      swap1\n      log3\n        /* \"@openzeppelin/contracts-upgradeable/access/OwnableUpgradeable.sol\":3837:4022  {... */\n      pop\n      pop\n        /* \"@openzeppelin/contracts-upgradeable/access/OwnableUpgradeable.sol\":3774:4022  function _transferOwnership(address newOwner) internal virtual {... */\n      pop\n      jump\t// out\n        /* \"@openzeppelin/contracts-upgradeable/proxy/utils/Initializable.sol\":8737:8907  function _getInitializableStorage() private pure returns (InitializableStorage storage $) {... */\n    tag_133:\n        /* \"@openzeppelin/contracts-upgradeable/proxy/utils/Initializable.sol\":8795:8825  InitializableStorage storage $ */\n      0x00\n        /* \"@openzeppelin/contracts-upgradeable/proxy/utils/Initializable.sol\":8870:8891  INITIALIZABLE_STORAGE */\n      0xf0c57e16840df040f15088dc2f81fe391c3923bec73e23a9662efc9c229c6a00\n        /* \"@openzeppelin/contracts-upgradeable/proxy/utils/Initializable.sol\":8860:8891  $.slot := INITIALIZABLE_STORAGE */\n      swap1\n      pop\n        /* \"@openzeppelin/contracts-upgradeable/proxy/utils/Initializable.sol\":8737:8907  function _getInitializableStorage() private pure returns (InitializableStorage storage $) {... */\n      swap1\n      jump\t// out\n        /* \"@openzeppelin/contracts-upgradeable/access/OwnableUpgradeable.sol\":1847:1974  function __Ownable_init(address initialOwner) internal onlyInitializing {... */\n    tag_141:\n        /* \"@openzeppelin/contracts-upgradeable/proxy/utils/Initializable.sol\":6931:6951  _checkInitializing() */\n      tag_216\n        /* \"@openzeppelin/contracts-upgradeable/proxy/utils/Initializable.sol\":6931:6949  _checkInitializing */\n      tag_217\n        /* \"@openzeppelin/contracts-upgradeable/proxy/utils/Initializable.sol\":6931:6951  _checkInitializing() */\n      jump\t// in\n    tag_216:\n        /* \"@openzeppelin/contracts-upgradeable/access/OwnableUpgradeable.sol\":1929:1967  __Ownable_init_unchained(initialOwner) */\n      tag_219\n        /* \"@openzeppelin/contracts-upgradeable/access/OwnableUpgradeable.sol\":1954:1966  initialOwner */\n      dup2\n        /* \"@openzeppelin/contracts-upgradeable/access/OwnableUpgradeable.sol\":1929:1953  __Ownable_init_unchained */\n      tag_220\n        /* \"@openzeppelin/contracts-upgradeable/access/OwnableUpgradeable.sol\":1929:1967  __Ownable_init_unchained(initialOwner) */\n      jump\t// in\n    tag_219:\n        /* \"@openzeppelin/contracts-upgradeable/access/OwnableUpgradeable.sol\":1847:1974  function __Ownable_init(address initialOwner) internal onlyInitializing {... */\n      pop\n      jump\t// out\n        /* \"@openzeppelin/contracts-upgradeable/proxy/utils/UUPSUpgradeable.sol\":2970:3037  function __UUPSUpgradeable_init() internal onlyInitializing {... */\n    tag_143:\n        /* \"@openzeppelin/contracts-upgradeable/proxy/utils/Initializable.sol\":6931:6951  _checkInitializing() */\n      tag_222\n        /* \"@openzeppelin/contracts-upgradeable/proxy/utils/Initializable.sol\":6931:6949  _checkInitializing */\n      tag_217\n        /* \"@openzeppelin/contracts-upgradeable/proxy/utils/Initializable.sol\":6931:6951  _checkInitializing() */\n      jump\t// in\n    tag_222:\n        /* \"@openzeppelin/contracts-upgradeable/proxy/utils/UUPSUpgradeable.sol\":2970:3037  function __UUPSUpgradeable_init() internal onlyInitializing {... */\n      jump\t// out\n        /* \"@openzeppelin/contracts-upgradeable/utils/ContextUpgradeable.sol\":748:807  function __Context_init() internal onlyInitializing {... */\n    tag_145:\n        /* \"@openzeppelin/contracts-upgradeable/proxy/utils/Initializable.sol\":6931:6951  _checkInitializing() */\n      tag_225\n        /* \"@openzeppelin/contracts-upgradeable/proxy/utils/Initializable.sol\":6931:6949  _checkInitializing */\n      tag_217\n        /* \"@openzeppelin/contracts-upgradeable/proxy/utils/Initializable.sol\":6931:6951  _checkInitializing() */\n      jump\t// in\n    tag_225:\n        /* \"@openzeppelin/contracts-upgradeable/utils/ContextUpgradeable.sol\":748:807  function __Context_init() internal onlyInitializing {... */\n      jump\t// out\n        /* \"@openzeppelin/contracts-upgradeable/security/ReentrancyGuardUpgradeable.sol\":1889:2000  function __ReentrancyGuard_init() internal onlyInitializing {... */\n    tag_147:\n        /* \"@openzeppelin/contracts-upgradeable/proxy/utils/Initializable.sol\":6931:6951  _checkInitializing() */\n      tag_228\n        /* \"@openzeppelin/contracts-upgradeable/proxy/utils/Initializable.sol\":6931:6949  _checkInitializing */\n      tag_217\n        /* \"@openzeppelin/contracts-upgradeable/proxy/utils/Initializable.sol\":6931:6951  _checkInitializing() */\n      jump\t// in\n    tag_228:\n        /* \"@openzeppelin/contracts-upgradeable/security/ReentrancyGuardUpgradeable.sol\":1959:1993  __ReentrancyGuard_init_unchained() */\n      tag_230\n        /* \"@openzeppelin/contracts-upgradeable/security/ReentrancyGuardUpgradeable.sol\":1959:1991  __ReentrancyGuard_init_unchained */\n      tag_231\n        /* \"@openzeppelin/contracts-upgradeable/security/ReentrancyGuardUpgradeable.sol\":1959:1993  __ReentrancyGuard_init_unchained() */\n      jump\t// in\n    tag_230:\n        /* \"@openzeppelin/contracts-upgradeable/security/ReentrancyGuardUpgradeable.sol\":1889:2000  function __ReentrancyGuard_init() internal onlyInitializing {... */\n      jump\t// out\n        /* \"@openzeppelin/contracts-upgradeable/access/OwnableUpgradeable.sol\":1192:1351  function _getOwnableStorage() private pure returns (OwnableStorage storage $) {... */\n    tag_159:\n        /* \"@openzeppelin/contracts-upgradeable/access/OwnableUpgradeable.sol\":1244:1268  OwnableStorage storage $ */\n      0x00\n        /* \"@openzeppelin/contracts-upgradeable/access/OwnableUpgradeable.sol\":1313:1335  OwnableStorageLocation */\n      0x9016d09d72d40fdae2fd8ceac6b6234c7706214fd39c1cd1e609a0528c199300\n        /* \"@openzeppelin/contracts-upgradeable/access/OwnableUpgradeable.sol\":1303:1335  $.slot := OwnableStorageLocation */\n      swap1\n      pop\n        /* \"@openzeppelin/contracts-upgradeable/access/OwnableUpgradeable.sol\":1192:1351  function _getOwnableStorage() private pure returns (OwnableStorage storage $) {... */\n      swap1\n      jump\t// out\n        /* \"contracts/SocilaPeTransactions.sol\":2486:2626  function _msgSender() internal view override(ContextUpgradeable) returns (address) {... */\n    tag_178:\n        /* \"contracts/SocilaPeTransactions.sol\":2560:2567  address */\n      0x00\n        /* \"contracts/SocilaPeTransactions.sol\":2587:2618  ContextUpgradeable._msgSender() */\n      tag_234\n        /* \"contracts/SocilaPeTransactions.sol\":2587:2616  ContextUpgradeable._msgSender */\n      tag_235\n        /* \"contracts/SocilaPeTransactions.sol\":2587:2618  ContextUpgradeable._msgSender() */\n      jump\t// in\n    tag_234:\n        /* \"contracts/SocilaPeTransactions.sol\":2580:2618  return ContextUpgradeable._msgSender() */\n      swap1\n      pop\n        /* \"contracts/SocilaPeTransactions.sol\":2486:2626  function _msgSender() internal view override(ContextUpgradeable) returns (address) {... */\n      swap1\n      jump\t// out\n        /* \"@openzeppelin/contracts/proxy/ERC1967/ERC1967Utils.sol\":1441:1579  function getImplementation() internal view returns (address) {... */\n    tag_186:\n        /* \"@openzeppelin/contracts/proxy/ERC1967/ERC1967Utils.sol\":1493:1500  address */\n      0x00\n        /* \"@openzeppelin/contracts/proxy/ERC1967/ERC1967Utils.sol\":1519:1566  StorageSlot.getAddressSlot(IMPLEMENTATION_SLOT) */\n      tag_237\n        /* \"@openzeppelin/contracts/proxy/ERC1967/ERC1967Utils.sol\":811:877  0x360894a13ba1a3210667c828492db98dca3e2076cc3735a920a3ca505d382bbc */\n      0x360894a13ba1a3210667c828492db98dca3e2076cc3735a920a3ca505d382bbc\n        /* \"@openzeppelin/contracts/proxy/ERC1967/ERC1967Utils.sol\":1546:1565  IMPLEMENTATION_SLOT */\n      0x00\n      shl\n        /* \"@openzeppelin/contracts/proxy/ERC1967/ERC1967Utils.sol\":1519:1545  StorageSlot.getAddressSlot */\n      tag_238\n        /* \"@openzeppelin/contracts/proxy/ERC1967/ERC1967Utils.sol\":1519:1566  StorageSlot.getAddressSlot(IMPLEMENTATION_SLOT) */\n      jump\t// in\n    tag_237:\n        /* \"@openzeppelin/contracts/proxy/ERC1967/ERC1967Utils.sol\":1519:1572  StorageSlot.getAddressSlot(IMPLEMENTATION_SLOT).value */\n      0x00\n      add\n      0x00\n      swap1\n      sload\n      swap1\n      0x0100\n      exp\n      swap1\n      div\n      0xffffffffffffffffffffffffffffffffffffffff\n      and\n        /* \"@openzeppelin/contracts/proxy/ERC1967/ERC1967Utils.sol\":1512:1572  return StorageSlot.getAddressSlot(IMPLEMENTATION_SLOT).value */\n      swap1\n      pop\n        /* \"@openzeppelin/contracts/proxy/ERC1967/ERC1967Utils.sol\":1441:1579  function getImplementation() internal view returns (address) {... */\n      swap1\n      jump\t// out\n        /* \"@openzeppelin/contracts/proxy/ERC1967/ERC1967Utils.sol\":2264:2608  function upgradeToAndCall(address newImplementation, bytes memory data) internal {... */\n    tag_204:\n        /* \"@openzeppelin/contracts/proxy/ERC1967/ERC1967Utils.sol\":2355:2392  _setImplementation(newImplementation) */\n      tag_240\n        /* \"@openzeppelin/contracts/proxy/ERC1967/ERC1967Utils.sol\":2374:2391  newImplementation */\n      dup3\n        /* \"@openzeppelin/contracts/proxy/ERC1967/ERC1967Utils.sol\":2355:2373  _setImplementation */\n      tag_241\n        /* \"@openzeppelin/contracts/proxy/ERC1967/ERC1967Utils.sol\":2355:2392  _setImplementation(newImplementation) */\n      jump\t// in\n    tag_240:\n        /* \"@openzeppelin/contracts/proxy/ERC1967/ERC1967Utils.sol\":2425:2442  newImplementation */\n      dup2\n        /* \"@openzeppelin/contracts/proxy/ERC1967/ERC1967Utils.sol\":2407:2443  IERC1967.Upgraded(newImplementation) */\n      0xffffffffffffffffffffffffffffffffffffffff\n      and\n      0xbc7cd75a20ee27fd9adebab32041f755214dbc6bffa90cc0225b39da2e5c2d3b\n      mload(0x40)\n      mload(0x40)\n      dup1\n      swap2\n      sub\n      swap1\n      log2\n        /* \"@openzeppelin/contracts/proxy/ERC1967/ERC1967Utils.sol\":2472:2473  0 */\n      0x00\n        /* \"@openzeppelin/contracts/proxy/ERC1967/ERC1967Utils.sol\":2458:2462  data */\n      dup2\n        /* \"@openzeppelin/contracts/proxy/ERC1967/ERC1967Utils.sol\":2458:2469  data.length */\n      mload\n        /* \"@openzeppelin/contracts/proxy/ERC1967/ERC1967Utils.sol\":2458:2473  data.length > 0 */\n      gt\n        /* \"@openzeppelin/contracts/proxy/ERC1967/ERC1967Utils.sol\":2454:2602  if (data.length > 0) {... */\n      iszero\n      tag_242\n      jumpi\n        /* \"@openzeppelin/contracts/proxy/ERC1967/ERC1967Utils.sol\":2489:2542  Address.functionDelegateCall(newImplementation, data) */\n      tag_243\n        /* \"@openzeppelin/contracts/proxy/ERC1967/ERC1967Utils.sol\":2518:2535  newImplementation */\n      dup3\n        /* \"@openzeppelin/contracts/proxy/ERC1967/ERC1967Utils.sol\":2537:2541  data */\n      dup3\n        /* \"@openzeppelin/contracts/proxy/ERC1967/ERC1967Utils.sol\":2489:2517  Address.functionDelegateCall */\n      tag_244\n        /* \"@openzeppelin/contracts/proxy/ERC1967/ERC1967Utils.sol\":2489:2542  Address.functionDelegateCall(newImplementation, data) */\n      jump\t// in\n    tag_243:\n      pop\n        /* \"@openzeppelin/contracts/proxy/ERC1967/ERC1967Utils.sol\":2454:2602  if (data.length > 0) {... */\n      jump(tag_245)\n    tag_242:\n        /* \"@openzeppelin/contracts/proxy/ERC1967/ERC1967Utils.sol\":2573:2591  _checkNonPayable() */\n      tag_246\n        /* \"@openzeppelin/contracts/proxy/ERC1967/ERC1967Utils.sol\":2573:2589  _checkNonPayable */\n      tag_247\n        /* \"@openzeppelin/contracts/proxy/ERC1967/ERC1967Utils.sol\":2573:2591  _checkNonPayable() */\n      jump\t// in\n    tag_246:\n        /* \"@openzeppelin/contracts/proxy/ERC1967/ERC1967Utils.sol\":2454:2602  if (data.length > 0) {... */\n    tag_245:\n        /* \"@openzeppelin/contracts/proxy/ERC1967/ERC1967Utils.sol\":2264:2608  function upgradeToAndCall(address newImplementation, bytes memory data) internal {... */\n      pop\n      pop\n      jump\t// out\n        /* \"@openzeppelin/contracts-upgradeable/proxy/utils/Initializable.sol\":7084:7225  function _checkInitializing() internal view virtual {... */\n    tag_217:\n        /* \"@openzeppelin/contracts-upgradeable/proxy/utils/Initializable.sol\":7151:7168  _isInitializing() */\n      tag_249\n        /* \"@openzeppelin/contracts-upgradeable/proxy/utils/Initializable.sol\":7151:7166  _isInitializing */\n      tag_250\n        /* \"@openzeppelin/contracts-upgradeable/proxy/utils/Initializable.sol\":7151:7168  _isInitializing() */\n      jump\t// in\n    tag_249:\n        /* \"@openzeppelin/contracts-upgradeable/proxy/utils/Initializable.sol\":7146:7219  if (!_isInitializing()) {... */\n      tag_251\n      jumpi\n        /* \"@openzeppelin/contracts-upgradeable/proxy/utils/Initializable.sol\":7191:7208  NotInitializing() */\n      mload(0x40)\n      0xd7e6bcf800000000000000000000000000000000000000000000000000000000\n      dup2\n      mstore\n      0x04\n      add\n      mload(0x40)\n      dup1\n      swap2\n      sub\n      swap1\n      revert\n        /* \"@openzeppelin/contracts-upgradeable/proxy/utils/Initializable.sol\":7146:7219  if (!_isInitializing()) {... */\n    tag_251:\n        /* \"@openzeppelin/contracts-upgradeable/proxy/utils/Initializable.sol\":7084:7225  function _checkInitializing() internal view virtual {... */\n      jump\t// out\n        /* \"@openzeppelin/contracts-upgradeable/access/OwnableUpgradeable.sol\":1980:2215  function __Ownable_init_unchained(address initialOwner) internal onlyInitializing {... */\n    tag_220:\n        /* \"@openzeppelin/contracts-upgradeable/proxy/utils/Initializable.sol\":6931:6951  _checkInitializing() */\n      tag_253\n        /* \"@openzeppelin/contracts-upgradeable/proxy/utils/Initializable.sol\":6931:6949  _checkInitializing */\n      tag_217\n        /* \"@openzeppelin/contracts-upgradeable/proxy/utils/Initializable.sol\":6931:6951  _checkInitializing() */\n      jump\t// in\n    tag_253:\n        /* \"@openzeppelin/contracts-upgradeable/access/OwnableUpgradeable.sol\":2100:2101  0 */\n      0x00\n        /* \"@openzeppelin/contracts-upgradeable/access/OwnableUpgradeable.sol\":2076:2102  initialOwner == address(0) */\n      0xffffffffffffffffffffffffffffffffffffffff\n      and\n        /* \"@openzeppelin/contracts-upgradeable/access/OwnableUpgradeable.sol\":2076:2088  initialOwner */\n      dup2\n        /* \"@openzeppelin/contracts-upgradeable/access/OwnableUpgradeable.sol\":2076:2102  initialOwner == address(0) */\n      0xffffffffffffffffffffffffffffffffffffffff\n      and\n      sub\n        /* \"@openzeppelin/contracts-upgradeable/access/OwnableUpgradeable.sol\":2072:2167  if (initialOwner == address(0)) {... */\n      tag_255\n      jumpi\n        /* \"@openzeppelin/contracts-upgradeable/access/OwnableUpgradeable.sol\":2153:2154  0 */\n      0x00\n        /* \"@openzeppelin/contracts-upgradeable/access/OwnableUpgradeable.sol\":2125:2156  OwnableInvalidOwner(address(0)) */\n      mload(0x40)\n      0x1e4fbdf700000000000000000000000000000000000000000000000000000000\n      dup2\n      mstore\n      0x04\n      add\n      tag_256\n      swap2\n      swap1\n      tag_66\n      jump\t// in\n    tag_256:\n      mload(0x40)\n      dup1\n      swap2\n      sub\n      swap1\n      revert\n        /* \"@openzeppelin/contracts-upgradeable/access/OwnableUpgradeable.sol\":2072:2167  if (initialOwner == address(0)) {... */\n    tag_255:\n        /* \"@openzeppelin/contracts-upgradeable/access/OwnableUpgradeable.sol\":2176:2208  _transferOwnership(initialOwner) */\n      tag_257\n        /* \"@openzeppelin/contracts-upgradeable/access/OwnableUpgradeable.sol\":2195:2207  initialOwner */\n      dup2\n        /* \"@openzeppelin/contracts-upgradeable/access/OwnableUpgradeable.sol\":2176:2194  _transferOwnership */\n      tag_130\n        /* \"@openzeppelin/contracts-upgradeable/access/OwnableUpgradeable.sol\":2176:2208  _transferOwnership(initialOwner) */\n      jump\t// in\n    tag_257:\n        /* \"@openzeppelin/contracts-upgradeable/access/OwnableUpgradeable.sol\":1980:2215  function __Ownable_init_unchained(address initialOwner) internal onlyInitializing {... */\n      pop\n      jump\t// out\n        /* \"@openzeppelin/contracts-upgradeable/security/ReentrancyGuardUpgradeable.sol\":2006:2115  function __ReentrancyGuard_init_unchained() internal onlyInitializing {... */\n    tag_231:\n        /* \"@openzeppelin/contracts-upgradeable/proxy/utils/Initializable.sol\":6931:6951  _checkInitializing() */\n      tag_259\n        /* \"@openzeppelin/contracts-upgradeable/proxy/utils/Initializable.sol\":6931:6949  _checkInitializing */\n      tag_217\n        /* \"@openzeppelin/contracts-upgradeable/proxy/utils/Initializable.sol\":6931:6951  _checkInitializing() */\n      jump\t// in\n    tag_259:\n        /* \"@openzeppelin/contracts-upgradeable/security/ReentrancyGuardUpgradeable.sol\":1808:1809  1 */\n      0x01\n        /* \"@openzeppelin/contracts-upgradeable/security/ReentrancyGuardUpgradeable.sol\":2086:2093  _status */\n      0x00\n        /* \"@openzeppelin/contracts-upgradeable/security/ReentrancyGuardUpgradeable.sol\":2086:2108  _status = _NOT_ENTERED */\n      dup2\n      swap1\n      sstore\n      pop\n        /* \"@openzeppelin/contracts-upgradeable/security/ReentrancyGuardUpgradeable.sol\":2006:2115  function __ReentrancyGuard_init_unchained() internal onlyInitializing {... */\n      jump\t// out\n        /* \"@openzeppelin/contracts-upgradeable/utils/ContextUpgradeable.sol\":887:983  function _msgSender() internal view virtual returns (address) {... */\n    tag_235:\n        /* \"@openzeppelin/contracts-upgradeable/utils/ContextUpgradeable.sol\":940:947  address */\n      0x00\n        /* \"@openzeppelin/contracts-upgradeable/utils/ContextUpgradeable.sol\":966:976  msg.sender */\n      caller\n        /* \"@openzeppelin/contracts-upgradeable/utils/ContextUpgradeable.sol\":959:976  return msg.sender */\n      swap1\n      pop\n        /* \"@openzeppelin/contracts-upgradeable/utils/ContextUpgradeable.sol\":887:983  function _msgSender() internal view virtual returns (address) {... */\n      swap1\n      jump\t// out\n        /* \"@openzeppelin/contracts/utils/StorageSlot.sol\":1899:2062  function getAddressSlot(bytes32 slot) internal pure returns (AddressSlot storage r) {... */\n    tag_238:\n        /* \"@openzeppelin/contracts/utils/StorageSlot.sol\":1960:1981  AddressSlot storage r */\n      0x00\n        /* \"@openzeppelin/contracts/utils/StorageSlot.sol\":2042:2046  slot */\n      dup2\n        /* \"@openzeppelin/contracts/utils/StorageSlot.sol\":2032:2046  r.slot := slot */\n      swap1\n      pop\n        /* \"@openzeppelin/contracts/utils/StorageSlot.sol\":1899:2062  function getAddressSlot(bytes32 slot) internal pure returns (AddressSlot storage r) {... */\n      swap2\n      swap1\n      pop\n      jump\t// out\n        /* \"@openzeppelin/contracts/proxy/ERC1967/ERC1967Utils.sol\":1671:1952  function _setImplementation(address newImplementation) private {... */\n    tag_241:\n        /* \"@openzeppelin/contracts/proxy/ERC1967/ERC1967Utils.sol\":1781:1782  0 */\n      0x00\n        /* \"@openzeppelin/contracts/proxy/ERC1967/ERC1967Utils.sol\":1748:1765  newImplementation */\n      dup2\n        /* \"@openzeppelin/contracts/proxy/ERC1967/ERC1967Utils.sol\":1748:1777  newImplementation.code.length */\n      0xffffffffffffffffffffffffffffffffffffffff\n      and\n      extcodesize\n        /* \"@openzeppelin/contracts/proxy/ERC1967/ERC1967Utils.sol\":1748:1782  newImplementation.code.length == 0 */\n      sub\n        /* \"@openzeppelin/contracts/proxy/ERC1967/ERC1967Utils.sol\":1744:1863  if (newImplementation.code.length == 0) {... */\n      tag_264\n      jumpi\n        /* \"@openzeppelin/contracts/proxy/ERC1967/ERC1967Utils.sol\":1834:1851  newImplementation */\n      dup1\n        /* \"@openzeppelin/contracts/proxy/ERC1967/ERC1967Utils.sol\":1805:1852  ERC1967InvalidImplementation(newImplementation) */\n      mload(0x40)\n      0x4c9c8ce300000000000000000000000000000000000000000000000000000000\n      dup2\n      mstore\n      0x04\n      add\n      tag_265\n      swap2\n      swap1\n      tag_66\n      jump\t// in\n    tag_265:\n      mload(0x40)\n      dup1\n      swap2\n      sub\n      swap1\n      revert\n        /* \"@openzeppelin/contracts/proxy/ERC1967/ERC1967Utils.sol\":1744:1863  if (newImplementation.code.length == 0) {... */\n    tag_264:\n        /* \"@openzeppelin/contracts/proxy/ERC1967/ERC1967Utils.sol\":1928:1945  newImplementation */\n      dup1\n        /* \"@openzeppelin/contracts/proxy/ERC1967/ERC1967Utils.sol\":1872:1919  StorageSlot.getAddressSlot(IMPLEMENTATION_SLOT) */\n      tag_266\n        /* \"@openzeppelin/contracts/proxy/ERC1967/ERC1967Utils.sol\":811:877  0x360894a13ba1a3210667c828492db98dca3e2076cc3735a920a3ca505d382bbc */\n      0x360894a13ba1a3210667c828492db98dca3e2076cc3735a920a3ca505d382bbc\n        /* \"@openzeppelin/contracts/proxy/ERC1967/ERC1967Utils.sol\":1899:1918  IMPLEMENTATION_SLOT */\n      0x00\n      shl\n        /* \"@openzeppelin/contracts/proxy/ERC1967/ERC1967Utils.sol\":1872:1898  StorageSlot.getAddressSlot */\n      tag_238\n        /* \"@openzeppelin/contracts/proxy/ERC1967/ERC1967Utils.sol\":1872:1919  StorageSlot.getAddressSlot(IMPLEMENTATION_SLOT) */\n      jump\t// in\n    tag_266:\n        /* \"@openzeppelin/contracts/proxy/ERC1967/ERC1967Utils.sol\":1872:1925  StorageSlot.getAddressSlot(IMPLEMENTATION_SLOT).value */\n      0x00\n      add\n      0x00\n        /* \"@openzeppelin/contracts/proxy/ERC1967/ERC1967Utils.sol\":1872:1945  StorageSlot.getAddressSlot(IMPLEMENTATION_SLOT).value = newImplementation */\n      0x0100\n      exp\n      dup2\n      sload\n      dup2\n      0xffffffffffffffffffffffffffffffffffffffff\n      mul\n      not\n      and\n      swap1\n      dup4\n      0xffffffffffffffffffffffffffffffffffffffff\n      and\n      mul\n      or\n      swap1\n      sstore\n      pop\n        /* \"@openzeppelin/contracts/proxy/ERC1967/ERC1967Utils.sol\":1671:1952  function _setImplementation(address newImplementation) private {... */\n      pop\n      jump\t// out\n        /* \"@openzeppelin/contracts/utils/Address.sol\":3916:4169  function functionDelegateCall(address target, bytes memory data) internal returns (bytes memory) {... */\n    tag_244:\n        /* \"@openzeppelin/contracts/utils/Address.sol\":3999:4011  bytes memory */\n      0x60\n        /* \"@openzeppelin/contracts/utils/Address.sol\":4024:4036  bool success */\n      0x00\n        /* \"@openzeppelin/contracts/utils/Address.sol\":4038:4061  bytes memory returndata */\n      dup1\n        /* \"@openzeppelin/contracts/utils/Address.sol\":4065:4071  target */\n      dup5\n        /* \"@openzeppelin/contracts/utils/Address.sol\":4065:4084  target.delegatecall */\n      0xffffffffffffffffffffffffffffffffffffffff\n      and\n        /* \"@openzeppelin/contracts/utils/Address.sol\":4085:4089  data */\n      dup5\n        /* \"@openzeppelin/contracts/utils/Address.sol\":4065:4090  target.delegatecall(data) */\n      mload(0x40)\n      tag_268\n      swap2\n      swap1\n      tag_269\n      jump\t// in\n    tag_268:\n      0x00\n      mload(0x40)\n      dup1\n      dup4\n      sub\n      dup2\n      dup6\n      gas\n      delegatecall\n      swap2\n      pop\n      pop\n      returndatasize\n      dup1\n      0x00\n      dup2\n      eq\n      tag_272\n      jumpi\n      mload(0x40)\n      swap2\n      pop\n      and(add(returndatasize, 0x3f), not(0x1f))\n      dup3\n      add\n      0x40\n      mstore\n      returndatasize\n      dup3\n      mstore\n      returndatasize\n      0x00\n      0x20\n      dup5\n      add\n      returndatacopy\n      jump(tag_271)\n    tag_272:\n      0x60\n      swap2\n      pop\n    tag_271:\n      pop\n        /* \"@openzeppelin/contracts/utils/Address.sol\":4023:4090  (bool success, bytes memory returndata) = target.delegatecall(data) */\n      swap2\n      pop\n      swap2\n      pop\n        /* \"@openzeppelin/contracts/utils/Address.sol\":4107:4162  verifyCallResultFromTarget(target, success, returndata) */\n      tag_273\n        /* \"@openzeppelin/contracts/utils/Address.sol\":4134:4140  target */\n      dup6\n        /* \"@openzeppelin/contracts/utils/Address.sol\":4142:4149  success */\n      dup4\n        /* \"@openzeppelin/contracts/utils/Address.sol\":4151:4161  returndata */\n      dup4\n        /* \"@openzeppelin/contracts/utils/Address.sol\":4107:4133  verifyCallResultFromTarget */\n      tag_274\n        /* \"@openzeppelin/contracts/utils/Address.sol\":4107:4162  verifyCallResultFromTarget(target, success, returndata) */\n      jump\t// in\n    tag_273:\n        /* \"@openzeppelin/contracts/utils/Address.sol\":4100:4162  return verifyCallResultFromTarget(target, success, returndata) */\n      swap3\n      pop\n      pop\n      pop\n        /* \"@openzeppelin/contracts/utils/Address.sol\":3916:4169  function functionDelegateCall(address target, bytes memory data) internal returns (bytes memory) {... */\n      swap3\n      swap2\n      pop\n      pop\n      jump\t// out\n        /* \"@openzeppelin/contracts/proxy/ERC1967/ERC1967Utils.sol\":6113:6235  function _checkNonPayable() private {... */\n    tag_247:\n        /* \"@openzeppelin/contracts/proxy/ERC1967/ERC1967Utils.sol\":6175:6176  0 */\n      0x00\n        /* \"@openzeppelin/contracts/proxy/ERC1967/ERC1967Utils.sol\":6163:6172  msg.value */\n      callvalue\n        /* \"@openzeppelin/contracts/proxy/ERC1967/ERC1967Utils.sol\":6163:6176  msg.value > 0 */\n      gt\n        /* \"@openzeppelin/contracts/proxy/ERC1967/ERC1967Utils.sol\":6159:6229  if (msg.value > 0) {... */\n      iszero\n      tag_276\n      jumpi\n        /* \"@openzeppelin/contracts/proxy/ERC1967/ERC1967Utils.sol\":6199:6218  ERC1967NonPayable() */\n      mload(0x40)\n      0xb398979f00000000000000000000000000000000000000000000000000000000\n      dup2\n      mstore\n      0x04\n      add\n      mload(0x40)\n      dup1\n      swap2\n      sub\n      swap1\n      revert\n        /* \"@openzeppelin/contracts/proxy/ERC1967/ERC1967Utils.sol\":6159:6229  if (msg.value > 0) {... */\n    tag_276:\n        /* \"@openzeppelin/contracts/proxy/ERC1967/ERC1967Utils.sol\":6113:6235  function _checkNonPayable() private {... */\n      jump\t// out\n        /* \"@openzeppelin/contracts-upgradeable/proxy/utils/Initializable.sol\":8487:8607  function _isInitializing() internal view returns (bool) {... */\n    tag_250:\n        /* \"@openzeppelin/contracts-upgradeable/proxy/utils/Initializable.sol\":8537:8541  bool */\n      0x00\n        /* \"@openzeppelin/contracts-upgradeable/proxy/utils/Initializable.sol\":8560:8586  _getInitializableStorage() */\n      tag_278\n        /* \"@openzeppelin/contracts-upgradeable/proxy/utils/Initializable.sol\":8560:8584  _getInitializableStorage */\n      tag_133\n        /* \"@openzeppelin/contracts-upgradeable/proxy/utils/Initializable.sol\":8560:8586  _getInitializableStorage() */\n      jump\t// in\n    tag_278:\n        /* \"@openzeppelin/contracts-upgradeable/proxy/utils/Initializable.sol\":8560:8600  _getInitializableStorage()._initializing */\n      0x00\n      add\n      0x08\n      swap1\n      sload\n      swap1\n      0x0100\n      exp\n      swap1\n      div\n      0xff\n      and\n        /* \"@openzeppelin/contracts-upgradeable/proxy/utils/Initializable.sol\":8553:8600  return _getInitializableStorage()._initializing */\n      swap1\n      pop\n        /* \"@openzeppelin/contracts-upgradeable/proxy/utils/Initializable.sol\":8487:8607  function _isInitializing() internal view returns (bool) {... */\n      swap1\n      jump\t// out\n        /* \"@openzeppelin/contracts/utils/Address.sol\":4437:5019  function verifyCallResultFromTarget(... */\n    tag_274:\n        /* \"@openzeppelin/contracts/utils/Address.sol\":4581:4593  bytes memory */\n      0x60\n        /* \"@openzeppelin/contracts/utils/Address.sol\":4610:4617  success */\n      dup3\n        /* \"@openzeppelin/contracts/utils/Address.sol\":4605:5013  if (!success) {... */\n      tag_280\n      jumpi\n        /* \"@openzeppelin/contracts/utils/Address.sol\":4633:4652  _revert(returndata) */\n      tag_281\n        /* \"@openzeppelin/contracts/utils/Address.sol\":4641:4651  returndata */\n      dup3\n        /* \"@openzeppelin/contracts/utils/Address.sol\":4633:4640  _revert */\n      tag_282\n        /* \"@openzeppelin/contracts/utils/Address.sol\":4633:4652  _revert(returndata) */\n      jump\t// in\n    tag_281:\n        /* \"@openzeppelin/contracts/utils/Address.sol\":4605:5013  if (!success) {... */\n      jump(tag_283)\n    tag_280:\n        /* \"@openzeppelin/contracts/utils/Address.sol\":4878:4879  0 */\n      0x00\n        /* \"@openzeppelin/contracts/utils/Address.sol\":4857:4867  returndata */\n      dup3\n        /* \"@openzeppelin/contracts/utils/Address.sol\":4857:4874  returndata.length */\n      mload\n        /* \"@openzeppelin/contracts/utils/Address.sol\":4857:4879  returndata.length == 0 */\n      eq\n        /* \"@openzeppelin/contracts/utils/Address.sol\":4857:4906  returndata.length == 0 && target.code.length == 0 */\n      dup1\n      iszero\n      tag_284\n      jumpi\n      pop\n        /* \"@openzeppelin/contracts/utils/Address.sol\":4905:4906  0 */\n      0x00\n        /* \"@openzeppelin/contracts/utils/Address.sol\":4883:4889  target */\n      dup5\n        /* \"@openzeppelin/contracts/utils/Address.sol\":4883:4901  target.code.length */\n      0xffffffffffffffffffffffffffffffffffffffff\n      and\n      extcodesize\n        /* \"@openzeppelin/contracts/utils/Address.sol\":4883:4906  target.code.length == 0 */\n      eq\n        /* \"@openzeppelin/contracts/utils/Address.sol\":4857:4906  returndata.length == 0 && target.code.length == 0 */\n    tag_284:\n        /* \"@openzeppelin/contracts/utils/Address.sol\":4853:4972  if (returndata.length == 0 && target.code.length == 0) {... */\n      iszero\n      tag_285\n      jumpi\n        /* \"@openzeppelin/contracts/utils/Address.sol\":4950:4956  target */\n      dup4\n        /* \"@openzeppelin/contracts/utils/Address.sol\":4933:4957  AddressEmptyCode(target) */\n      mload(0x40)\n      0x9996b31500000000000000000000000000000000000000000000000000000000\n      dup2\n      mstore\n      0x04\n      add\n      tag_286\n      swap2\n      swap1\n      tag_66\n      jump\t// in\n    tag_286:\n      mload(0x40)\n      dup1\n      swap2\n      sub\n      swap1\n      revert\n        /* \"@openzeppelin/contracts/utils/Address.sol\":4853:4972  if (returndata.length == 0 && target.code.length == 0) {... */\n    tag_285:\n        /* \"@openzeppelin/contracts/utils/Address.sol\":4992:5002  returndata */\n      dup2\n        /* \"@openzeppelin/contracts/utils/Address.sol\":4985:5002  return returndata */\n      swap1\n      pop\n      jump(tag_279)\n        /* \"@openzeppelin/contracts/utils/Address.sol\":4605:5013  if (!success) {... */\n    tag_283:\n        /* \"@openzeppelin/contracts/utils/Address.sol\":4437:5019  function verifyCallResultFromTarget(... */\n    tag_279:\n      swap4\n      swap3\n      pop\n      pop\n      pop\n      jump\t// out\n        /* \"@openzeppelin/contracts/utils/Address.sol\":5559:6046  function _revert(bytes memory returndata) private pure {... */\n    tag_282:\n        /* \"@openzeppelin/contracts/utils/Address.sol\":5710:5711  0 */\n      0x00\n        /* \"@openzeppelin/contracts/utils/Address.sol\":5690:5700  returndata */\n      dup2\n        /* \"@openzeppelin/contracts/utils/Address.sol\":5690:5707  returndata.length */\n      mload\n        /* \"@openzeppelin/contracts/utils/Address.sol\":5690:5711  returndata.length > 0 */\n      gt\n        /* \"@openzeppelin/contracts/utils/Address.sol\":5686:6040  if (returndata.length > 0) {... */\n      iszero\n      tag_288\n      jumpi\n        /* \"@openzeppelin/contracts/utils/Address.sol\":5887:5897  returndata */\n      dup1\n        /* \"@openzeppelin/contracts/utils/Address.sol\":5881:5898  mload(returndata) */\n      mload\n        /* \"@openzeppelin/contracts/utils/Address.sol\":5943:5958  returndata_size */\n      dup1\n        /* \"@openzeppelin/contracts/utils/Address.sol\":5930:5940  returndata */\n      dup3\n        /* \"@openzeppelin/contracts/utils/Address.sol\":5926:5928  32 */\n      0x20\n        /* \"@openzeppelin/contracts/utils/Address.sol\":5922:5941  add(32, returndata) */\n      add\n        /* \"@openzeppelin/contracts/utils/Address.sol\":5915:5959  revert(add(32, returndata), returndata_size) */\n      revert\n        /* \"@openzeppelin/contracts/utils/Address.sol\":5686:6040  if (returndata.length > 0) {... */\n    tag_288:\n        /* \"@openzeppelin/contracts/utils/Address.sol\":6010:6029  Errors.FailedCall() */\n      mload(0x40)\n      0xd6bda27500000000000000000000000000000000000000000000000000000000\n      dup2\n      mstore\n      0x04\n      add\n      mload(0x40)\n      dup1\n      swap2\n      sub\n      swap1\n      revert\n        /* \"#utility.yul\":7:82   */\n    tag_290:\n        /* \"#utility.yul\":40:46   */\n      0x00\n        /* \"#utility.yul\":73:75   */\n      0x40\n        /* \"#utility.yul\":67:76   */\n      mload\n        /* \"#utility.yul\":57:76   */\n      swap1\n      pop\n        /* \"#utility.yul\":7:82   */\n      swap1\n      jump\t// out\n        /* \"#utility.yul\":88:205   */\n    tag_291:\n        /* \"#utility.yul\":197:198   */\n      0x00\n        /* \"#utility.yul\":194:195   */\n      dup1\n        /* \"#utility.yul\":187:199   */\n      revert\n        /* \"#utility.yul\":211:328   */\n    tag_292:\n        /* \"#utility.yul\":320:321   */\n      0x00\n        /* \"#utility.yul\":317:318   */\n      dup1\n        /* \"#utility.yul\":310:322   */\n      revert\n        /* \"#utility.yul\":334:460   */\n    tag_293:\n        /* \"#utility.yul\":371:378   */\n      0x00\n        /* \"#utility.yul\":411:453   */\n      0xffffffffffffffffffffffffffffffffffffffff\n        /* \"#utility.yul\":404:409   */\n      dup3\n        /* \"#utility.yul\":400:454   */\n      and\n        /* \"#utility.yul\":389:454   */\n      swap1\n      pop\n        /* \"#utility.yul\":334:460   */\n      swap2\n      swap1\n      pop\n      jump\t// out\n        /* \"#utility.yul\":466:562   */\n    tag_294:\n        /* \"#utility.yul\":503:510   */\n      0x00\n        /* \"#utility.yul\":532:556   */\n      tag_371\n        /* \"#utility.yul\":550:555   */\n      dup3\n        /* \"#utility.yul\":532:556   */\n      tag_293\n      jump\t// in\n    tag_371:\n        /* \"#utility.yul\":521:556   */\n      swap1\n      pop\n        /* \"#utility.yul\":466:562   */\n      swap2\n      swap1\n      pop\n      jump\t// out\n        /* \"#utility.yul\":568:690   */\n    tag_295:\n        /* \"#utility.yul\":641:665   */\n      tag_373\n        /* \"#utility.yul\":659:664   */\n      dup2\n        /* \"#utility.yul\":641:665   */\n      tag_294\n      jump\t// in\n    tag_373:\n        /* \"#utility.yul\":634:639   */\n      dup2\n        /* \"#utility.yul\":631:666   */\n      eq\n        /* \"#utility.yul\":621:684   */\n      tag_374\n      jumpi\n        /* \"#utility.yul\":680:681   */\n      0x00\n        /* \"#utility.yul\":677:678   */\n      dup1\n        /* \"#utility.yul\":670:682   */\n      revert\n        /* \"#utility.yul\":621:684   */\n    tag_374:\n        /* \"#utility.yul\":568:690   */\n      pop\n      jump\t// out\n        /* \"#utility.yul\":696:835   */\n    tag_296:\n        /* \"#utility.yul\":742:747   */\n      0x00\n        /* \"#utility.yul\":780:786   */\n      dup2\n        /* \"#utility.yul\":767:787   */\n      calldataload\n        /* \"#utility.yul\":758:787   */\n      swap1\n      pop\n        /* \"#utility.yul\":796:829   */\n      tag_376\n        /* \"#utility.yul\":823:828   */\n      dup2\n        /* \"#utility.yul\":796:829   */\n      tag_295\n      jump\t// in\n    tag_376:\n        /* \"#utility.yul\":696:835   */\n      swap3\n      swap2\n      pop\n      pop\n      jump\t// out\n        /* \"#utility.yul\":841:1170   */\n    tag_22:\n        /* \"#utility.yul\":900:906   */\n      0x00\n        /* \"#utility.yul\":949:951   */\n      0x20\n        /* \"#utility.yul\":937:946   */\n      dup3\n        /* \"#utility.yul\":928:935   */\n      dup5\n        /* \"#utility.yul\":924:947   */\n      sub\n        /* \"#utility.yul\":920:952   */\n      slt\n        /* \"#utility.yul\":917:1036   */\n      iszero\n      tag_378\n      jumpi\n        /* \"#utility.yul\":955:1034   */\n      tag_379\n      tag_291\n      jump\t// in\n    tag_379:\n        /* \"#utility.yul\":917:1036   */\n    tag_378:\n        /* \"#utility.yul\":1075:1076   */\n      0x00\n        /* \"#utility.yul\":1100:1153   */\n      tag_380\n        /* \"#utility.yul\":1145:1152   */\n      dup5\n        /* \"#utility.yul\":1136:1142   */\n      dup3\n        /* \"#utility.yul\":1125:1134   */\n      dup6\n        /* \"#utility.yul\":1121:1143   */\n      add\n        /* \"#utility.yul\":1100:1153   */\n      tag_296\n      jump\t// in\n    tag_380:\n        /* \"#utility.yul\":1090:1153   */\n      swap2\n      pop\n        /* \"#utility.yul\":1046:1163   */\n      pop\n        /* \"#utility.yul\":841:1170   */\n      swap3\n      swap2\n      pop\n      pop\n      jump\t// out\n        /* \"#utility.yul\":1176:1266   */\n    tag_297:\n        /* \"#utility.yul\":1210:1217   */\n      0x00\n        /* \"#utility.yul\":1253:1258   */\n      dup2\n        /* \"#utility.yul\":1246:1259   */\n      iszero\n        /* \"#utility.yul\":1239:1260   */\n      iszero\n        /* \"#utility.yul\":1228:1260   */\n      swap1\n      pop\n        /* \"#utility.yul\":1176:1266   */\n      swap2\n      swap1\n      pop\n      jump\t// out\n        /* \"#utility.yul\":1272:1381   */\n    tag_298:\n        /* \"#utility.yul\":1353:1374   */\n      tag_383\n        /* \"#utility.yul\":1368:1373   */\n      dup2\n        /* \"#utility.yul\":1353:1374   */\n      tag_297\n      jump\t// in\n    tag_383:\n        /* \"#utility.yul\":1348:1351   */\n      dup3\n        /* \"#utility.yul\":1341:1375   */\n      mstore\n        /* \"#utility.yul\":1272:1381   */\n      pop\n      pop\n      jump\t// out\n        /* \"#utility.yul\":1387:1597   */\n    tag_25:\n        /* \"#utility.yul\":1474:1478   */\n      0x00\n        /* \"#utility.yul\":1512:1514   */\n      0x20\n        /* \"#utility.yul\":1501:1510   */\n      dup3\n        /* \"#utility.yul\":1497:1515   */\n      add\n        /* \"#utility.yul\":1489:1515   */\n      swap1\n      pop\n        /* \"#utility.yul\":1525:1590   */\n      tag_385\n        /* \"#utility.yul\":1587:1588   */\n      0x00\n        /* \"#utility.yul\":1576:1585   */\n      dup4\n        /* \"#utility.yul\":1572:1589   */\n      add\n        /* \"#utility.yul\":1563:1569   */\n      dup5\n        /* \"#utility.yul\":1525:1590   */\n      tag_298\n      jump\t// in\n    tag_385:\n        /* \"#utility.yul\":1387:1597   */\n      swap3\n      swap2\n      pop\n      pop\n      jump\t// out\n        /* \"#utility.yul\":1603:1680   */\n    tag_299:\n        /* \"#utility.yul\":1640:1647   */\n      0x00\n        /* \"#utility.yul\":1669:1674   */\n      dup2\n        /* \"#utility.yul\":1658:1674   */\n      swap1\n      pop\n        /* \"#utility.yul\":1603:1680   */\n      swap2\n      swap1\n      pop\n      jump\t// out\n        /* \"#utility.yul\":1686:1804   */\n    tag_300:\n        /* \"#utility.yul\":1773:1797   */\n      tag_388\n        /* \"#utility.yul\":1791:1796   */\n      dup2\n        /* \"#utility.yul\":1773:1797   */\n      tag_299\n      jump\t// in\n    tag_388:\n        /* \"#utility.yul\":1768:1771   */\n      dup3\n        /* \"#utility.yul\":1761:1798   */\n      mstore\n        /* \"#utility.yul\":1686:1804   */\n      pop\n      pop\n      jump\t// out\n        /* \"#utility.yul\":1810:2032   */\n    tag_34:\n        /* \"#utility.yul\":1903:1907   */\n      0x00\n        /* \"#utility.yul\":1941:1943   */\n      0x20\n        /* \"#utility.yul\":1930:1939   */\n      dup3\n        /* \"#utility.yul\":1926:1944   */\n      add\n        /* \"#utility.yul\":1918:1944   */\n      swap1\n      pop\n        /* \"#utility.yul\":1954:2025   */\n      tag_390\n        /* \"#utility.yul\":2022:2023   */\n      0x00\n        /* \"#utility.yul\":2011:2020   */\n      dup4\n        /* \"#utility.yul\":2007:2024   */\n      add\n        /* \"#utility.yul\":1998:2004   */\n      dup5\n        /* \"#utility.yul\":1954:2025   */\n      tag_300\n      jump\t// in\n    tag_390:\n        /* \"#utility.yul\":1810:2032   */\n      swap3\n      swap2\n      pop\n      pop\n      jump\t// out\n        /* \"#utility.yul\":2038:2155   */\n    tag_301:\n        /* \"#utility.yul\":2147:2148   */\n      0x00\n        /* \"#utility.yul\":2144:2145   */\n      dup1\n        /* \"#utility.yul\":2137:2149   */\n      revert\n        /* \"#utility.yul\":2161:2278   */\n    tag_302:\n        /* \"#utility.yul\":2270:2271   */\n      0x00\n        /* \"#utility.yul\":2267:2268   */\n      dup1\n        /* \"#utility.yul\":2260:2272   */\n      revert\n        /* \"#utility.yul\":2284:2386   */\n    tag_303:\n        /* \"#utility.yul\":2325:2331   */\n      0x00\n        /* \"#utility.yul\":2376:2378   */\n      0x1f\n        /* \"#utility.yul\":2372:2379   */\n      not\n        /* \"#utility.yul\":2367:2369   */\n      0x1f\n        /* \"#utility.yul\":2360:2365   */\n      dup4\n        /* \"#utility.yul\":2356:2370   */\n      add\n        /* \"#utility.yul\":2352:2380   */\n      and\n        /* \"#utility.yul\":2342:2380   */\n      swap1\n      pop\n        /* \"#utility.yul\":2284:2386   */\n      swap2\n      swap1\n      pop\n      jump\t// out\n        /* \"#utility.yul\":2392:2572   */\n    tag_304:\n        /* \"#utility.yul\":2440:2517   */\n      0x4e487b7100000000000000000000000000000000000000000000000000000000\n        /* \"#utility.yul\":2437:2438   */\n      0x00\n        /* \"#utility.yul\":2430:2518   */\n      mstore\n        /* \"#utility.yul\":2537:2541   */\n      0x41\n        /* \"#utility.yul\":2534:2535   */\n      0x04\n        /* \"#utility.yul\":2527:2542   */\n      mstore\n        /* \"#utility.yul\":2561:2565   */\n      0x24\n        /* \"#utility.yul\":2558:2559   */\n      0x00\n        /* \"#utility.yul\":2551:2566   */\n      revert\n        /* \"#utility.yul\":2578:2859   */\n    tag_305:\n        /* \"#utility.yul\":2661:2688   */\n      tag_396\n        /* \"#utility.yul\":2683:2687   */\n      dup3\n        /* \"#utility.yul\":2661:2688   */\n      tag_303\n      jump\t// in\n    tag_396:\n        /* \"#utility.yul\":2653:2659   */\n      dup2\n        /* \"#utility.yul\":2649:2689   */\n      add\n        /* \"#utility.yul\":2791:2797   */\n      dup2\n        /* \"#utility.yul\":2779:2789   */\n      dup2\n        /* \"#utility.yul\":2776:2798   */\n      lt\n        /* \"#utility.yul\":2755:2773   */\n      0xffffffffffffffff\n        /* \"#utility.yul\":2743:2753   */\n      dup3\n        /* \"#utility.yul\":2740:2774   */\n      gt\n        /* \"#utility.yul\":2737:2799   */\n      or\n        /* \"#utility.yul\":2734:2822   */\n      iszero\n      tag_397\n      jumpi\n        /* \"#utility.yul\":2802:2820   */\n      tag_398\n      tag_304\n      jump\t// in\n    tag_398:\n        /* \"#utility.yul\":2734:2822   */\n    tag_397:\n        /* \"#utility.yul\":2842:2852   */\n      dup1\n        /* \"#utility.yul\":2838:2840   */\n      0x40\n        /* \"#utility.yul\":2831:2853   */\n      mstore\n        /* \"#utility.yul\":2621:2859   */\n      pop\n        /* \"#utility.yul\":2578:2859   */\n      pop\n      pop\n      jump\t// out\n        /* \"#utility.yul\":2865:2994   */\n    tag_306:\n        /* \"#utility.yul\":2899:2905   */\n      0x00\n        /* \"#utility.yul\":2926:2946   */\n      tag_400\n      tag_290\n      jump\t// in\n    tag_400:\n        /* \"#utility.yul\":2916:2946   */\n      swap1\n      pop\n        /* \"#utility.yul\":2955:2988   */\n      tag_401\n        /* \"#utility.yul\":2983:2987   */\n      dup3\n        /* \"#utility.yul\":2975:2981   */\n      dup3\n        /* \"#utility.yul\":2955:2988   */\n      tag_305\n      jump\t// in\n    tag_401:\n        /* \"#utility.yul\":2865:2994   */\n      swap2\n      swap1\n      pop\n      jump\t// out\n        /* \"#utility.yul\":3000:3307   */\n    tag_307:\n        /* \"#utility.yul\":3061:3065   */\n      0x00\n        /* \"#utility.yul\":3151:3169   */\n      0xffffffffffffffff\n        /* \"#utility.yul\":3143:3149   */\n      dup3\n        /* \"#utility.yul\":3140:3170   */\n      gt\n        /* \"#utility.yul\":3137:3193   */\n      iszero\n      tag_403\n      jumpi\n        /* \"#utility.yul\":3173:3191   */\n      tag_404\n      tag_304\n      jump\t// in\n    tag_404:\n        /* \"#utility.yul\":3137:3193   */\n    tag_403:\n        /* \"#utility.yul\":3211:3240   */\n      tag_405\n        /* \"#utility.yul\":3233:3239   */\n      dup3\n        /* \"#utility.yul\":3211:3240   */\n      tag_303\n      jump\t// in\n    tag_405:\n        /* \"#utility.yul\":3203:3240   */\n      swap1\n      pop\n        /* \"#utility.yul\":3295:3299   */\n      0x20\n        /* \"#utility.yul\":3289:3293   */\n      dup2\n        /* \"#utility.yul\":3285:3300   */\n      add\n        /* \"#utility.yul\":3277:3300   */\n      swap1\n      pop\n        /* \"#utility.yul\":3000:3307   */\n      swap2\n      swap1\n      pop\n      jump\t// out\n        /* \"#utility.yul\":3313:3461   */\n    tag_308:\n        /* \"#utility.yul\":3411:3417   */\n      dup3\n        /* \"#utility.yul\":3406:3409   */\n      dup2\n        /* \"#utility.yul\":3401:3404   */\n      dup4\n        /* \"#utility.yul\":3388:3418   */\n      calldatacopy\n        /* \"#utility.yul\":3452:3453   */\n      0x00\n        /* \"#utility.yul\":3443:3449   */\n      dup4\n        /* \"#utility.yul\":3438:3441   */\n      dup4\n        /* \"#utility.yul\":3434:3450   */\n      add\n        /* \"#utility.yul\":3427:3454   */\n      mstore\n        /* \"#utility.yul\":3313:3461   */\n      pop\n      pop\n      pop\n      jump\t// out\n        /* \"#utility.yul\":3467:3890   */\n    tag_309:\n        /* \"#utility.yul\":3544:3549   */\n      0x00\n        /* \"#utility.yul\":3569:3634   */\n      tag_408\n        /* \"#utility.yul\":3585:3633   */\n      tag_409\n        /* \"#utility.yul\":3626:3632   */\n      dup5\n        /* \"#utility.yul\":3585:3633   */\n      tag_307\n      jump\t// in\n    tag_409:\n        /* \"#utility.yul\":3569:3634   */\n      tag_306\n      jump\t// in\n    tag_408:\n        /* \"#utility.yul\":3560:3634   */\n      swap1\n      pop\n        /* \"#utility.yul\":3657:3663   */\n      dup3\n        /* \"#utility.yul\":3650:3655   */\n      dup2\n        /* \"#utility.yul\":3643:3664   */\n      mstore\n        /* \"#utility.yul\":3695:3699   */\n      0x20\n        /* \"#utility.yul\":3688:3693   */\n      dup2\n        /* \"#utility.yul\":3684:3700   */\n      add\n        /* \"#utility.yul\":3733:3736   */\n      dup5\n        /* \"#utility.yul\":3724:3730   */\n      dup5\n        /* \"#utility.yul\":3719:3722   */\n      dup5\n        /* \"#utility.yul\":3715:3731   */\n      add\n        /* \"#utility.yul\":3712:3737   */\n      gt\n        /* \"#utility.yul\":3709:3821   */\n      iszero\n      tag_410\n      jumpi\n        /* \"#utility.yul\":3740:3819   */\n      tag_411\n      tag_302\n      jump\t// in\n    tag_411:\n        /* \"#utility.yul\":3709:3821   */\n    tag_410:\n        /* \"#utility.yul\":3830:3884   */\n      tag_412\n        /* \"#utility.yul\":3877:3883   */\n      dup5\n        /* \"#utility.yul\":3872:3875   */\n      dup3\n        /* \"#utility.yul\":3867:3870   */\n      dup6\n        /* \"#utility.yul\":3830:3884   */\n      tag_308\n      jump\t// in\n    tag_412:\n        /* \"#utility.yul\":3550:3890   */\n      pop\n        /* \"#utility.yul\":3467:3890   */\n      swap4\n      swap3\n      pop\n      pop\n      pop\n      jump\t// out\n        /* \"#utility.yul\":3909:4247   */\n    tag_310:\n        /* \"#utility.yul\":3964:3969   */\n      0x00\n        /* \"#utility.yul\":4013:4016   */\n      dup3\n        /* \"#utility.yul\":4006:4010   */\n      0x1f\n        /* \"#utility.yul\":3998:4004   */\n      dup4\n        /* \"#utility.yul\":3994:4011   */\n      add\n        /* \"#utility.yul\":3990:4017   */\n      slt\n        /* \"#utility.yul\":3980:4102   */\n      tag_414\n      jumpi\n        /* \"#utility.yul\":4021:4100   */\n      tag_415\n      tag_301\n      jump\t// in\n    tag_415:\n        /* \"#utility.yul\":3980:4102   */\n    tag_414:\n        /* \"#utility.yul\":4138:4144   */\n      dup2\n        /* \"#utility.yul\":4125:4145   */\n      calldataload\n        /* \"#utility.yul\":4163:4241   */\n      tag_416\n        /* \"#utility.yul\":4237:4240   */\n      dup5\n        /* \"#utility.yul\":4229:4235   */\n      dup3\n        /* \"#utility.yul\":4222:4226   */\n      0x20\n        /* \"#utility.yul\":4214:4220   */\n      dup7\n        /* \"#utility.yul\":4210:4227   */\n      add\n        /* \"#utility.yul\":4163:4241   */\n      tag_309\n      jump\t// in\n    tag_416:\n        /* \"#utility.yul\":4154:4241   */\n      swap2\n      pop\n        /* \"#utility.yul\":3970:4247   */\n      pop\n        /* \"#utility.yul\":3909:4247   */\n      swap3\n      swap2\n      pop\n      pop\n      jump\t// out\n        /* \"#utility.yul\":4253:4905   */\n    tag_37:\n        /* \"#utility.yul\":4330:4336   */\n      0x00\n        /* \"#utility.yul\":4338:4344   */\n      dup1\n        /* \"#utility.yul\":4387:4389   */\n      0x40\n        /* \"#utility.yul\":4375:4384   */\n      dup4\n        /* \"#utility.yul\":4366:4373   */\n      dup6\n        /* \"#utility.yul\":4362:4385   */\n      sub\n        /* \"#utility.yul\":4358:4390   */\n      slt\n        /* \"#utility.yul\":4355:4474   */\n      iszero\n      tag_418\n      jumpi\n        /* \"#utility.yul\":4393:4472   */\n      tag_419\n      tag_291\n      jump\t// in\n    tag_419:\n        /* \"#utility.yul\":4355:4474   */\n    tag_418:\n        /* \"#utility.yul\":4513:4514   */\n      0x00\n        /* \"#utility.yul\":4538:4591   */\n      tag_420\n        /* \"#utility.yul\":4583:4590   */\n      dup6\n        /* \"#utility.yul\":4574:4580   */\n      dup3\n        /* \"#utility.yul\":4563:4572   */\n      dup7\n        /* \"#utility.yul\":4559:4581   */\n      add\n        /* \"#utility.yul\":4538:4591   */\n      tag_296\n      jump\t// in\n    tag_420:\n        /* \"#utility.yul\":4528:4591   */\n      swap3\n      pop\n        /* \"#utility.yul\":4484:4601   */\n      pop\n        /* \"#utility.yul\":4668:4670   */\n      0x20\n        /* \"#utility.yul\":4657:4666   */\n      dup4\n        /* \"#utility.yul\":4653:4671   */\n      add\n        /* \"#utility.yul\":4640:4672   */\n      calldataload\n        /* \"#utility.yul\":4699:4717   */\n      0xffffffffffffffff\n        /* \"#utility.yul\":4691:4697   */\n      dup2\n        /* \"#utility.yul\":4688:4718   */\n      gt\n        /* \"#utility.yul\":4685:4802   */\n      iszero\n      tag_421\n      jumpi\n        /* \"#utility.yul\":4721:4800   */\n      tag_422\n      tag_292\n      jump\t// in\n    tag_422:\n        /* \"#utility.yul\":4685:4802   */\n    tag_421:\n        /* \"#utility.yul\":4826:4888   */\n      tag_423\n        /* \"#utility.yul\":4880:4887   */\n      dup6\n        /* \"#utility.yul\":4871:4877   */\n      dup3\n        /* \"#utility.yul\":4860:4869   */\n      dup7\n        /* \"#utility.yul\":4856:4878   */\n      add\n        /* \"#utility.yul\":4826:4888   */\n      tag_310\n      jump\t// in\n    tag_423:\n        /* \"#utility.yul\":4816:4888   */\n      swap2\n      pop\n        /* \"#utility.yul\":4611:4898   */\n      pop\n        /* \"#utility.yul\":4253:4905   */\n      swap3\n      pop\n      swap3\n      swap1\n      pop\n      jump\t// out\n        /* \"#utility.yul\":4911:4988   */\n    tag_311:\n        /* \"#utility.yul\":4948:4955   */\n      0x00\n        /* \"#utility.yul\":4977:4982   */\n      dup2\n        /* \"#utility.yul\":4966:4982   */\n      swap1\n      pop\n        /* \"#utility.yul\":4911:4988   */\n      swap2\n      swap1\n      pop\n      jump\t// out\n        /* \"#utility.yul\":4994:5112   */\n    tag_312:\n        /* \"#utility.yul\":5081:5105   */\n      tag_426\n        /* \"#utility.yul\":5099:5104   */\n      dup2\n        /* \"#utility.yul\":5081:5105   */\n      tag_311\n      jump\t// in\n    tag_426:\n        /* \"#utility.yul\":5076:5079   */\n      dup3\n        /* \"#utility.yul\":5069:5106   */\n      mstore\n        /* \"#utility.yul\":4994:5112   */\n      pop\n      pop\n      jump\t// out\n        /* \"#utility.yul\":5118:5340   */\n    tag_43:\n        /* \"#utility.yul\":5211:5215   */\n      0x00\n        /* \"#utility.yul\":5249:5251   */\n      0x20\n        /* \"#utility.yul\":5238:5247   */\n      dup3\n        /* \"#utility.yul\":5234:5252   */\n      add\n        /* \"#utility.yul\":5226:5252   */\n      swap1\n      pop\n        /* \"#utility.yul\":5262:5333   */\n      tag_428\n        /* \"#utility.yul\":5330:5331   */\n      0x00\n        /* \"#utility.yul\":5319:5328   */\n      dup4\n        /* \"#utility.yul\":5315:5332   */\n      add\n        /* \"#utility.yul\":5306:5312   */\n      dup5\n        /* \"#utility.yul\":5262:5333   */\n      tag_312\n      jump\t// in\n    tag_428:\n        /* \"#utility.yul\":5118:5340   */\n      swap3\n      swap2\n      pop\n      pop\n      jump\t// out\n        /* \"#utility.yul\":5346:5463   */\n    tag_313:\n        /* \"#utility.yul\":5455:5456   */\n      0x00\n        /* \"#utility.yul\":5452:5453   */\n      dup1\n        /* \"#utility.yul\":5445:5457   */\n      revert\n        /* \"#utility.yul\":5469:5586   */\n    tag_314:\n        /* \"#utility.yul\":5578:5579   */\n      0x00\n        /* \"#utility.yul\":5575:5576   */\n      dup1\n        /* \"#utility.yul\":5568:5580   */\n      revert\n        /* \"#utility.yul\":5606:6159   */\n    tag_315:\n        /* \"#utility.yul\":5664:5672   */\n      0x00\n        /* \"#utility.yul\":5674:5680   */\n      dup1\n        /* \"#utility.yul\":5724:5727   */\n      dup4\n        /* \"#utility.yul\":5717:5721   */\n      0x1f\n        /* \"#utility.yul\":5709:5715   */\n      dup5\n        /* \"#utility.yul\":5705:5722   */\n      add\n        /* \"#utility.yul\":5701:5728   */\n      slt\n        /* \"#utility.yul\":5691:5813   */\n      tag_432\n      jumpi\n        /* \"#utility.yul\":5732:5811   */\n      tag_433\n      tag_301\n      jump\t// in\n    tag_433:\n        /* \"#utility.yul\":5691:5813   */\n    tag_432:\n        /* \"#utility.yul\":5845:5851   */\n      dup3\n        /* \"#utility.yul\":5832:5852   */\n      calldataload\n        /* \"#utility.yul\":5822:5852   */\n      swap1\n      pop\n        /* \"#utility.yul\":5875:5893   */\n      0xffffffffffffffff\n        /* \"#utility.yul\":5867:5873   */\n      dup2\n        /* \"#utility.yul\":5864:5894   */\n      gt\n        /* \"#utility.yul\":5861:5978   */\n      iszero\n      tag_434\n      jumpi\n        /* \"#utility.yul\":5897:5976   */\n      tag_435\n      tag_313\n      jump\t// in\n    tag_435:\n        /* \"#utility.yul\":5861:5978   */\n    tag_434:\n        /* \"#utility.yul\":6011:6015   */\n      0x20\n        /* \"#utility.yul\":6003:6009   */\n      dup4\n        /* \"#utility.yul\":5999:6016   */\n      add\n        /* \"#utility.yul\":5987:6016   */\n      swap2\n      pop\n        /* \"#utility.yul\":6065:6068   */\n      dup4\n        /* \"#utility.yul\":6057:6061   */\n      0x01\n        /* \"#utility.yul\":6049:6055   */\n      dup3\n        /* \"#utility.yul\":6045:6062   */\n      mul\n        /* \"#utility.yul\":6035:6043   */\n      dup4\n        /* \"#utility.yul\":6031:6063   */\n      add\n        /* \"#utility.yul\":6028:6069   */\n      gt\n        /* \"#utility.yul\":6025:6153   */\n      iszero\n      tag_436\n      jumpi\n        /* \"#utility.yul\":6072:6151   */\n      tag_437\n      tag_314\n      jump\t// in\n    tag_437:\n        /* \"#utility.yul\":6025:6153   */\n    tag_436:\n        /* \"#utility.yul\":5606:6159   */\n      swap3\n      pop\n      swap3\n      swap1\n      pop\n      jump\t// out\n        /* \"#utility.yul\":6165:6839   */\n    tag_47:\n        /* \"#utility.yul\":6245:6251   */\n      0x00\n        /* \"#utility.yul\":6253:6259   */\n      dup1\n        /* \"#utility.yul\":6261:6267   */\n      0x00\n        /* \"#utility.yul\":6310:6312   */\n      0x40\n        /* \"#utility.yul\":6298:6307   */\n      dup5\n        /* \"#utility.yul\":6289:6296   */\n      dup7\n        /* \"#utility.yul\":6285:6308   */\n      sub\n        /* \"#utility.yul\":6281:6313   */\n      slt\n        /* \"#utility.yul\":6278:6397   */\n      iszero\n      tag_439\n      jumpi\n        /* \"#utility.yul\":6316:6395   */\n      tag_440\n      tag_291\n      jump\t// in\n    tag_440:\n        /* \"#utility.yul\":6278:6397   */\n    tag_439:\n        /* \"#utility.yul\":6436:6437   */\n      0x00\n        /* \"#utility.yul\":6461:6514   */\n      tag_441\n        /* \"#utility.yul\":6506:6513   */\n      dup7\n        /* \"#utility.yul\":6497:6503   */\n      dup3\n        /* \"#utility.yul\":6486:6495   */\n      dup8\n        /* \"#utility.yul\":6482:6504   */\n      add\n        /* \"#utility.yul\":6461:6514   */\n      tag_296\n      jump\t// in\n    tag_441:\n        /* \"#utility.yul\":6451:6514   */\n      swap4\n      pop\n        /* \"#utility.yul\":6407:6524   */\n      pop\n        /* \"#utility.yul\":6591:6593   */\n      0x20\n        /* \"#utility.yul\":6580:6589   */\n      dup5\n        /* \"#utility.yul\":6576:6594   */\n      add\n        /* \"#utility.yul\":6563:6595   */\n      calldataload\n        /* \"#utility.yul\":6622:6640   */\n      0xffffffffffffffff\n        /* \"#utility.yul\":6614:6620   */\n      dup2\n        /* \"#utility.yul\":6611:6641   */\n      gt\n        /* \"#utility.yul\":6608:6725   */\n      iszero\n      tag_442\n      jumpi\n        /* \"#utility.yul\":6644:6723   */\n      tag_443\n      tag_292\n      jump\t// in\n    tag_443:\n        /* \"#utility.yul\":6608:6725   */\n    tag_442:\n        /* \"#utility.yul\":6757:6822   */\n      tag_444\n        /* \"#utility.yul\":6814:6821   */\n      dup7\n        /* \"#utility.yul\":6805:6811   */\n      dup3\n        /* \"#utility.yul\":6794:6803   */\n      dup8\n        /* \"#utility.yul\":6790:6812   */\n      add\n        /* \"#utility.yul\":6757:6822   */\n      tag_315\n      jump\t// in\n    tag_444:\n        /* \"#utility.yul\":6739:6822   */\n      swap3\n      pop\n      swap3\n      pop\n        /* \"#utility.yul\":6534:6832   */\n      pop\n        /* \"#utility.yul\":6165:6839   */\n      swap3\n      pop\n      swap3\n      pop\n      swap3\n      jump\t// out\n        /* \"#utility.yul\":6845:6967   */\n    tag_316:\n        /* \"#utility.yul\":6918:6942   */\n      tag_446\n        /* \"#utility.yul\":6936:6941   */\n      dup2\n        /* \"#utility.yul\":6918:6942   */\n      tag_299\n      jump\t// in\n    tag_446:\n        /* \"#utility.yul\":6911:6916   */\n      dup2\n        /* \"#utility.yul\":6908:6943   */\n      eq\n        /* \"#utility.yul\":6898:6961   */\n      tag_447\n      jumpi\n        /* \"#utility.yul\":6957:6958   */\n      0x00\n        /* \"#utility.yul\":6954:6955   */\n      dup1\n        /* \"#utility.yul\":6947:6959   */\n      revert\n        /* \"#utility.yul\":6898:6961   */\n    tag_447:\n        /* \"#utility.yul\":6845:6967   */\n      pop\n      jump\t// out\n        /* \"#utility.yul\":6973:7112   */\n    tag_317:\n        /* \"#utility.yul\":7019:7024   */\n      0x00\n        /* \"#utility.yul\":7057:7063   */\n      dup2\n        /* \"#utility.yul\":7044:7064   */\n      calldataload\n        /* \"#utility.yul\":7035:7064   */\n      swap1\n      pop\n        /* \"#utility.yul\":7073:7106   */\n      tag_449\n        /* \"#utility.yul\":7100:7105   */\n      dup2\n        /* \"#utility.yul\":7073:7106   */\n      tag_316\n      jump\t// in\n    tag_449:\n        /* \"#utility.yul\":6973:7112   */\n      swap3\n      swap2\n      pop\n      pop\n      jump\t// out\n        /* \"#utility.yul\":7118:7447   */\n    tag_58:\n        /* \"#utility.yul\":7177:7183   */\n      0x00\n        /* \"#utility.yul\":7226:7228   */\n      0x20\n        /* \"#utility.yul\":7214:7223   */\n      dup3\n        /* \"#utility.yul\":7205:7212   */\n      dup5\n        /* \"#utility.yul\":7201:7224   */\n      sub\n        /* \"#utility.yul\":7197:7229   */\n      slt\n        /* \"#utility.yul\":7194:7313   */\n      iszero\n      tag_451\n      jumpi\n        /* \"#utility.yul\":7232:7311   */\n      tag_452\n      tag_291\n      jump\t// in\n    tag_452:\n        /* \"#utility.yul\":7194:7313   */\n    tag_451:\n        /* \"#utility.yul\":7352:7353   */\n      0x00\n        /* \"#utility.yul\":7377:7430   */\n      tag_453\n        /* \"#utility.yul\":7422:7429   */\n      dup5\n        /* \"#utility.yul\":7413:7419   */\n      dup3\n        /* \"#utility.yul\":7402:7411   */\n      dup6\n        /* \"#utility.yul\":7398:7420   */\n      add\n        /* \"#utility.yul\":7377:7430   */\n      tag_317\n      jump\t// in\n    tag_453:\n        /* \"#utility.yul\":7367:7430   */\n      swap2\n      pop\n        /* \"#utility.yul\":7323:7440   */\n      pop\n        /* \"#utility.yul\":7118:7447   */\n      swap3\n      swap2\n      pop\n      pop\n      jump\t// out\n        /* \"#utility.yul\":7453:7571   */\n    tag_318:\n        /* \"#utility.yul\":7540:7564   */\n      tag_455\n        /* \"#utility.yul\":7558:7563   */\n      dup2\n        /* \"#utility.yul\":7540:7564   */\n      tag_294\n      jump\t// in\n    tag_455:\n        /* \"#utility.yul\":7535:7538   */\n      dup3\n        /* \"#utility.yul\":7528:7565   */\n      mstore\n        /* \"#utility.yul\":7453:7571   */\n      pop\n      pop\n      jump\t// out\n        /* \"#utility.yul\":7577:7676   */\n    tag_319:\n        /* \"#utility.yul\":7629:7635   */\n      0x00\n        /* \"#utility.yul\":7663:7668   */\n      dup2\n        /* \"#utility.yul\":7657:7669   */\n      mload\n        /* \"#utility.yul\":7647:7669   */\n      swap1\n      pop\n        /* \"#utility.yul\":7577:7676   */\n      swap2\n      swap1\n      pop\n      jump\t// out\n        /* \"#utility.yul\":7682:7851   */\n    tag_320:\n        /* \"#utility.yul\":7766:7777   */\n      0x00\n        /* \"#utility.yul\":7800:7806   */\n      dup3\n        /* \"#utility.yul\":7795:7798   */\n      dup3\n        /* \"#utility.yul\":7788:7807   */\n      mstore\n        /* \"#utility.yul\":7840:7844   */\n      0x20\n        /* \"#utility.yul\":7835:7838   */\n      dup3\n        /* \"#utility.yul\":7831:7845   */\n      add\n        /* \"#utility.yul\":7816:7845   */\n      swap1\n      pop\n        /* \"#utility.yul\":7682:7851   */\n      swap3\n      swap2\n      pop\n      pop\n      jump\t// out\n        /* \"#utility.yul\":7857:7996   */\n    tag_321:\n        /* \"#utility.yul\":7946:7952   */\n      dup3\n        /* \"#utility.yul\":7941:7944   */\n      dup2\n        /* \"#utility.yul\":7936:7939   */\n      dup4\n        /* \"#utility.yul\":7930:7953   */\n      mcopy\n        /* \"#utility.yul\":7987:7988   */\n      0x00\n        /* \"#utility.yul\":7978:7984   */\n      dup4\n        /* \"#utility.yul\":7973:7976   */\n      dup4\n        /* \"#utility.yul\":7969:7985   */\n      add\n        /* \"#utility.yul\":7962:7989   */\n      mstore\n        /* \"#utility.yul\":7857:7996   */\n      pop\n      pop\n      pop\n      jump\t// out\n        /* \"#utility.yul\":8002:8379   */\n    tag_322:\n        /* \"#utility.yul\":8090:8093   */\n      0x00\n        /* \"#utility.yul\":8118:8157   */\n      tag_460\n        /* \"#utility.yul\":8151:8156   */\n      dup3\n        /* \"#utility.yul\":8118:8157   */\n      tag_319\n      jump\t// in\n    tag_460:\n        /* \"#utility.yul\":8173:8244   */\n      tag_461\n        /* \"#utility.yul\":8237:8243   */\n      dup2\n        /* \"#utility.yul\":8232:8235   */\n      dup6\n        /* \"#utility.yul\":8173:8244   */\n      tag_320\n      jump\t// in\n    tag_461:\n        /* \"#utility.yul\":8166:8244   */\n      swap4\n      pop\n        /* \"#utility.yul\":8253:8318   */\n      tag_462\n        /* \"#utility.yul\":8311:8317   */\n      dup2\n        /* \"#utility.yul\":8306:8309   */\n      dup6\n        /* \"#utility.yul\":8299:8303   */\n      0x20\n        /* \"#utility.yul\":8292:8297   */\n      dup7\n        /* \"#utility.yul\":8288:8304   */\n      add\n        /* \"#utility.yul\":8253:8318   */\n      tag_321\n      jump\t// in\n    tag_462:\n        /* \"#utility.yul\":8343:8372   */\n      tag_463\n        /* \"#utility.yul\":8365:8371   */\n      dup2\n        /* \"#utility.yul\":8343:8372   */\n      tag_303\n      jump\t// in\n    tag_463:\n        /* \"#utility.yul\":8338:8341   */\n      dup5\n        /* \"#utility.yul\":8334:8373   */\n      add\n        /* \"#utility.yul\":8327:8373   */\n      swap2\n      pop\n        /* \"#utility.yul\":8094:8379   */\n      pop\n        /* \"#utility.yul\":8002:8379   */\n      swap3\n      swap2\n      pop\n      pop\n      jump\t// out\n        /* \"#utility.yul\":8385:8918   */\n    tag_61:\n        /* \"#utility.yul\":8554:8558   */\n      0x00\n        /* \"#utility.yul\":8592:8594   */\n      0x60\n        /* \"#utility.yul\":8581:8590   */\n      dup3\n        /* \"#utility.yul\":8577:8595   */\n      add\n        /* \"#utility.yul\":8569:8595   */\n      swap1\n      pop\n        /* \"#utility.yul\":8605:8676   */\n      tag_465\n        /* \"#utility.yul\":8673:8674   */\n      0x00\n        /* \"#utility.yul\":8662:8671   */\n      dup4\n        /* \"#utility.yul\":8658:8675   */\n      add\n        /* \"#utility.yul\":8649:8655   */\n      dup7\n        /* \"#utility.yul\":8605:8676   */\n      tag_318\n      jump\t// in\n    tag_465:\n        /* \"#utility.yul\":8723:8732   */\n      dup2\n        /* \"#utility.yul\":8717:8721   */\n      dup2\n        /* \"#utility.yul\":8713:8733   */\n      sub\n        /* \"#utility.yul\":8708:8710   */\n      0x20\n        /* \"#utility.yul\":8697:8706   */\n      dup4\n        /* \"#utility.yul\":8693:8711   */\n      add\n        /* \"#utility.yul\":8686:8734   */\n      mstore\n        /* \"#utility.yul\":8751:8829   */\n      tag_466\n        /* \"#utility.yul\":8824:8828   */\n      dup2\n        /* \"#utility.yul\":8815:8821   */\n      dup6\n        /* \"#utility.yul\":8751:8829   */\n      tag_322\n      jump\t// in\n    tag_466:\n        /* \"#utility.yul\":8743:8829   */\n      swap1\n      pop\n        /* \"#utility.yul\":8839:8911   */\n      tag_467\n        /* \"#utility.yul\":8907:8909   */\n      0x40\n        /* \"#utility.yul\":8896:8905   */\n      dup4\n        /* \"#utility.yul\":8892:8910   */\n      add\n        /* \"#utility.yul\":8883:8889   */\n      dup5\n        /* \"#utility.yul\":8839:8911   */\n      tag_300\n      jump\t// in\n    tag_467:\n        /* \"#utility.yul\":8385:8918   */\n      swap5\n      swap4\n      pop\n      pop\n      pop\n      pop\n      jump\t// out\n        /* \"#utility.yul\":8924:9146   */\n    tag_66:\n        /* \"#utility.yul\":9017:9021   */\n      0x00\n        /* \"#utility.yul\":9055:9057   */\n      0x20\n        /* \"#utility.yul\":9044:9053   */\n      dup3\n        /* \"#utility.yul\":9040:9058   */\n      add\n        /* \"#utility.yul\":9032:9058   */\n      swap1\n      pop\n        /* \"#utility.yul\":9068:9139   */\n      tag_469\n        /* \"#utility.yul\":9136:9137   */\n      0x00\n        /* \"#utility.yul\":9125:9134   */\n      dup4\n        /* \"#utility.yul\":9121:9138   */\n      add\n        /* \"#utility.yul\":9112:9118   */\n      dup5\n        /* \"#utility.yul\":9068:9139   */\n      tag_318\n      jump\t// in\n    tag_469:\n        /* \"#utility.yul\":8924:9146   */\n      swap3\n      swap2\n      pop\n      pop\n      jump\t// out\n        /* \"#utility.yul\":9152:9681   */\n    tag_70:\n        /* \"#utility.yul\":9223:9229   */\n      0x00\n        /* \"#utility.yul\":9231:9237   */\n      dup1\n        /* \"#utility.yul\":9280:9282   */\n      0x20\n        /* \"#utility.yul\":9268:9277   */\n      dup4\n        /* \"#utility.yul\":9259:9266   */\n      dup6\n        /* \"#utility.yul\":9255:9278   */\n      sub\n        /* \"#utility.yul\":9251:9283   */\n      slt\n        /* \"#utility.yul\":9248:9367   */\n      iszero\n      tag_471\n      jumpi\n        /* \"#utility.yul\":9286:9365   */\n      tag_472\n      tag_291\n      jump\t// in\n    tag_472:\n        /* \"#utility.yul\":9248:9367   */\n    tag_471:\n        /* \"#utility.yul\":9434:9435   */\n      0x00\n        /* \"#utility.yul\":9423:9432   */\n      dup4\n        /* \"#utility.yul\":9419:9436   */\n      add\n        /* \"#utility.yul\":9406:9437   */\n      calldataload\n        /* \"#utility.yul\":9464:9482   */\n      0xffffffffffffffff\n        /* \"#utility.yul\":9456:9462   */\n      dup2\n        /* \"#utility.yul\":9453:9483   */\n      gt\n        /* \"#utility.yul\":9450:9567   */\n      iszero\n      tag_473\n      jumpi\n        /* \"#utility.yul\":9486:9565   */\n      tag_474\n      tag_292\n      jump\t// in\n    tag_474:\n        /* \"#utility.yul\":9450:9567   */\n    tag_473:\n        /* \"#utility.yul\":9599:9664   */\n      tag_475\n        /* \"#utility.yul\":9656:9663   */\n      dup6\n        /* \"#utility.yul\":9647:9653   */\n      dup3\n        /* \"#utility.yul\":9636:9645   */\n      dup7\n        /* \"#utility.yul\":9632:9654   */\n      add\n        /* \"#utility.yul\":9599:9664   */\n      tag_315\n      jump\t// in\n    tag_475:\n        /* \"#utility.yul\":9581:9664   */\n      swap3\n      pop\n      swap3\n      pop\n        /* \"#utility.yul\":9377:9674   */\n      pop\n        /* \"#utility.yul\":9152:9681   */\n      swap3\n      pop\n      swap3\n      swap1\n      pop\n      jump\t// out\n        /* \"#utility.yul\":9687:10000   */\n    tag_76:\n        /* \"#utility.yul\":9800:9804   */\n      0x00\n        /* \"#utility.yul\":9838:9840   */\n      0x20\n        /* \"#utility.yul\":9827:9836   */\n      dup3\n        /* \"#utility.yul\":9823:9841   */\n      add\n        /* \"#utility.yul\":9815:9841   */\n      swap1\n      pop\n        /* \"#utility.yul\":9887:9896   */\n      dup2\n        /* \"#utility.yul\":9881:9885   */\n      dup2\n        /* \"#utility.yul\":9877:9897   */\n      sub\n        /* \"#utility.yul\":9873:9874   */\n      0x00\n        /* \"#utility.yul\":9862:9871   */\n      dup4\n        /* \"#utility.yul\":9858:9875   */\n      add\n        /* \"#utility.yul\":9851:9898   */\n      mstore\n        /* \"#utility.yul\":9915:9993   */\n      tag_477\n        /* \"#utility.yul\":9988:9992   */\n      dup2\n        /* \"#utility.yul\":9979:9985   */\n      dup5\n        /* \"#utility.yul\":9915:9993   */\n      tag_322\n      jump\t// in\n    tag_477:\n        /* \"#utility.yul\":9907:9993   */\n      swap1\n      pop\n        /* \"#utility.yul\":9687:10000   */\n      swap3\n      swap2\n      pop\n      pop\n      jump\t// out\n        /* \"#utility.yul\":10006:10314   */\n    tag_323:\n        /* \"#utility.yul\":10068:10072   */\n      0x00\n        /* \"#utility.yul\":10158:10176   */\n      0xffffffffffffffff\n        /* \"#utility.yul\":10150:10156   */\n      dup3\n        /* \"#utility.yul\":10147:10177   */\n      gt\n        /* \"#utility.yul\":10144:10200   */\n      iszero\n      tag_479\n      jumpi\n        /* \"#utility.yul\":10180:10198   */\n      tag_480\n      tag_304\n      jump\t// in\n    tag_480:\n        /* \"#utility.yul\":10144:10200   */\n    tag_479:\n        /* \"#utility.yul\":10218:10247   */\n      tag_481\n        /* \"#utility.yul\":10240:10246   */\n      dup3\n        /* \"#utility.yul\":10218:10247   */\n      tag_303\n      jump\t// in\n    tag_481:\n        /* \"#utility.yul\":10210:10247   */\n      swap1\n      pop\n        /* \"#utility.yul\":10302:10306   */\n      0x20\n        /* \"#utility.yul\":10296:10300   */\n      dup2\n        /* \"#utility.yul\":10292:10307   */\n      add\n        /* \"#utility.yul\":10284:10307   */\n      swap1\n      pop\n        /* \"#utility.yul\":10006:10314   */\n      swap2\n      swap1\n      pop\n      jump\t// out\n        /* \"#utility.yul\":10320:10745   */\n    tag_324:\n        /* \"#utility.yul\":10398:10403   */\n      0x00\n        /* \"#utility.yul\":10423:10489   */\n      tag_483\n        /* \"#utility.yul\":10439:10488   */\n      tag_484\n        /* \"#utility.yul\":10481:10487   */\n      dup5\n        /* \"#utility.yul\":10439:10488   */\n      tag_323\n      jump\t// in\n    tag_484:\n        /* \"#utility.yul\":10423:10489   */\n      tag_306\n      jump\t// in\n    tag_483:\n        /* \"#utility.yul\":10414:10489   */\n      swap1\n      pop\n        /* \"#utility.yul\":10512:10518   */\n      dup3\n        /* \"#utility.yul\":10505:10510   */\n      dup2\n        /* \"#utility.yul\":10498:10519   */\n      mstore\n        /* \"#utility.yul\":10550:10554   */\n      0x20\n        /* \"#utility.yul\":10543:10548   */\n      dup2\n        /* \"#utility.yul\":10539:10555   */\n      add\n        /* \"#utility.yul\":10588:10591   */\n      dup5\n        /* \"#utility.yul\":10579:10585   */\n      dup5\n        /* \"#utility.yul\":10574:10577   */\n      dup5\n        /* \"#utility.yul\":10570:10586   */\n      add\n        /* \"#utility.yul\":10567:10592   */\n      gt\n        /* \"#utility.yul\":10564:10676   */\n      iszero\n      tag_485\n      jumpi\n        /* \"#utility.yul\":10595:10674   */\n      tag_486\n      tag_302\n      jump\t// in\n    tag_486:\n        /* \"#utility.yul\":10564:10676   */\n    tag_485:\n        /* \"#utility.yul\":10685:10739   */\n      tag_487\n        /* \"#utility.yul\":10732:10738   */\n      dup5\n        /* \"#utility.yul\":10727:10730   */\n      dup3\n        /* \"#utility.yul\":10722:10725   */\n      dup6\n        /* \"#utility.yul\":10685:10739   */\n      tag_308\n      jump\t// in\n    tag_487:\n        /* \"#utility.yul\":10404:10745   */\n      pop\n        /* \"#utility.yul\":10320:10745   */\n      swap4\n      swap3\n      pop\n      pop\n      pop\n      jump\t// out\n        /* \"#utility.yul\":10765:11105   */\n    tag_325:\n        /* \"#utility.yul\":10821:10826   */\n      0x00\n        /* \"#utility.yul\":10870:10873   */\n      dup3\n        /* \"#utility.yul\":10863:10867   */\n      0x1f\n        /* \"#utility.yul\":10855:10861   */\n      dup4\n        /* \"#utility.yul\":10851:10868   */\n      add\n        /* \"#utility.yul\":10847:10874   */\n      slt\n        /* \"#utility.yul\":10837:10959   */\n      tag_489\n      jumpi\n        /* \"#utility.yul\":10878:10957   */\n      tag_490\n      tag_301\n      jump\t// in\n    tag_490:\n        /* \"#utility.yul\":10837:10959   */\n    tag_489:\n        /* \"#utility.yul\":10995:11001   */\n      dup2\n        /* \"#utility.yul\":10982:11002   */\n      calldataload\n        /* \"#utility.yul\":11020:11099   */\n      tag_491\n        /* \"#utility.yul\":11095:11098   */\n      dup5\n        /* \"#utility.yul\":11087:11093   */\n      dup3\n        /* \"#utility.yul\":11080:11084   */\n      0x20\n        /* \"#utility.yul\":11072:11078   */\n      dup7\n        /* \"#utility.yul\":11068:11085   */\n      add\n        /* \"#utility.yul\":11020:11099   */\n      tag_324\n      jump\t// in\n    tag_491:\n        /* \"#utility.yul\":11011:11099   */\n      swap2\n      pop\n        /* \"#utility.yul\":10827:11105   */\n      pop\n        /* \"#utility.yul\":10765:11105   */\n      swap3\n      swap2\n      pop\n      pop\n      jump\t// out\n        /* \"#utility.yul\":11111:11620   */\n    tag_80:\n        /* \"#utility.yul\":11180:11186   */\n      0x00\n        /* \"#utility.yul\":11229:11231   */\n      0x20\n        /* \"#utility.yul\":11217:11226   */\n      dup3\n        /* \"#utility.yul\":11208:11215   */\n      dup5\n        /* \"#utility.yul\":11204:11227   */\n      sub\n        /* \"#utility.yul\":11200:11232   */\n      slt\n        /* \"#utility.yul\":11197:11316   */\n      iszero\n      tag_493\n      jumpi\n        /* \"#utility.yul\":11235:11314   */\n      tag_494\n      tag_291\n      jump\t// in\n    tag_494:\n        /* \"#utility.yul\":11197:11316   */\n    tag_493:\n        /* \"#utility.yul\":11383:11384   */\n      0x00\n        /* \"#utility.yul\":11372:11381   */\n      dup3\n        /* \"#utility.yul\":11368:11385   */\n      add\n        /* \"#utility.yul\":11355:11386   */\n      calldataload\n        /* \"#utility.yul\":11413:11431   */\n      0xffffffffffffffff\n        /* \"#utility.yul\":11405:11411   */\n      dup2\n        /* \"#utility.yul\":11402:11432   */\n      gt\n        /* \"#utility.yul\":11399:11516   */\n      iszero\n      tag_495\n      jumpi\n        /* \"#utility.yul\":11435:11514   */\n      tag_496\n      tag_292\n      jump\t// in\n    tag_496:\n        /* \"#utility.yul\":11399:11516   */\n    tag_495:\n        /* \"#utility.yul\":11540:11603   */\n      tag_497\n        /* \"#utility.yul\":11595:11602   */\n      dup5\n        /* \"#utility.yul\":11586:11592   */\n      dup3\n        /* \"#utility.yul\":11575:11584   */\n      dup6\n        /* \"#utility.yul\":11571:11593   */\n      add\n        /* \"#utility.yul\":11540:11603   */\n      tag_325\n      jump\t// in\n    tag_497:\n        /* \"#utility.yul\":11530:11603   */\n      swap2\n      pop\n        /* \"#utility.yul\":11326:11613   */\n      pop\n        /* \"#utility.yul\":11111:11620   */\n      swap3\n      swap2\n      pop\n      pop\n      jump\t// out\n        /* \"#utility.yul\":11626:11799   */\n    tag_326:\n        /* \"#utility.yul\":11766:11791   */\n      0x5573657220616c72656164792072656769737465726564000000000000000000\n        /* \"#utility.yul\":11762:11763   */\n      0x00\n        /* \"#utility.yul\":11754:11760   */\n      dup3\n        /* \"#utility.yul\":11750:11764   */\n      add\n        /* \"#utility.yul\":11743:11792   */\n      mstore\n        /* \"#utility.yul\":11626:11799   */\n      pop\n      jump\t// out\n        /* \"#utility.yul\":11805:12171   */\n    tag_327:\n        /* \"#utility.yul\":11947:11950   */\n      0x00\n        /* \"#utility.yul\":11968:12035   */\n      tag_500\n        /* \"#utility.yul\":12032:12034   */\n      0x17\n        /* \"#utility.yul\":12027:12030   */\n      dup4\n        /* \"#utility.yul\":11968:12035   */\n      tag_320\n      jump\t// in\n    tag_500:\n        /* \"#utility.yul\":11961:12035   */\n      swap2\n      pop\n        /* \"#utility.yul\":12044:12137   */\n      tag_501\n        /* \"#utility.yul\":12133:12136   */\n      dup3\n        /* \"#utility.yul\":12044:12137   */\n      tag_326\n      jump\t// in\n    tag_501:\n        /* \"#utility.yul\":12162:12164   */\n      0x20\n        /* \"#utility.yul\":12157:12160   */\n      dup3\n        /* \"#utility.yul\":12153:12165   */\n      add\n        /* \"#utility.yul\":12146:12165   */\n      swap1\n      pop\n        /* \"#utility.yul\":11805:12171   */\n      swap2\n      swap1\n      pop\n      jump\t// out\n        /* \"#utility.yul\":12177:12596   */\n    tag_93:\n        /* \"#utility.yul\":12343:12347   */\n      0x00\n        /* \"#utility.yul\":12381:12383   */\n      0x20\n        /* \"#utility.yul\":12370:12379   */\n      dup3\n        /* \"#utility.yul\":12366:12384   */\n      add\n        /* \"#utility.yul\":12358:12384   */\n      swap1\n      pop\n        /* \"#utility.yul\":12430:12439   */\n      dup2\n        /* \"#utility.yul\":12424:12428   */\n      dup2\n        /* \"#utility.yul\":12420:12440   */\n      sub\n        /* \"#utility.yul\":12416:12417   */\n      0x00\n        /* \"#utility.yul\":12405:12414   */\n      dup4\n        /* \"#utility.yul\":12401:12418   */\n      add\n        /* \"#utility.yul\":12394:12441   */\n      mstore\n        /* \"#utility.yul\":12458:12589   */\n      tag_503\n        /* \"#utility.yul\":12584:12588   */\n      dup2\n        /* \"#utility.yul\":12458:12589   */\n      tag_327\n      jump\t// in\n    tag_503:\n        /* \"#utility.yul\":12450:12589   */\n      swap1\n      pop\n        /* \"#utility.yul\":12177:12596   */\n      swap2\n      swap1\n      pop\n      jump\t// out\n        /* \"#utility.yul\":12602:12771   */\n    tag_328:\n        /* \"#utility.yul\":12742:12763   */\n      0x55736572206e6f74207265676973746572656400000000000000000000000000\n        /* \"#utility.yul\":12738:12739   */\n      0x00\n        /* \"#utility.yul\":12730:12736   */\n      dup3\n        /* \"#utility.yul\":12726:12740   */\n      add\n        /* \"#utility.yul\":12719:12764   */\n      mstore\n        /* \"#utility.yul\":12602:12771   */\n      pop\n      jump\t// out\n        /* \"#utility.yul\":12777:13143   */\n    tag_329:\n        /* \"#utility.yul\":12919:12922   */\n      0x00\n        /* \"#utility.yul\":12940:13007   */\n      tag_506\n        /* \"#utility.yul\":13004:13006   */\n      0x13\n        /* \"#utility.yul\":12999:13002   */\n      dup4\n        /* \"#utility.yul\":12940:13007   */\n      tag_320\n      jump\t// in\n    tag_506:\n        /* \"#utility.yul\":12933:13007   */\n      swap2\n      pop\n        /* \"#utility.yul\":13016:13109   */\n      tag_507\n        /* \"#utility.yul\":13105:13108   */\n      dup3\n        /* \"#utility.yul\":13016:13109   */\n      tag_328\n      jump\t// in\n    tag_507:\n        /* \"#utility.yul\":13134:13136   */\n      0x20\n        /* \"#utility.yul\":13129:13132   */\n      dup3\n        /* \"#utility.yul\":13125:13137   */\n      add\n        /* \"#utility.yul\":13118:13137   */\n      swap1\n      pop\n        /* \"#utility.yul\":12777:13143   */\n      swap2\n      swap1\n      pop\n      jump\t// out\n        /* \"#utility.yul\":13149:13568   */\n    tag_112:\n        /* \"#utility.yul\":13315:13319   */\n      0x00\n        /* \"#utility.yul\":13353:13355   */\n      0x20\n        /* \"#utility.yul\":13342:13351   */\n      dup3\n        /* \"#utility.yul\":13338:13356   */\n      add\n        /* \"#utility.yul\":13330:13356   */\n      swap1\n      pop\n        /* \"#utility.yul\":13402:13411   */\n      dup2\n        /* \"#utility.yul\":13396:13400   */\n      dup2\n        /* \"#utility.yul\":13392:13412   */\n      sub\n        /* \"#utility.yul\":13388:13389   */\n      0x00\n        /* \"#utility.yul\":13377:13386   */\n      dup4\n        /* \"#utility.yul\":13373:13390   */\n      add\n        /* \"#utility.yul\":13366:13413   */\n      mstore\n        /* \"#utility.yul\":13430:13561   */\n      tag_509\n        /* \"#utility.yul\":13556:13560   */\n      dup2\n        /* \"#utility.yul\":13430:13561   */\n      tag_329\n      jump\t// in\n    tag_509:\n        /* \"#utility.yul\":13422:13561   */\n      swap1\n      pop\n        /* \"#utility.yul\":13149:13568   */\n      swap2\n      swap1\n      pop\n      jump\t// out\n        /* \"#utility.yul\":13574:13722   */\n    tag_330:\n        /* \"#utility.yul\":13676:13687   */\n      0x00\n        /* \"#utility.yul\":13713:13716   */\n      dup2\n        /* \"#utility.yul\":13698:13716   */\n      swap1\n      pop\n        /* \"#utility.yul\":13574:13722   */\n      swap3\n      swap2\n      pop\n      pop\n      jump\t// out\n        /* \"#utility.yul\":13752:14082   */\n    tag_331:\n        /* \"#utility.yul\":13868:13871   */\n      0x00\n        /* \"#utility.yul\":13889:13978   */\n      tag_512\n        /* \"#utility.yul\":13971:13977   */\n      dup4\n        /* \"#utility.yul\":13966:13969   */\n      dup6\n        /* \"#utility.yul\":13889:13978   */\n      tag_330\n      jump\t// in\n    tag_512:\n        /* \"#utility.yul\":13882:13978   */\n      swap4\n      pop\n        /* \"#utility.yul\":13988:14044   */\n      tag_513\n        /* \"#utility.yul\":14037:14043   */\n      dup4\n        /* \"#utility.yul\":14032:14035   */\n      dup6\n        /* \"#utility.yul\":14025:14030   */\n      dup5\n        /* \"#utility.yul\":13988:14044   */\n      tag_308\n      jump\t// in\n    tag_513:\n        /* \"#utility.yul\":14069:14075   */\n      dup3\n        /* \"#utility.yul\":14064:14067   */\n      dup5\n        /* \"#utility.yul\":14060:14076   */\n      add\n        /* \"#utility.yul\":14053:14076   */\n      swap1\n      pop\n        /* \"#utility.yul\":13752:14082   */\n      swap4\n      swap3\n      pop\n      pop\n      pop\n      jump\t// out\n        /* \"#utility.yul\":14088:14383   */\n    tag_114:\n        /* \"#utility.yul\":14230:14233   */\n      0x00\n        /* \"#utility.yul\":14252:14357   */\n      tag_515\n        /* \"#utility.yul\":14353:14356   */\n      dup3\n        /* \"#utility.yul\":14344:14350   */\n      dup5\n        /* \"#utility.yul\":14336:14342   */\n      dup7\n        /* \"#utility.yul\":14252:14357   */\n      tag_331\n      jump\t// in\n    tag_515:\n        /* \"#utility.yul\":14245:14357   */\n      swap2\n      pop\n        /* \"#utility.yul\":14374:14377   */\n      dup2\n        /* \"#utility.yul\":14367:14377   */\n      swap1\n      pop\n        /* \"#utility.yul\":14088:14383   */\n      swap4\n      swap3\n      pop\n      pop\n      pop\n      jump\t// out\n        /* \"#utility.yul\":14389:14558   */\n    tag_332:\n        /* \"#utility.yul\":14529:14550   */\n      0x496e76616c696420616374696f6e207479706500000000000000000000000000\n        /* \"#utility.yul\":14525:14526   */\n      0x00\n        /* \"#utility.yul\":14517:14523   */\n      dup3\n        /* \"#utility.yul\":14513:14527   */\n      add\n        /* \"#utility.yul\":14506:14551   */\n      mstore\n        /* \"#utility.yul\":14389:14558   */\n      pop\n      jump\t// out\n        /* \"#utility.yul\":14564:14930   */\n    tag_333:\n        /* \"#utility.yul\":14706:14709   */\n      0x00\n        /* \"#utility.yul\":14727:14794   */\n      tag_518\n        /* \"#utility.yul\":14791:14793   */\n      0x13\n        /* \"#utility.yul\":14786:14789   */\n      dup4\n        /* \"#utility.yul\":14727:14794   */\n      tag_320\n      jump\t// in\n    tag_518:\n        /* \"#utility.yul\":14720:14794   */\n      swap2\n      pop\n        /* \"#utility.yul\":14803:14896   */\n      tag_519\n        /* \"#utility.yul\":14892:14895   */\n      dup3\n        /* \"#utility.yul\":14803:14896   */\n      tag_332\n      jump\t// in\n    tag_519:\n        /* \"#utility.yul\":14921:14923   */\n      0x20\n        /* \"#utility.yul\":14916:14919   */\n      dup3\n        /* \"#utility.yul\":14912:14924   */\n      add\n        /* \"#utility.yul\":14905:14924   */\n      swap1\n      pop\n        /* \"#utility.yul\":14564:14930   */\n      swap2\n      swap1\n      pop\n      jump\t// out\n        /* \"#utility.yul\":14936:15355   */\n    tag_117:\n        /* \"#utility.yul\":15102:15106   */\n      0x00\n        /* \"#utility.yul\":15140:15142   */\n      0x20\n        /* \"#utility.yul\":15129:15138   */\n      dup3\n        /* \"#utility.yul\":15125:15143   */\n      add\n        /* \"#utility.yul\":15117:15143   */\n      swap1\n      pop\n        /* \"#utility.yul\":15189:15198   */\n      dup2\n        /* \"#utility.yul\":15183:15187   */\n      dup2\n        /* \"#utility.yul\":15179:15199   */\n      sub\n        /* \"#utility.yul\":15175:15176   */\n      0x00\n        /* \"#utility.yul\":15164:15173   */\n      dup4\n        /* \"#utility.yul\":15160:15177   */\n      add\n        /* \"#utility.yul\":15153:15200   */\n      mstore\n        /* \"#utility.yul\":15217:15348   */\n      tag_521\n        /* \"#utility.yul\":15343:15347   */\n      dup2\n        /* \"#utility.yul\":15217:15348   */\n      tag_333\n      jump\t// in\n    tag_521:\n        /* \"#utility.yul\":15209:15348   */\n      swap1\n      pop\n        /* \"#utility.yul\":14936:15355   */\n      swap2\n      swap1\n      pop\n      jump\t// out\n        /* \"#utility.yul\":15361:15541   */\n    tag_334:\n        /* \"#utility.yul\":15409:15486   */\n      0x4e487b7100000000000000000000000000000000000000000000000000000000\n        /* \"#utility.yul\":15406:15407   */\n      0x00\n        /* \"#utility.yul\":15399:15487   */\n      mstore\n        /* \"#utility.yul\":15506:15510   */\n      0x22\n        /* \"#utility.yul\":15503:15504   */\n      0x04\n        /* \"#utility.yul\":15496:15511   */\n      mstore\n        /* \"#utility.yul\":15530:15534   */\n      0x24\n        /* \"#utility.yul\":15527:15528   */\n      0x00\n        /* \"#utility.yul\":15520:15535   */\n      revert\n        /* \"#utility.yul\":15547:15867   */\n    tag_152:\n        /* \"#utility.yul\":15591:15597   */\n      0x00\n        /* \"#utility.yul\":15628:15629   */\n      0x02\n        /* \"#utility.yul\":15622:15626   */\n      dup3\n        /* \"#utility.yul\":15618:15630   */\n      div\n        /* \"#utility.yul\":15608:15630   */\n      swap1\n      pop\n        /* \"#utility.yul\":15675:15676   */\n      0x01\n        /* \"#utility.yul\":15669:15673   */\n      dup3\n        /* \"#utility.yul\":15665:15677   */\n      and\n        /* \"#utility.yul\":15696:15714   */\n      dup1\n        /* \"#utility.yul\":15686:15767   */\n      tag_524\n      jumpi\n        /* \"#utility.yul\":15752:15756   */\n      0x7f\n        /* \"#utility.yul\":15744:15750   */\n      dup3\n        /* \"#utility.yul\":15740:15757   */\n      and\n        /* \"#utility.yul\":15730:15757   */\n      swap2\n      pop\n        /* \"#utility.yul\":15686:15767   */\n    tag_524:\n        /* \"#utility.yul\":15814:15816   */\n      0x20\n        /* \"#utility.yul\":15806:15812   */\n      dup3\n        /* \"#utility.yul\":15803:15817   */\n      lt\n        /* \"#utility.yul\":15783:15801   */\n      dup2\n        /* \"#utility.yul\":15780:15818   */\n      sub\n        /* \"#utility.yul\":15777:15861   */\n      tag_525\n      jumpi\n        /* \"#utility.yul\":15833:15851   */\n      tag_526\n      tag_334\n      jump\t// in\n    tag_526:\n        /* \"#utility.yul\":15777:15861   */\n    tag_525:\n        /* \"#utility.yul\":15598:15867   */\n      pop\n        /* \"#utility.yul\":15547:15867   */\n      swap2\n      swap1\n      pop\n      jump\t// out\n        /* \"#utility.yul\":15873:16014   */\n    tag_335:\n        /* \"#utility.yul\":15922:15926   */\n      0x00\n        /* \"#utility.yul\":15945:15948   */\n      dup2\n        /* \"#utility.yul\":15937:15948   */\n      swap1\n      pop\n        /* \"#utility.yul\":15968:15971   */\n      dup2\n        /* \"#utility.yul\":15965:15966   */\n      0x00\n        /* \"#utility.yul\":15958:15972   */\n      mstore\n        /* \"#utility.yul\":16002:16006   */\n      0x20\n        /* \"#utility.yul\":15999:16000   */\n      0x00\n        /* \"#utility.yul\":15989:16007   */\n      keccak256\n        /* \"#utility.yul\":15981:16007   */\n      swap1\n      pop\n        /* \"#utility.yul\":15873:16014   */\n      swap2\n      swap1\n      pop\n      jump\t// out\n        /* \"#utility.yul\":16020:16113   */\n    tag_336:\n        /* \"#utility.yul\":16057:16063   */\n      0x00\n        /* \"#utility.yul\":16104:16106   */\n      0x20\n        /* \"#utility.yul\":16099:16101   */\n      0x1f\n        /* \"#utility.yul\":16092:16097   */\n      dup4\n        /* \"#utility.yul\":16088:16102   */\n      add\n        /* \"#utility.yul\":16084:16107   */\n      div\n        /* \"#utility.yul\":16074:16107   */\n      swap1\n      pop\n        /* \"#utility.yul\":16020:16113   */\n      swap2\n      swap1\n      pop\n      jump\t// out\n        /* \"#utility.yul\":16119:16226   */\n    tag_337:\n        /* \"#utility.yul\":16163:16171   */\n      0x00\n        /* \"#utility.yul\":16213:16218   */\n      dup3\n        /* \"#utility.yul\":16207:16211   */\n      dup3\n        /* \"#utility.yul\":16203:16219   */\n      shl\n        /* \"#utility.yul\":16182:16219   */\n      swap1\n      pop\n        /* \"#utility.yul\":16119:16226   */\n      swap3\n      swap2\n      pop\n      pop\n      jump\t// out\n        /* \"#utility.yul\":16232:16625   */\n    tag_338:\n        /* \"#utility.yul\":16301:16307   */\n      0x00\n        /* \"#utility.yul\":16351:16352   */\n      0x08\n        /* \"#utility.yul\":16339:16349   */\n      dup4\n        /* \"#utility.yul\":16335:16353   */\n      mul\n        /* \"#utility.yul\":16374:16471   */\n      tag_531\n        /* \"#utility.yul\":16404:16470   */\n      0xffffffffffffffffffffffffffffffffffffffffffffffffffffffffffffffff\n        /* \"#utility.yul\":16393:16402   */\n      dup3\n        /* \"#utility.yul\":16374:16471   */\n      tag_337\n      jump\t// in\n    tag_531:\n        /* \"#utility.yul\":16492:16531   */\n      tag_532\n        /* \"#utility.yul\":16522:16530   */\n      dup7\n        /* \"#utility.yul\":16511:16520   */\n      dup4\n        /* \"#utility.yul\":16492:16531   */\n      tag_337\n      jump\t// in\n    tag_532:\n        /* \"#utility.yul\":16480:16531   */\n      swap6\n      pop\n        /* \"#utility.yul\":16564:16568   */\n      dup1\n        /* \"#utility.yul\":16560:16569   */\n      not\n        /* \"#utility.yul\":16553:16558   */\n      dup5\n        /* \"#utility.yul\":16549:16570   */\n      and\n        /* \"#utility.yul\":16540:16570   */\n      swap4\n      pop\n        /* \"#utility.yul\":16613:16617   */\n      dup1\n        /* \"#utility.yul\":16603:16611   */\n      dup7\n        /* \"#utility.yul\":16599:16618   */\n      and\n        /* \"#utility.yul\":16592:16597   */\n      dup5\n        /* \"#utility.yul\":16589:16619   */\n      or\n        /* \"#utility.yul\":16579:16619   */\n      swap3\n      pop\n        /* \"#utility.yul\":16308:16625   */\n      pop\n      pop\n        /* \"#utility.yul\":16232:16625   */\n      swap4\n      swap3\n      pop\n      pop\n      pop\n      jump\t// out\n        /* \"#utility.yul\":16631:16691   */\n    tag_339:\n        /* \"#utility.yul\":16659:16662   */\n      0x00\n        /* \"#utility.yul\":16680:16685   */\n      dup2\n        /* \"#utility.yul\":16673:16685   */\n      swap1\n      pop\n        /* \"#utility.yul\":16631:16691   */\n      swap2\n      swap1\n      pop\n      jump\t// out\n        /* \"#utility.yul\":16697:16839   */\n    tag_340:\n        /* \"#utility.yul\":16747:16756   */\n      0x00\n        /* \"#utility.yul\":16780:16833   */\n      tag_535\n        /* \"#utility.yul\":16798:16832   */\n      tag_536\n        /* \"#utility.yul\":16807:16831   */\n      tag_537\n        /* \"#utility.yul\":16825:16830   */\n      dup5\n        /* \"#utility.yul\":16807:16831   */\n      tag_299\n      jump\t// in\n    tag_537:\n        /* \"#utility.yul\":16798:16832   */\n      tag_339\n      jump\t// in\n    tag_536:\n        /* \"#utility.yul\":16780:16833   */\n      tag_299\n      jump\t// in\n    tag_535:\n        /* \"#utility.yul\":16767:16833   */\n      swap1\n      pop\n        /* \"#utility.yul\":16697:16839   */\n      swap2\n      swap1\n      pop\n      jump\t// out\n        /* \"#utility.yul\":16845:16920   */\n    tag_341:\n        /* \"#utility.yul\":16888:16891   */\n      0x00\n        /* \"#utility.yul\":16909:16914   */\n      dup2\n        /* \"#utility.yul\":16902:16914   */\n      swap1\n      pop\n        /* \"#utility.yul\":16845:16920   */\n      swap2\n      swap1\n      pop\n      jump\t// out\n        /* \"#utility.yul\":16926:17195   */\n    tag_342:\n        /* \"#utility.yul\":17036:17075   */\n      tag_540\n        /* \"#utility.yul\":17067:17074   */\n      dup4\n        /* \"#utility.yul\":17036:17075   */\n      tag_340\n      jump\t// in\n    tag_540:\n        /* \"#utility.yul\":17097:17188   */\n      tag_541\n        /* \"#utility.yul\":17146:17187   */\n      tag_542\n        /* \"#utility.yul\":17170:17186   */\n      dup3\n        /* \"#utility.yul\":17146:17187   */\n      tag_341\n      jump\t// in\n    tag_542:\n        /* \"#utility.yul\":17138:17144   */\n      dup5\n        /* \"#utility.yul\":17131:17135   */\n      dup5\n        /* \"#utility.yul\":17125:17136   */\n      sload\n        /* \"#utility.yul\":17097:17188   */\n      tag_338\n      jump\t// in\n    tag_541:\n        /* \"#utility.yul\":17091:17095   */\n      dup3\n        /* \"#utility.yul\":17084:17189   */\n      sstore\n        /* \"#utility.yul\":17002:17195   */\n      pop\n        /* \"#utility.yul\":16926:17195   */\n      pop\n      pop\n      pop\n      jump\t// out\n        /* \"#utility.yul\":17201:17274   */\n    tag_343:\n        /* \"#utility.yul\":17246:17249   */\n      0x00\n        /* \"#utility.yul\":17201:17274   */\n      swap1\n      jump\t// out\n        /* \"#utility.yul\":17280:17469   */\n    tag_344:\n        /* \"#utility.yul\":17357:17389   */\n      tag_545\n      tag_343\n      jump\t// in\n    tag_545:\n        /* \"#utility.yul\":17398:17463   */\n      tag_546\n        /* \"#utility.yul\":17456:17462   */\n      dup2\n        /* \"#utility.yul\":17448:17454   */\n      dup5\n        /* \"#utility.yul\":17442:17446   */\n      dup5\n        /* \"#utility.yul\":17398:17463   */\n      tag_342\n      jump\t// in\n    tag_546:\n        /* \"#utility.yul\":17333:17469   */\n      pop\n        /* \"#utility.yul\":17280:17469   */\n      pop\n      pop\n      jump\t// out\n        /* \"#utility.yul\":17475:17661   */\n    tag_345:\n        /* \"#utility.yul\":17535:17655   */\n    tag_548:\n        /* \"#utility.yul\":17552:17555   */\n      dup2\n        /* \"#utility.yul\":17545:17550   */\n      dup2\n        /* \"#utility.yul\":17542:17556   */\n      lt\n        /* \"#utility.yul\":17535:17655   */\n      iszero\n      tag_550\n      jumpi\n        /* \"#utility.yul\":17606:17645   */\n      tag_551\n        /* \"#utility.yul\":17643:17644   */\n      0x00\n        /* \"#utility.yul\":17636:17641   */\n      dup3\n        /* \"#utility.yul\":17606:17645   */\n      tag_344\n      jump\t// in\n    tag_551:\n        /* \"#utility.yul\":17579:17580   */\n      0x01\n        /* \"#utility.yul\":17572:17577   */\n      dup2\n        /* \"#utility.yul\":17568:17581   */\n      add\n        /* \"#utility.yul\":17559:17581   */\n      swap1\n      pop\n        /* \"#utility.yul\":17535:17655   */\n      jump(tag_548)\n    tag_550:\n        /* \"#utility.yul\":17475:17661   */\n      pop\n      pop\n      jump\t// out\n        /* \"#utility.yul\":17667:18210   */\n    tag_346:\n        /* \"#utility.yul\":17768:17770   */\n      0x1f\n        /* \"#utility.yul\":17763:17766   */\n      dup3\n        /* \"#utility.yul\":17760:17771   */\n      gt\n        /* \"#utility.yul\":17757:18203   */\n      iszero\n      tag_553\n      jumpi\n        /* \"#utility.yul\":17802:17840   */\n      tag_554\n        /* \"#utility.yul\":17834:17839   */\n      dup2\n        /* \"#utility.yul\":17802:17840   */\n      tag_335\n      jump\t// in\n    tag_554:\n        /* \"#utility.yul\":17886:17915   */\n      tag_555\n        /* \"#utility.yul\":17904:17914   */\n      dup5\n        /* \"#utility.yul\":17886:17915   */\n      tag_336\n      jump\t// in\n    tag_555:\n        /* \"#utility.yul\":17876:17884   */\n      dup2\n        /* \"#utility.yul\":17872:17916   */\n      add\n        /* \"#utility.yul\":18069:18071   */\n      0x20\n        /* \"#utility.yul\":18057:18067   */\n      dup6\n        /* \"#utility.yul\":18054:18072   */\n      lt\n        /* \"#utility.yul\":18051:18100   */\n      iszero\n      tag_556\n      jumpi\n        /* \"#utility.yul\":18090:18098   */\n      dup2\n        /* \"#utility.yul\":18075:18098   */\n      swap1\n      pop\n        /* \"#utility.yul\":18051:18100   */\n    tag_556:\n        /* \"#utility.yul\":18113:18193   */\n      tag_557\n        /* \"#utility.yul\":18169:18191   */\n      tag_558\n        /* \"#utility.yul\":18187:18190   */\n      dup6\n        /* \"#utility.yul\":18169:18191   */\n      tag_336\n      jump\t// in\n    tag_558:\n        /* \"#utility.yul\":18159:18167   */\n      dup4\n        /* \"#utility.yul\":18155:18192   */\n      add\n        /* \"#utility.yul\":18142:18153   */\n      dup3\n        /* \"#utility.yul\":18113:18193   */\n      tag_345\n      jump\t// in\n    tag_557:\n        /* \"#utility.yul\":17772:18203   */\n      pop\n      pop\n        /* \"#utility.yul\":17757:18203   */\n    tag_553:\n        /* \"#utility.yul\":17667:18210   */\n      pop\n      pop\n      pop\n      jump\t// out\n        /* \"#utility.yul\":18216:18333   */\n    tag_347:\n        /* \"#utility.yul\":18270:18278   */\n      0x00\n        /* \"#utility.yul\":18320:18325   */\n      dup3\n        /* \"#utility.yul\":18314:18318   */\n      dup3\n        /* \"#utility.yul\":18310:18326   */\n      shr\n        /* \"#utility.yul\":18289:18326   */\n      swap1\n      pop\n        /* \"#utility.yul\":18216:18333   */\n      swap3\n      swap2\n      pop\n      pop\n      jump\t// out\n        /* \"#utility.yul\":18339:18508   */\n    tag_348:\n        /* \"#utility.yul\":18383:18389   */\n      0x00\n        /* \"#utility.yul\":18416:18467   */\n      tag_561\n        /* \"#utility.yul\":18464:18465   */\n      0x00\n        /* \"#utility.yul\":18460:18466   */\n      not\n        /* \"#utility.yul\":18452:18457   */\n      dup5\n        /* \"#utility.yul\":18449:18450   */\n      0x08\n        /* \"#utility.yul\":18445:18458   */\n      mul\n        /* \"#utility.yul\":18416:18467   */\n      tag_347\n      jump\t// in\n    tag_561:\n        /* \"#utility.yul\":18412:18468   */\n      not\n        /* \"#utility.yul\":18497:18501   */\n      dup1\n        /* \"#utility.yul\":18491:18495   */\n      dup4\n        /* \"#utility.yul\":18487:18502   */\n      and\n        /* \"#utility.yul\":18477:18502   */\n      swap2\n      pop\n        /* \"#utility.yul\":18390:18508   */\n      pop\n        /* \"#utility.yul\":18339:18508   */\n      swap3\n      swap2\n      pop\n      pop\n      jump\t// out\n        /* \"#utility.yul\":18513:18808   */\n    tag_349:\n        /* \"#utility.yul\":18589:18593   */\n      0x00\n        /* \"#utility.yul\":18735:18764   */\n      tag_563\n        /* \"#utility.yul\":18760:18763   */\n      dup4\n        /* \"#utility.yul\":18754:18758   */\n      dup4\n        /* \"#utility.yul\":18735:18764   */\n      tag_348\n      jump\t// in\n    tag_563:\n        /* \"#utility.yul\":18727:18764   */\n      swap2\n      pop\n        /* \"#utility.yul\":18797:18800   */\n      dup3\n        /* \"#utility.yul\":18794:18795   */\n      0x02\n        /* \"#utility.yul\":18790:18801   */\n      mul\n        /* \"#utility.yul\":18784:18788   */\n      dup3\n        /* \"#utility.yul\":18781:18802   */\n      or\n        /* \"#utility.yul\":18773:18802   */\n      swap1\n      pop\n        /* \"#utility.yul\":18513:18808   */\n      swap3\n      swap2\n      pop\n      pop\n      jump\t// out\n        /* \"#utility.yul\":18813:20208   */\n    tag_119:\n        /* \"#utility.yul\":18930:18967   */\n      tag_565\n        /* \"#utility.yul\":18963:18966   */\n      dup3\n        /* \"#utility.yul\":18930:18967   */\n      tag_319\n      jump\t// in\n    tag_565:\n        /* \"#utility.yul\":19032:19050   */\n      0xffffffffffffffff\n        /* \"#utility.yul\":19024:19030   */\n      dup2\n        /* \"#utility.yul\":19021:19051   */\n      gt\n        /* \"#utility.yul\":19018:19074   */\n      iszero\n      tag_566\n      jumpi\n        /* \"#utility.yul\":19054:19072   */\n      tag_567\n      tag_304\n      jump\t// in\n    tag_567:\n        /* \"#utility.yul\":19018:19074   */\n    tag_566:\n        /* \"#utility.yul\":19098:19136   */\n      tag_568\n        /* \"#utility.yul\":19130:19134   */\n      dup3\n        /* \"#utility.yul\":19124:19135   */\n      sload\n        /* \"#utility.yul\":19098:19136   */\n      tag_152\n      jump\t// in\n    tag_568:\n        /* \"#utility.yul\":19183:19250   */\n      tag_569\n        /* \"#utility.yul\":19243:19249   */\n      dup3\n        /* \"#utility.yul\":19235:19241   */\n      dup3\n        /* \"#utility.yul\":19229:19233   */\n      dup6\n        /* \"#utility.yul\":19183:19250   */\n      tag_346\n      jump\t// in\n    tag_569:\n        /* \"#utility.yul\":19277:19278   */\n      0x00\n        /* \"#utility.yul\":19301:19305   */\n      0x20\n        /* \"#utility.yul\":19288:19305   */\n      swap1\n      pop\n        /* \"#utility.yul\":19333:19335   */\n      0x1f\n        /* \"#utility.yul\":19325:19331   */\n      dup4\n        /* \"#utility.yul\":19322:19336   */\n      gt\n        /* \"#utility.yul\":19350:19351   */\n      0x01\n        /* \"#utility.yul\":19345:19963   */\n      dup2\n      eq\n      tag_571\n      jumpi\n        /* \"#utility.yul\":20007:20008   */\n      0x00\n        /* \"#utility.yul\":20024:20030   */\n      dup5\n        /* \"#utility.yul\":20021:20098   */\n      iszero\n      tag_572\n      jumpi\n        /* \"#utility.yul\":20073:20082   */\n      dup3\n        /* \"#utility.yul\":20068:20071   */\n      dup8\n        /* \"#utility.yul\":20064:20083   */\n      add\n        /* \"#utility.yul\":20058:20084   */\n      mload\n        /* \"#utility.yul\":20049:20084   */\n      swap1\n      pop\n        /* \"#utility.yul\":20021:20098   */\n    tag_572:\n        /* \"#utility.yul\":20124:20191   */\n      tag_573\n        /* \"#utility.yul\":20184:20190   */\n      dup6\n        /* \"#utility.yul\":20177:20182   */\n      dup3\n        /* \"#utility.yul\":20124:20191   */\n      tag_349\n      jump\t// in\n    tag_573:\n        /* \"#utility.yul\":20118:20122   */\n      dup7\n        /* \"#utility.yul\":20111:20192   */\n      sstore\n        /* \"#utility.yul\":19980:20202   */\n      pop\n        /* \"#utility.yul\":19315:20202   */\n      jump(tag_570)\n        /* \"#utility.yul\":19345:19963   */\n    tag_571:\n        /* \"#utility.yul\":19397:19401   */\n      0x1f\n        /* \"#utility.yul\":19393:19402   */\n      not\n        /* \"#utility.yul\":19385:19391   */\n      dup5\n        /* \"#utility.yul\":19381:19403   */\n      and\n        /* \"#utility.yul\":19431:19468   */\n      tag_574\n        /* \"#utility.yul\":19463:19467   */\n      dup7\n        /* \"#utility.yul\":19431:19468   */\n      tag_335\n      jump\t// in\n    tag_574:\n        /* \"#utility.yul\":19490:19491   */\n      0x00\n        /* \"#utility.yul\":19504:19712   */\n    tag_575:\n        /* \"#utility.yul\":19518:19525   */\n      dup3\n        /* \"#utility.yul\":19515:19516   */\n      dup2\n        /* \"#utility.yul\":19512:19526   */\n      lt\n        /* \"#utility.yul\":19504:19712   */\n      iszero\n      tag_577\n      jumpi\n        /* \"#utility.yul\":19597:19606   */\n      dup5\n        /* \"#utility.yul\":19592:19595   */\n      dup10\n        /* \"#utility.yul\":19588:19607   */\n      add\n        /* \"#utility.yul\":19582:19608   */\n      mload\n        /* \"#utility.yul\":19574:19580   */\n      dup3\n        /* \"#utility.yul\":19567:19609   */\n      sstore\n        /* \"#utility.yul\":19648:19649   */\n      0x01\n        /* \"#utility.yul\":19640:19646   */\n      dup3\n        /* \"#utility.yul\":19636:19650   */\n      add\n        /* \"#utility.yul\":19626:19650   */\n      swap2\n      pop\n        /* \"#utility.yul\":19695:19697   */\n      0x20\n        /* \"#utility.yul\":19684:19693   */\n      dup6\n        /* \"#utility.yul\":19680:19698   */\n      add\n        /* \"#utility.yul\":19667:19698   */\n      swap5\n      pop\n        /* \"#utility.yul\":19541:19545   */\n      0x20\n        /* \"#utility.yul\":19538:19539   */\n      dup2\n        /* \"#utility.yul\":19534:19546   */\n      add\n        /* \"#utility.yul\":19529:19546   */\n      swap1\n      pop\n        /* \"#utility.yul\":19504:19712   */\n      jump(tag_575)\n    tag_577:\n        /* \"#utility.yul\":19740:19746   */\n      dup7\n        /* \"#utility.yul\":19731:19738   */\n      dup4\n        /* \"#utility.yul\":19728:19747   */\n      lt\n        /* \"#utility.yul\":19725:19904   */\n      iszero\n      tag_578\n      jumpi\n        /* \"#utility.yul\":19798:19807   */\n      dup5\n        /* \"#utility.yul\":19793:19796   */\n      dup10\n        /* \"#utility.yul\":19789:19808   */\n      add\n        /* \"#utility.yul\":19783:19809   */\n      mload\n        /* \"#utility.yul\":19841:19889   */\n      tag_579\n        /* \"#utility.yul\":19883:19887   */\n      0x1f\n        /* \"#utility.yul\":19875:19881   */\n      dup10\n        /* \"#utility.yul\":19871:19888   */\n      and\n        /* \"#utility.yul\":19860:19869   */\n      dup3\n        /* \"#utility.yul\":19841:19889   */\n      tag_348\n      jump\t// in\n    tag_579:\n        /* \"#utility.yul\":19833:19839   */\n      dup4\n        /* \"#utility.yul\":19826:19890   */\n      sstore\n        /* \"#utility.yul\":19748:19904   */\n      pop\n        /* \"#utility.yul\":19725:19904   */\n    tag_578:\n        /* \"#utility.yul\":19950:19951   */\n      0x01\n        /* \"#utility.yul\":19946:19947   */\n      0x02\n        /* \"#utility.yul\":19938:19944   */\n      dup9\n        /* \"#utility.yul\":19934:19948   */\n      mul\n        /* \"#utility.yul\":19930:19952   */\n      add\n        /* \"#utility.yul\":19924:19928   */\n      dup9\n        /* \"#utility.yul\":19917:19953   */\n      sstore\n        /* \"#utility.yul\":19352:19963   */\n      pop\n      pop\n      pop\n        /* \"#utility.yul\":19315:20202   */\n    tag_570:\n      pop\n        /* \"#utility.yul\":18905:20208   */\n      pop\n      pop\n      pop\n        /* \"#utility.yul\":18813:20208   */\n      pop\n      pop\n      jump\t// out\n        /* \"#utility.yul\":20238:20555   */\n    tag_350:\n        /* \"#utility.yul\":20336:20339   */\n      0x00\n        /* \"#utility.yul\":20357:20428   */\n      tag_581\n        /* \"#utility.yul\":20421:20427   */\n      dup4\n        /* \"#utility.yul\":20416:20419   */\n      dup6\n        /* \"#utility.yul\":20357:20428   */\n      tag_320\n      jump\t// in\n    tag_581:\n        /* \"#utility.yul\":20350:20428   */\n      swap4\n      pop\n        /* \"#utility.yul\":20438:20494   */\n      tag_582\n        /* \"#utility.yul\":20487:20493   */\n      dup4\n        /* \"#utility.yul\":20482:20485   */\n      dup6\n        /* \"#utility.yul\":20475:20480   */\n      dup5\n        /* \"#utility.yul\":20438:20494   */\n      tag_308\n      jump\t// in\n    tag_582:\n        /* \"#utility.yul\":20519:20548   */\n      tag_583\n        /* \"#utility.yul\":20541:20547   */\n      dup4\n        /* \"#utility.yul\":20519:20548   */\n      tag_303\n      jump\t// in\n    tag_583:\n        /* \"#utility.yul\":20514:20517   */\n      dup5\n        /* \"#utility.yul\":20510:20549   */\n      add\n        /* \"#utility.yul\":20503:20549   */\n      swap1\n      pop\n        /* \"#utility.yul\":20238:20555   */\n      swap4\n      swap3\n      pop\n      pop\n      pop\n      jump\t// out\n        /* \"#utility.yul\":20561:21004   */\n    tag_121:\n        /* \"#utility.yul\":20712:20716   */\n      0x00\n        /* \"#utility.yul\":20750:20752   */\n      0x40\n        /* \"#utility.yul\":20739:20748   */\n      dup3\n        /* \"#utility.yul\":20735:20753   */\n      add\n        /* \"#utility.yul\":20727:20753   */\n      swap1\n      pop\n        /* \"#utility.yul\":20799:20808   */\n      dup2\n        /* \"#utility.yul\":20793:20797   */\n      dup2\n        /* \"#utility.yul\":20789:20809   */\n      sub\n        /* \"#utility.yul\":20785:20786   */\n      0x00\n        /* \"#utility.yul\":20774:20783   */\n      dup4\n        /* \"#utility.yul\":20770:20787   */\n      add\n        /* \"#utility.yul\":20763:20810   */\n      mstore\n        /* \"#utility.yul\":20827:20915   */\n      tag_585\n        /* \"#utility.yul\":20910:20914   */\n      dup2\n        /* \"#utility.yul\":20901:20907   */\n      dup6\n        /* \"#utility.yul\":20893:20899   */\n      dup8\n        /* \"#utility.yul\":20827:20915   */\n      tag_350\n      jump\t// in\n    tag_585:\n        /* \"#utility.yul\":20819:20915   */\n      swap1\n      pop\n        /* \"#utility.yul\":20925:20997   */\n      tag_586\n        /* \"#utility.yul\":20993:20995   */\n      0x20\n        /* \"#utility.yul\":20982:20991   */\n      dup4\n        /* \"#utility.yul\":20978:20996   */\n      add\n        /* \"#utility.yul\":20969:20975   */\n      dup5\n        /* \"#utility.yul\":20925:20997   */\n      tag_300\n      jump\t// in\n    tag_586:\n        /* \"#utility.yul\":20561:21004   */\n      swap5\n      swap4\n      pop\n      pop\n      pop\n      pop\n      jump\t// out\n        /* \"#utility.yul\":21010:21190   */\n    tag_351:\n        /* \"#utility.yul\":21058:21135   */\n      0x4e487b7100000000000000000000000000000000000000000000000000000000\n        /* \"#utility.yul\":21055:21056   */\n      0x00\n        /* \"#utility.yul\":21048:21136   */\n      mstore\n        /* \"#utility.yul\":21155:21159   */\n      0x11\n        /* \"#utility.yul\":21152:21153   */\n      0x04\n        /* \"#utility.yul\":21145:21160   */\n      mstore\n        /* \"#utility.yul\":21179:21183   */\n      0x24\n        /* \"#utility.yul\":21176:21177   */\n      0x00\n        /* \"#utility.yul\":21169:21184   */\n      revert\n        /* \"#utility.yul\":21196:21429   */\n    tag_123:\n        /* \"#utility.yul\":21235:21238   */\n      0x00\n        /* \"#utility.yul\":21258:21282   */\n      tag_589\n        /* \"#utility.yul\":21276:21281   */\n      dup3\n        /* \"#utility.yul\":21258:21282   */\n      tag_299\n      jump\t// in\n    tag_589:\n        /* \"#utility.yul\":21249:21282   */\n      swap2\n      pop\n        /* \"#utility.yul\":21304:21370   */\n      0xffffffffffffffffffffffffffffffffffffffffffffffffffffffffffffffff\n        /* \"#utility.yul\":21297:21302   */\n      dup3\n        /* \"#utility.yul\":21294:21371   */\n      sub\n        /* \"#utility.yul\":21291:21394   */\n      tag_590\n      jumpi\n        /* \"#utility.yul\":21374:21392   */\n      tag_591\n      tag_351\n      jump\t// in\n    tag_591:\n        /* \"#utility.yul\":21291:21394   */\n    tag_590:\n        /* \"#utility.yul\":21421:21422   */\n      0x01\n        /* \"#utility.yul\":21414:21419   */\n      dup3\n        /* \"#utility.yul\":21410:21423   */\n      add\n        /* \"#utility.yul\":21403:21423   */\n      swap1\n      pop\n        /* \"#utility.yul\":21196:21429   */\n      swap2\n      swap1\n      pop\n      jump\t// out\n        /* \"#utility.yul\":21435:21520   */\n    tag_352:\n        /* \"#utility.yul\":21480:21487   */\n      0x00\n        /* \"#utility.yul\":21509:21514   */\n      dup2\n        /* \"#utility.yul\":21498:21514   */\n      swap1\n      pop\n        /* \"#utility.yul\":21435:21520   */\n      swap2\n      swap1\n      pop\n      jump\t// out\n        /* \"#utility.yul\":21526:21627   */\n    tag_353:\n        /* \"#utility.yul\":21562:21569   */\n      0x00\n        /* \"#utility.yul\":21602:21620   */\n      0xffffffffffffffff\n        /* \"#utility.yul\":21595:21600   */\n      dup3\n        /* \"#utility.yul\":21591:21621   */\n      and\n        /* \"#utility.yul\":21580:21621   */\n      swap1\n      pop\n        /* \"#utility.yul\":21526:21627   */\n      swap2\n      swap1\n      pop\n      jump\t// out\n        /* \"#utility.yul\":21633:21789   */\n    tag_354:\n        /* \"#utility.yul\":21690:21699   */\n      0x00\n        /* \"#utility.yul\":21723:21783   */\n      tag_595\n        /* \"#utility.yul\":21740:21782   */\n      tag_596\n        /* \"#utility.yul\":21749:21781   */\n      tag_597\n        /* \"#utility.yul\":21775:21780   */\n      dup5\n        /* \"#utility.yul\":21749:21781   */\n      tag_352\n      jump\t// in\n    tag_597:\n        /* \"#utility.yul\":21740:21782   */\n      tag_339\n      jump\t// in\n    tag_596:\n        /* \"#utility.yul\":21723:21783   */\n      tag_353\n      jump\t// in\n    tag_595:\n        /* \"#utility.yul\":21710:21783   */\n      swap1\n      pop\n        /* \"#utility.yul\":21633:21789   */\n      swap2\n      swap1\n      pop\n      jump\t// out\n        /* \"#utility.yul\":21795:21940   */\n    tag_355:\n        /* \"#utility.yul\":21889:21933   */\n      tag_599\n        /* \"#utility.yul\":21927:21932   */\n      dup2\n        /* \"#utility.yul\":21889:21933   */\n      tag_354\n      jump\t// in\n    tag_599:\n        /* \"#utility.yul\":21884:21887   */\n      dup3\n        /* \"#utility.yul\":21877:21934   */\n      mstore\n        /* \"#utility.yul\":21795:21940   */\n      pop\n      pop\n      jump\t// out\n        /* \"#utility.yul\":21946:22182   */\n    tag_150:\n        /* \"#utility.yul\":22046:22050   */\n      0x00\n        /* \"#utility.yul\":22084:22086   */\n      0x20\n        /* \"#utility.yul\":22073:22082   */\n      dup3\n        /* \"#utility.yul\":22069:22087   */\n      add\n        /* \"#utility.yul\":22061:22087   */\n      swap1\n      pop\n        /* \"#utility.yul\":22097:22175   */\n      tag_601\n        /* \"#utility.yul\":22172:22173   */\n      0x00\n        /* \"#utility.yul\":22161:22170   */\n      dup4\n        /* \"#utility.yul\":22157:22174   */\n      add\n        /* \"#utility.yul\":22148:22154   */\n      dup5\n        /* \"#utility.yul\":22097:22175   */\n      tag_355\n      jump\t// in\n    tag_601:\n        /* \"#utility.yul\":21946:22182   */\n      swap3\n      swap2\n      pop\n      pop\n      jump\t// out\n        /* \"#utility.yul\":22188:22364   */\n    tag_356:\n        /* \"#utility.yul\":22328:22356   */\n      0x416374696f6e207479706520616c726561647920657869737473000000000000\n        /* \"#utility.yul\":22324:22325   */\n      0x00\n        /* \"#utility.yul\":22316:22322   */\n      dup3\n        /* \"#utility.yul\":22312:22326   */\n      add\n        /* \"#utility.yul\":22305:22357   */\n      mstore\n        /* \"#utility.yul\":22188:22364   */\n      pop\n      jump\t// out\n        /* \"#utility.yul\":22370:22736   */\n    tag_357:\n        /* \"#utility.yul\":22512:22515   */\n      0x00\n        /* \"#utility.yul\":22533:22600   */\n      tag_604\n        /* \"#utility.yul\":22597:22599   */\n      0x1a\n        /* \"#utility.yul\":22592:22595   */\n      dup4\n        /* \"#utility.yul\":22533:22600   */\n      tag_320\n      jump\t// in\n    tag_604:\n        /* \"#utility.yul\":22526:22600   */\n      swap2\n      pop\n        /* \"#utility.yul\":22609:22702   */\n      tag_605\n        /* \"#utility.yul\":22698:22701   */\n      dup3\n        /* \"#utility.yul\":22609:22702   */\n      tag_356\n      jump\t// in\n    tag_605:\n        /* \"#utility.yul\":22727:22729   */\n      0x20\n        /* \"#utility.yul\":22722:22725   */\n      dup3\n        /* \"#utility.yul\":22718:22730   */\n      add\n        /* \"#utility.yul\":22711:22730   */\n      swap1\n      pop\n        /* \"#utility.yul\":22370:22736   */\n      swap2\n      swap1\n      pop\n      jump\t// out\n        /* \"#utility.yul\":22742:23161   */\n    tag_166:\n        /* \"#utility.yul\":22908:22912   */\n      0x00\n        /* \"#utility.yul\":22946:22948   */\n      0x20\n        /* \"#utility.yul\":22935:22944   */\n      dup3\n        /* \"#utility.yul\":22931:22949   */\n      add\n        /* \"#utility.yul\":22923:22949   */\n      swap1\n      pop\n        /* \"#utility.yul\":22995:23004   */\n      dup2\n        /* \"#utility.yul\":22989:22993   */\n      dup2\n        /* \"#utility.yul\":22985:23005   */\n      sub\n        /* \"#utility.yul\":22981:22982   */\n      0x00\n        /* \"#utility.yul\":22970:22979   */\n      dup4\n        /* \"#utility.yul\":22966:22983   */\n      add\n        /* \"#utility.yul\":22959:23006   */\n      mstore\n        /* \"#utility.yul\":23023:23154   */\n      tag_607\n        /* \"#utility.yul\":23149:23153   */\n      dup2\n        /* \"#utility.yul\":23023:23154   */\n      tag_357\n      jump\t// in\n    tag_607:\n        /* \"#utility.yul\":23015:23154   */\n      swap1\n      pop\n        /* \"#utility.yul\":22742:23161   */\n      swap2\n      swap1\n      pop\n      jump\t// out\n        /* \"#utility.yul\":23167:23500   */\n    tag_169:\n        /* \"#utility.yul\":23290:23294   */\n      0x00\n        /* \"#utility.yul\":23328:23330   */\n      0x20\n        /* \"#utility.yul\":23317:23326   */\n      dup3\n        /* \"#utility.yul\":23313:23331   */\n      add\n        /* \"#utility.yul\":23305:23331   */\n      swap1\n      pop\n        /* \"#utility.yul\":23377:23386   */\n      dup2\n        /* \"#utility.yul\":23371:23375   */\n      dup2\n        /* \"#utility.yul\":23367:23387   */\n      sub\n        /* \"#utility.yul\":23363:23364   */\n      0x00\n        /* \"#utility.yul\":23352:23361   */\n      dup4\n        /* \"#utility.yul\":23348:23365   */\n      add\n        /* \"#utility.yul\":23341:23388   */\n      mstore\n        /* \"#utility.yul\":23405:23493   */\n      tag_609\n        /* \"#utility.yul\":23488:23492   */\n      dup2\n        /* \"#utility.yul\":23479:23485   */\n      dup5\n        /* \"#utility.yul\":23471:23477   */\n      dup7\n        /* \"#utility.yul\":23405:23493   */\n      tag_350\n      jump\t// in\n    tag_609:\n        /* \"#utility.yul\":23397:23493   */\n      swap1\n      pop\n        /* \"#utility.yul\":23167:23500   */\n      swap4\n      swap3\n      pop\n      pop\n      pop\n      jump\t// out\n        /* \"#utility.yul\":23506:23628   */\n    tag_358:\n        /* \"#utility.yul\":23579:23603   */\n      tag_611\n        /* \"#utility.yul\":23597:23602   */\n      dup2\n        /* \"#utility.yul\":23579:23603   */\n      tag_311\n      jump\t// in\n    tag_611:\n        /* \"#utility.yul\":23572:23577   */\n      dup2\n        /* \"#utility.yul\":23569:23604   */\n      eq\n        /* \"#utility.yul\":23559:23622   */\n      tag_612\n      jumpi\n        /* \"#utility.yul\":23618:23619   */\n      0x00\n        /* \"#utility.yul\":23615:23616   */\n      dup1\n        /* \"#utility.yul\":23608:23620   */\n      revert\n        /* \"#utility.yul\":23559:23622   */\n    tag_612:\n        /* \"#utility.yul\":23506:23628   */\n      pop\n      jump\t// out\n        /* \"#utility.yul\":23634:23777   */\n    tag_359:\n        /* \"#utility.yul\":23691:23696   */\n      0x00\n        /* \"#utility.yul\":23722:23728   */\n      dup2\n        /* \"#utility.yul\":23716:23729   */\n      mload\n        /* \"#utility.yul\":23707:23729   */\n      swap1\n      pop\n        /* \"#utility.yul\":23738:23771   */\n      tag_614\n        /* \"#utility.yul\":23765:23770   */\n      dup2\n        /* \"#utility.yul\":23738:23771   */\n      tag_358\n      jump\t// in\n    tag_614:\n        /* \"#utility.yul\":23634:23777   */\n      swap3\n      swap2\n      pop\n      pop\n      jump\t// out\n        /* \"#utility.yul\":23783:24134   */\n    tag_194:\n        /* \"#utility.yul\":23853:23859   */\n      0x00\n        /* \"#utility.yul\":23902:23904   */\n      0x20\n        /* \"#utility.yul\":23890:23899   */\n      dup3\n        /* \"#utility.yul\":23881:23888   */\n      dup5\n        /* \"#utility.yul\":23877:23900   */\n      sub\n        /* \"#utility.yul\":23873:23905   */\n      slt\n        /* \"#utility.yul\":23870:23989   */\n      iszero\n      tag_616\n      jumpi\n        /* \"#utility.yul\":23908:23987   */\n      tag_617\n      tag_291\n      jump\t// in\n    tag_617:\n        /* \"#utility.yul\":23870:23989   */\n    tag_616:\n        /* \"#utility.yul\":24028:24029   */\n      0x00\n        /* \"#utility.yul\":24053:24117   */\n      tag_618\n        /* \"#utility.yul\":24109:24116   */\n      dup5\n        /* \"#utility.yul\":24100:24106   */\n      dup3\n        /* \"#utility.yul\":24089:24098   */\n      dup6\n        /* \"#utility.yul\":24085:24107   */\n      add\n        /* \"#utility.yul\":24053:24117   */\n      tag_359\n      jump\t// in\n    tag_618:\n        /* \"#utility.yul\":24043:24117   */\n      swap2\n      pop\n        /* \"#utility.yul\":23999:24127   */\n      pop\n        /* \"#utility.yul\":23783:24134   */\n      swap3\n      swap2\n      pop\n      pop\n      jump\t// out\n        /* \"#utility.yul\":24140:24321   */\n    tag_360:\n        /* \"#utility.yul\":24280:24313   */\n      0x5265656e7472616e637947756172643a207265656e7472616e742063616c6c00\n        /* \"#utility.yul\":24276:24277   */\n      0x00\n        /* \"#utility.yul\":24268:24274   */\n      dup3\n        /* \"#utility.yul\":24264:24278   */\n      add\n        /* \"#utility.yul\":24257:24314   */\n      mstore\n        /* \"#utility.yul\":24140:24321   */\n      pop\n      jump\t// out\n        /* \"#utility.yul\":24327:24693   */\n    tag_361:\n        /* \"#utility.yul\":24469:24472   */\n      0x00\n        /* \"#utility.yul\":24490:24557   */\n      tag_621\n        /* \"#utility.yul\":24554:24556   */\n      0x1f\n        /* \"#utility.yul\":24549:24552   */\n      dup4\n        /* \"#utility.yul\":24490:24557   */\n      tag_320\n      jump\t// in\n    tag_621:\n        /* \"#utility.yul\":24483:24557   */\n      swap2\n      pop\n        /* \"#utility.yul\":24566:24659   */\n      tag_622\n        /* \"#utility.yul\":24655:24658   */\n      dup3\n        /* \"#utility.yul\":24566:24659   */\n      tag_360\n      jump\t// in\n    tag_622:\n        /* \"#utility.yul\":24684:24686   */\n      0x20\n        /* \"#utility.yul\":24679:24682   */\n      dup3\n        /* \"#utility.yul\":24675:24687   */\n      add\n        /* \"#utility.yul\":24668:24687   */\n      swap1\n      pop\n        /* \"#utility.yul\":24327:24693   */\n      swap2\n      swap1\n      pop\n      jump\t// out\n        /* \"#utility.yul\":24699:25118   */\n    tag_210:\n        /* \"#utility.yul\":24865:24869   */\n      0x00\n        /* \"#utility.yul\":24903:24905   */\n      0x20\n        /* \"#utility.yul\":24892:24901   */\n      dup3\n        /* \"#utility.yul\":24888:24906   */\n      add\n        /* \"#utility.yul\":24880:24906   */\n      swap1\n      pop\n        /* \"#utility.yul\":24952:24961   */\n      dup2\n        /* \"#utility.yul\":24946:24950   */\n      dup2\n        /* \"#utility.yul\":24942:24962   */\n      sub\n        /* \"#utility.yul\":24938:24939   */\n      0x00\n        /* \"#utility.yul\":24927:24936   */\n      dup4\n        /* \"#utility.yul\":24923:24940   */\n      add\n        /* \"#utility.yul\":24916:24963   */\n      mstore\n        /* \"#utility.yul\":24980:25111   */\n      tag_624\n        /* \"#utility.yul\":25106:25110   */\n      dup2\n        /* \"#utility.yul\":24980:25111   */\n      tag_361\n      jump\t// in\n    tag_624:\n        /* \"#utility.yul\":24972:25111   */\n      swap1\n      pop\n        /* \"#utility.yul\":24699:25118   */\n      swap2\n      swap1\n      pop\n      jump\t// out\n        /* \"#utility.yul\":25124:25222   */\n    tag_362:\n        /* \"#utility.yul\":25175:25181   */\n      0x00\n        /* \"#utility.yul\":25209:25214   */\n      dup2\n        /* \"#utility.yul\":25203:25215   */\n      mload\n        /* \"#utility.yul\":25193:25215   */\n      swap1\n      pop\n        /* \"#utility.yul\":25124:25222   */\n      swap2\n      swap1\n      pop\n      jump\t// out\n        /* \"#utility.yul\":25228:25375   */\n    tag_363:\n        /* \"#utility.yul\":25329:25340   */\n      0x00\n        /* \"#utility.yul\":25366:25369   */\n      dup2\n        /* \"#utility.yul\":25351:25369   */\n      swap1\n      pop\n        /* \"#utility.yul\":25228:25375   */\n      swap3\n      swap2\n      pop\n      pop\n      jump\t// out\n        /* \"#utility.yul\":25381:25767   */\n    tag_364:\n        /* \"#utility.yul\":25485:25488   */\n      0x00\n        /* \"#utility.yul\":25513:25551   */\n      tag_628\n        /* \"#utility.yul\":25545:25550   */\n      dup3\n        /* \"#utility.yul\":25513:25551   */\n      tag_362\n      jump\t// in\n    tag_628:\n        /* \"#utility.yul\":25567:25655   */\n      tag_629\n        /* \"#utility.yul\":25648:25654   */\n      dup2\n        /* \"#utility.yul\":25643:25646   */\n      dup6\n        /* \"#utility.yul\":25567:25655   */\n      tag_363\n      jump\t// in\n    tag_629:\n        /* \"#utility.yul\":25560:25655   */\n      swap4\n      pop\n        /* \"#utility.yul\":25664:25729   */\n      tag_630\n        /* \"#utility.yul\":25722:25728   */\n      dup2\n        /* \"#utility.yul\":25717:25720   */\n      dup6\n        /* \"#utility.yul\":25710:25714   */\n      0x20\n        /* \"#utility.yul\":25703:25708   */\n      dup7\n        /* \"#utility.yul\":25699:25715   */\n      add\n        /* \"#utility.yul\":25664:25729   */\n      tag_321\n      jump\t// in\n    tag_630:\n        /* \"#utility.yul\":25754:25760   */\n      dup1\n        /* \"#utility.yul\":25749:25752   */\n      dup5\n        /* \"#utility.yul\":25745:25761   */\n      add\n        /* \"#utility.yul\":25738:25761   */\n      swap2\n      pop\n        /* \"#utility.yul\":25489:25767   */\n      pop\n        /* \"#utility.yul\":25381:25767   */\n      swap3\n      swap2\n      pop\n      pop\n      jump\t// out\n        /* \"#utility.yul\":25773:26044   */\n    tag_269:\n        /* \"#utility.yul\":25903:25906   */\n      0x00\n        /* \"#utility.yul\":25925:26018   */\n      tag_632\n        /* \"#utility.yul\":26014:26017   */\n      dup3\n        /* \"#utility.yul\":26005:26011   */\n      dup5\n        /* \"#utility.yul\":25925:26018   */\n      tag_364\n      jump\t// in\n    tag_632:\n        /* \"#utility.yul\":25918:26018   */\n      swap2\n      pop\n        /* \"#utility.yul\":26035:26038   */\n      dup2\n        /* \"#utility.yul\":26028:26038   */\n      swap1\n      pop\n        /* \"#utility.yul\":25773:26044   */\n      swap3\n      swap2\n      pop\n      pop\n      jump\t// out\n\n    auxdata: 0xa2646970667358221220cbad976f296449ea965832d14182d2ad8e089026badef47d736a9d4a8d5e90ad64736f6c634300081a0033\n}\n",
				"bytecode": {
					"linkReferences": {},
					"object": "60a06040523073ffffffffffffffffffffffffffffffffffffffff1660809073ffffffffffffffffffffffffffffffffffffffff168152503480156041575f80fd5b506080516121e46100685f395f8181610c3e01528181610c930152610e4d01526121e45ff3fe6080604052600436106100dc575f3560e01c80638129fc1c1161007e5780639fea7aae116100585780639fea7aae14610270578063ad3cb1cc14610298578063d7a88d17146102c2578063f2fde38b146102fe576100dc565b80638129fc1c146101f257806383240f83146102085780638da5cb5b14610246576100dc565b80634f1ef286116100ba5780634f1ef2861461016e57806352d1902d1461018a578063578b8cf5146101b4578063715018a6146101dc576100dc565b80630e50cee5146100e05780632199d5cd1461011c57806329da573814610144575b5f80fd5b3480156100eb575f80fd5b5061010660048036038101906101019190611518565b610326565b604051610113919061155d565b60405180910390f35b348015610127575f80fd5b50610142600480360381019061013d9190611518565b610343565b005b34801561014f575f80fd5b50610158610470565b604051610165919061158e565b60405180910390f35b610188600480360381019061018391906116e3565b610476565b005b348015610195575f80fd5b5061019e610495565b6040516101ab9190611755565b60405180910390f35b3480156101bf575f80fd5b506101da60048036038101906101d591906117cb565b6104c6565b005b3480156101e7575f80fd5b506101f0610727565b005b3480156101fd575f80fd5b5061020661073a565b005b348015610213575f80fd5b5061022e60048036038101906102299190611852565b6108d9565b60405161023d939291906118ec565b60405180910390f35b348015610251575f80fd5b5061025a6109a4565b6040516102679190611928565b60405180910390f35b34801561027b575f80fd5b5061029660048036038101906102919190611941565b6109d9565b005b3480156102a3575f80fd5b506102ac610ac3565b6040516102b9919061198c565b60405180910390f35b3480156102cd575f80fd5b506102e860048036038101906102e39190611a4a565b610afc565b6040516102f5919061155d565b60405180910390f35b348015610309575f80fd5b50610324600480360381019061031f9190611518565b610b31565b005b6035602052805f5260405f205f915054906101000a900460ff1681565b61034b610bb5565b60355f8273ffffffffffffffffffffffffffffffffffffffff1673ffffffffffffffffffffffffffffffffffffffff1681526020019081526020015f205f9054906101000a900460ff16156103d5576040517f08c379a00000000000000000000000000000000000000000000000000000000081526004016103cc90611adb565b60405180910390fd5b600160355f8373ffffffffffffffffffffffffffffffffffffffff1673ffffffffffffffffffffffffffffffffffffffff1681526020019081526020015f205f6101000a81548160ff0219169083151502179055508073ffffffffffffffffffffffffffffffffffffffff167f54db7a5cb4735e1aac1f53db512d3390390bb6637bd30ad4bf9fc98667d9b9b960405160405180910390a250565b60335481565b61047e610c3c565b61048782610d22565b6104918282610d2d565b5050565b5f61049e610e4b565b7f360894a13ba1a3210667c828492db98dca3e2076cc3735a920a3ca505d382bbc5f1b905090565b6104ce610ed2565b60355f8473ffffffffffffffffffffffffffffffffffffffff1673ffffffffffffffffffffffffffffffffffffffff1681526020019081526020015f205f9054906101000a900460ff16610557576040517f08c379a000000000000000000000000000000000000000000000000000000000815260040161054e90611b43565b60405180910390fd5b60348282604051610569929190611b8f565b90815260200160405180910390205f9054906101000a900460ff166105c3576040517f08c379a00000000000000000000000000000000000000000000000000000000081526004016105ba90611bf1565b60405180910390fd5b60405180606001604052808473ffffffffffffffffffffffffffffffffffffffff16815260200183838080601f0160208091040260200160405190810160405280939291908181526020018383808284375f81840152601f19601f8201169050808301925050505050505081526020014281525060325f60335481526020019081526020015f205f820151815f015f6101000a81548173ffffffffffffffffffffffffffffffffffffffff021916908373ffffffffffffffffffffffffffffffffffffffff16021790555060208201518160010190816106a39190611e09565b50604082015181600201559050508273ffffffffffffffffffffffffffffffffffffffff167f533f0a86420848556053acb6d591f6533cd0f33a263fff71497f9b2842ee6a728383426040516106fb93929190611f04565b60405180910390a260335f81548092919061071590611f61565b9190505550610722610f1f565b505050565b61072f610bb5565b6107385f610f28565b565b5f610743610ff9565b90505f815f0160089054906101000a900460ff161590505f825f015f9054906101000a900467ffffffffffffffff1690505f808267ffffffffffffffff1614801561078b5750825b90505f60018367ffffffffffffffff161480156107be57505f3073ffffffffffffffffffffffffffffffffffffffff163b145b9050811580156107cc575080155b15610803576040517ff92ee8a900000000000000000000000000000000000000000000000000000000815260040160405180910390fd5b6001855f015f6101000a81548167ffffffffffffffff021916908367ffffffffffffffff1602179055508315610850576001855f0160086101000a81548160ff0219169083151502179055505b61085933611020565b610861611034565b61086961103e565b610871611048565b5f60338190555083156108d2575f855f0160086101000a81548160ff0219169083151502179055507fc7f505b2f371ae2175ee4913f4499e1f2633a7b5936321eed1cdaeb6115181d260016040516108c99190611ff4565b60405180910390a15b5050505050565b6032602052805f5260405f205f91509050805f015f9054906101000a900473ffffffffffffffffffffffffffffffffffffffff169080600101805461091d90611c3c565b80601f016020809104026020016040519081016040528092919081815260200182805461094990611c3c565b80156109945780601f1061096b57610100808354040283529160200191610994565b820191905f5260205f20905b81548152906001019060200180831161097757829003601f168201915b5050505050908060020154905083565b5f806109ae61105a565b9050805f015f9054906101000a900473ffffffffffffffffffffffffffffffffffffffff1691505090565b6109e1610bb5565b603482826040516109f3929190611b8f565b90815260200160405180910390205f9054906101000a900460ff1615610a4e576040517f08c379a0000000000000000000000000000000000000000000000000000000008152600401610a4590612057565b60405180910390fd5b600160348383604051610a62929190611b8f565b90815260200160405180910390205f6101000a81548160ff0219169083151502179055507fd87f5fb4a18fdf6f8930e7dc0b120b68ee3677d2b64526ae81d70aa82882a7538282604051610ab7929190612075565b60405180910390a15050565b6040518060400160405280600581526020017f352e302e3000000000000000000000000000000000000000000000000000000081525081565b6034818051602081018201805184825260208301602085012081835280955050505050505f915054906101000a900460ff1681565b610b39610bb5565b5f73ffffffffffffffffffffffffffffffffffffffff168173ffffffffffffffffffffffffffffffffffffffff1603610ba9575f6040517f1e4fbdf7000000000000000000000000000000000000000000000000000000008152600401610ba09190611928565b60405180910390fd5b610bb281610f28565b50565b610bbd611081565b73ffffffffffffffffffffffffffffffffffffffff16610bdb6109a4565b73ffffffffffffffffffffffffffffffffffffffff1614610c3a57610bfe611081565b6040517f118cdaa7000000000000000000000000000000000000000000000000000000008152600401610c319190611928565b60405180910390fd5b565b7f000000000000000000000000000000000000000000000000000000000000000073ffffffffffffffffffffffffffffffffffffffff163073ffffffffffffffffffffffffffffffffffffffff161480610ce957507f000000000000000000000000000000000000000000000000000000000000000073ffffffffffffffffffffffffffffffffffffffff16610cd061108f565b73ffffffffffffffffffffffffffffffffffffffff1614155b15610d20576040517fe07c8dba00000000000000000000000000000000000000000000000000000000815260040160405180910390fd5b565b610d2a610bb5565b50565b8173ffffffffffffffffffffffffffffffffffffffff166352d1902d6040518163ffffffff1660e01b8152600401602060405180830381865afa925050508015610d9557506040513d601f19601f82011682018060405250810190610d9291906120c1565b60015b610dd657816040517f4c9c8ce3000000000000000000000000000000000000000000000000000000008152600401610dcd9190611928565b60405180910390fd5b7f360894a13ba1a3210667c828492db98dca3e2076cc3735a920a3ca505d382bbc5f1b8114610e3c57806040517faa1d49a4000000000000000000000000000000000000000000000000000000008152600401610e339190611755565b60405180910390fd5b610e4683836110e2565b505050565b7f000000000000000000000000000000000000000000000000000000000000000073ffffffffffffffffffffffffffffffffffffffff163073ffffffffffffffffffffffffffffffffffffffff1614610ed0576040517fe07c8dba00000000000000000000000000000000000000000000000000000000815260040160405180910390fd5b565b60025f5403610f16576040517f08c379a0000000000000000000000000000000000000000000000000000000008152600401610f0d90612136565b60405180910390fd5b60025f81905550565b60015f81905550565b5f610f3161105a565b90505f815f015f9054906101000a900473ffffffffffffffffffffffffffffffffffffffff16905082825f015f6101000a81548173ffffffffffffffffffffffffffffffffffffffff021916908373ffffffffffffffffffffffffffffffffffffffff1602179055508273ffffffffffffffffffffffffffffffffffffffff168173ffffffffffffffffffffffffffffffffffffffff167f8be0079c531659141344cd1fd0a4f28419497f9722a3daafe3b4186f6b6457e060405160405180910390a3505050565b5f7ff0c57e16840df040f15088dc2f81fe391c3923bec73e23a9662efc9c229c6a00905090565b611028611154565b61103181611194565b50565b61103c611154565b565b611046611154565b565b611050611154565b611058611218565b565b5f7f9016d09d72d40fdae2fd8ceac6b6234c7706214fd39c1cd1e609a0528c199300905090565b5f61108a611229565b905090565b5f6110bb7f360894a13ba1a3210667c828492db98dca3e2076cc3735a920a3ca505d382bbc5f1b611230565b5f015f9054906101000a900473ffffffffffffffffffffffffffffffffffffffff16905090565b6110eb82611239565b8173ffffffffffffffffffffffffffffffffffffffff167fbc7cd75a20ee27fd9adebab32041f755214dbc6bffa90cc0225b39da2e5c2d3b60405160405180910390a25f81511115611147576111418282611302565b50611150565b61114f611382565b5b5050565b61115c6113be565b611192576040517fd7e6bcf800000000000000000000000000000000000000000000000000000000815260040160405180910390fd5b565b61119c611154565b5f73ffffffffffffffffffffffffffffffffffffffff168173ffffffffffffffffffffffffffffffffffffffff160361120c575f6040517f1e4fbdf70000000000000000000000000000000000000000000000000000000081526004016112039190611928565b60405180910390fd5b61121581610f28565b50565b611220611154565b60015f81905550565b5f33905090565b5f819050919050565b5f8173ffffffffffffffffffffffffffffffffffffffff163b0361129457806040517f4c9c8ce300000000000000000000000000000000000000000000000000000000815260040161128b9190611928565b60405180910390fd5b806112c07f360894a13ba1a3210667c828492db98dca3e2076cc3735a920a3ca505d382bbc5f1b611230565b5f015f6101000a81548173ffffffffffffffffffffffffffffffffffffffff021916908373ffffffffffffffffffffffffffffffffffffffff16021790555050565b60605f808473ffffffffffffffffffffffffffffffffffffffff168460405161132b9190612198565b5f60405180830381855af49150503d805f8114611363576040519150601f19603f3d011682016040523d82523d5f602084013e611368565b606091505b50915091506113788583836113dc565b9250505092915050565b5f3411156113bc576040517fb398979f00000000000000000000000000000000000000000000000000000000815260040160405180910390fd5b565b5f6113c7610ff9565b5f0160089054906101000a900460ff16905090565b6060826113f1576113ec82611469565b611461565b5f825114801561141757505f8473ffffffffffffffffffffffffffffffffffffffff163b145b1561145957836040517f9996b3150000000000000000000000000000000000000000000000000000000081526004016114509190611928565b60405180910390fd5b819050611462565b5b9392505050565b5f8151111561147b5780518082602001fd5b6040517fd6bda27500000000000000000000000000000000000000000000000000000000815260040160405180910390fd5b5f604051905090565b5f80fd5b5f80fd5b5f73ffffffffffffffffffffffffffffffffffffffff82169050919050565b5f6114e7826114be565b9050919050565b6114f7816114dd565b8114611501575f80fd5b50565b5f81359050611512816114ee565b92915050565b5f6020828403121561152d5761152c6114b6565b5b5f61153a84828501611504565b91505092915050565b5f8115159050919050565b61155781611543565b82525050565b5f6020820190506115705f83018461154e565b92915050565b5f819050919050565b61158881611576565b82525050565b5f6020820190506115a15f83018461157f565b92915050565b5f80fd5b5f80fd5b5f601f19601f8301169050919050565b7f4e487b71000000000000000000000000000000000000000000000000000000005f52604160045260245ffd5b6115f5826115af565b810181811067ffffffffffffffff82111715611614576116136115bf565b5b80604052505050565b5f6116266114ad565b905061163282826115ec565b919050565b5f67ffffffffffffffff821115611651576116506115bf565b5b61165a826115af565b9050602081019050919050565b828183375f83830152505050565b5f61168761168284611637565b61161d565b9050828152602081018484840111156116a3576116a26115ab565b5b6116ae848285611667565b509392505050565b5f82601f8301126116ca576116c96115a7565b5b81356116da848260208601611675565b91505092915050565b5f80604083850312156116f9576116f86114b6565b5b5f61170685828601611504565b925050602083013567ffffffffffffffff811115611727576117266114ba565b5b611733858286016116b6565b9150509250929050565b5f819050919050565b61174f8161173d565b82525050565b5f6020820190506117685f830184611746565b92915050565b5f80fd5b5f80fd5b5f8083601f84011261178b5761178a6115a7565b5b8235905067ffffffffffffffff8111156117a8576117a761176e565b5b6020830191508360018202830111156117c4576117c3611772565b5b9250929050565b5f805f604084860312156117e2576117e16114b6565b5b5f6117ef86828701611504565b935050602084013567ffffffffffffffff8111156118105761180f6114ba565b5b61181c86828701611776565b92509250509250925092565b61183181611576565b811461183b575f80fd5b50565b5f8135905061184c81611828565b92915050565b5f60208284031215611867576118666114b6565b5b5f6118748482850161183e565b91505092915050565b611886816114dd565b82525050565b5f81519050919050565b5f82825260208201905092915050565b8281835e5f83830152505050565b5f6118be8261188c565b6118c88185611896565b93506118d88185602086016118a6565b6118e1816115af565b840191505092915050565b5f6060820190506118ff5f83018661187d565b818103602083015261191181856118b4565b9050611920604083018461157f565b949350505050565b5f60208201905061193b5f83018461187d565b92915050565b5f8060208385031215611957576119566114b6565b5b5f83013567ffffffffffffffff811115611974576119736114ba565b5b61198085828601611776565b92509250509250929050565b5f6020820190508181035f8301526119a481846118b4565b905092915050565b5f67ffffffffffffffff8211156119c6576119c56115bf565b5b6119cf826115af565b9050602081019050919050565b5f6119ee6119e9846119ac565b61161d565b905082815260208101848484011115611a0a57611a096115ab565b5b611a15848285611667565b509392505050565b5f82601f830112611a3157611a306115a7565b5b8135611a418482602086016119dc565b91505092915050565b5f60208284031215611a5f57611a5e6114b6565b5b5f82013567ffffffffffffffff811115611a7c57611a7b6114ba565b5b611a8884828501611a1d565b91505092915050565b7f5573657220616c726561647920726567697374657265640000000000000000005f82015250565b5f611ac5601783611896565b9150611ad082611a91565b602082019050919050565b5f6020820190508181035f830152611af281611ab9565b9050919050565b7f55736572206e6f742072656769737465726564000000000000000000000000005f82015250565b5f611b2d601383611896565b9150611b3882611af9565b602082019050919050565b5f6020820190508181035f830152611b5a81611b21565b9050919050565b5f81905092915050565b5f611b768385611b61565b9350611b83838584611667565b82840190509392505050565b5f611b9b828486611b6b565b91508190509392505050565b7f496e76616c696420616374696f6e2074797065000000000000000000000000005f82015250565b5f611bdb601383611896565b9150611be682611ba7565b602082019050919050565b5f6020820190508181035f830152611c0881611bcf565b9050919050565b7f4e487b71000000000000000000000000000000000000000000000000000000005f52602260045260245ffd5b5f6002820490506001821680611c5357607f821691505b602082108103611c6657611c65611c0f565b5b50919050565b5f819050815f5260205f209050919050565b5f6020601f8301049050919050565b5f82821b905092915050565b5f60088302611cc87fffffffffffffffffffffffffffffffffffffffffffffffffffffffffffffffff82611c8d565b611cd28683611c8d565b95508019841693508086168417925050509392505050565b5f819050919050565b5f611d0d611d08611d0384611576565b611cea565b611576565b9050919050565b5f819050919050565b611d2683611cf3565b611d3a611d3282611d14565b848454611c99565b825550505050565b5f90565b611d4e611d42565b611d59818484611d1d565b505050565b5b81811015611d7c57611d715f82611d46565b600181019050611d5f565b5050565b601f821115611dc157611d9281611c6c565b611d9b84611c7e565b81016020851015611daa578190505b611dbe611db685611c7e565b830182611d5e565b50505b505050565b5f82821c905092915050565b5f611de15f1984600802611dc6565b1980831691505092915050565b5f611df98383611dd2565b9150826002028217905092915050565b611e128261188c565b67ffffffffffffffff811115611e2b57611e2a6115bf565b5b611e358254611c3c565b611e40828285611d80565b5f60209050601f831160018114611e71575f8415611e5f578287015190505b611e698582611dee565b865550611ed0565b601f198416611e7f86611c6c565b5f5b82811015611ea657848901518255600182019150602085019450602081019050611e81565b86831015611ec35784890151611ebf601f891682611dd2565b8355505b6001600288020188555050505b505050505050565b5f611ee38385611896565b9350611ef0838584611667565b611ef9836115af565b840190509392505050565b5f6040820190508181035f830152611f1d818587611ed8565b9050611f2c602083018461157f565b949350505050565b7f4e487b71000000000000000000000000000000000000000000000000000000005f52601160045260245ffd5b5f611f6b82611576565b91507fffffffffffffffffffffffffffffffffffffffffffffffffffffffffffffffff8203611f9d57611f9c611f34565b5b600182019050919050565b5f819050919050565b5f67ffffffffffffffff82169050919050565b5f611fde611fd9611fd484611fa8565b611cea565b611fb1565b9050919050565b611fee81611fc4565b82525050565b5f6020820190506120075f830184611fe5565b92915050565b7f416374696f6e207479706520616c7265616479206578697374730000000000005f82015250565b5f612041601a83611896565b915061204c8261200d565b602082019050919050565b5f6020820190508181035f83015261206e81612035565b9050919050565b5f6020820190508181035f83015261208e818486611ed8565b90509392505050565b6120a08161173d565b81146120aa575f80fd5b50565b5f815190506120bb81612097565b92915050565b5f602082840312156120d6576120d56114b6565b5b5f6120e3848285016120ad565b91505092915050565b7f5265656e7472616e637947756172643a207265656e7472616e742063616c6c005f82015250565b5f612120601f83611896565b915061212b826120ec565b602082019050919050565b5f6020820190508181035f83015261214d81612114565b9050919050565b5f81519050919050565b5f81905092915050565b5f61217282612154565b61217c818561215e565b935061218c8185602086016118a6565b80840191505092915050565b5f6121a38284612168565b91508190509291505056fea2646970667358221220cbad976f296449ea965832d14182d2ad8e089026badef47d736a9d4a8d5e90ad64736f6c634300081a0033",
					"opcodes": "PUSH1 0xA0 PUSH1 0x40 MSTORE ADDRESS PUSH20 0xFFFFFFFFFFFFFFFFFFFFFFFFFFFFFFFFFFFFFFFF AND PUSH1 0x80 SWAP1 PUSH20 0xFFFFFFFFFFFFFFFFFFFFFFFFFFFFFFFFFFFFFFFF AND DUP2 MSTORE POP CALLVALUE DUP1 ISZERO PUSH1 0x41 JUMPI PUSH0 DUP1 REVERT JUMPDEST POP PUSH1 0x80 MLOAD PUSH2 0x21E4 PUSH2 0x68 PUSH0 CODECOPY PUSH0 DUP2 DUP2 PUSH2 0xC3E ADD MSTORE DUP2 DUP2 PUSH2 0xC93 ADD MSTORE PUSH2 0xE4D ADD MSTORE PUSH2 0x21E4 PUSH0 RETURN INVALID PUSH1 0x80 PUSH1 0x40 MSTORE PUSH1 0x4 CALLDATASIZE LT PUSH2 0xDC JUMPI PUSH0 CALLDATALOAD PUSH1 0xE0 SHR DUP1 PUSH4 0x8129FC1C GT PUSH2 0x7E JUMPI DUP1 PUSH4 0x9FEA7AAE GT PUSH2 0x58 JUMPI DUP1 PUSH4 0x9FEA7AAE EQ PUSH2 0x270 JUMPI DUP1 PUSH4 0xAD3CB1CC EQ PUSH2 0x298 JUMPI DUP1 PUSH4 0xD7A88D17 EQ PUSH2 0x2C2 JUMPI DUP1 PUSH4 0xF2FDE38B EQ PUSH2 0x2FE JUMPI PUSH2 0xDC JUMP JUMPDEST DUP1 PUSH4 0x8129FC1C EQ PUSH2 0x1F2 JUMPI DUP1 PUSH4 0x83240F83 EQ PUSH2 0x208 JUMPI DUP1 PUSH4 0x8DA5CB5B EQ PUSH2 0x246 JUMPI PUSH2 0xDC JUMP JUMPDEST DUP1 PUSH4 0x4F1EF286 GT PUSH2 0xBA JUMPI DUP1 PUSH4 0x4F1EF286 EQ PUSH2 0x16E JUMPI DUP1 PUSH4 0x52D1902D EQ PUSH2 0x18A JUMPI DUP1 PUSH4 0x578B8CF5 EQ PUSH2 0x1B4 JUMPI DUP1 PUSH4 0x715018A6 EQ PUSH2 0x1DC JUMPI PUSH2 0xDC JUMP JUMPDEST DUP1 PUSH4 0xE50CEE5 EQ PUSH2 0xE0 JUMPI DUP1 PUSH4 0x2199D5CD EQ PUSH2 0x11C JUMPI DUP1 PUSH4 0x29DA5738 EQ PUSH2 0x144 JUMPI JUMPDEST PUSH0 DUP1 REVERT JUMPDEST CALLVALUE DUP1 ISZERO PUSH2 0xEB JUMPI PUSH0 DUP1 REVERT JUMPDEST POP PUSH2 0x106 PUSH1 0x4 DUP1 CALLDATASIZE SUB DUP2 ADD SWAP1 PUSH2 0x101 SWAP2 SWAP1 PUSH2 0x1518 JUMP JUMPDEST PUSH2 0x326 JUMP JUMPDEST PUSH1 0x40 MLOAD PUSH2 0x113 SWAP2 SWAP1 PUSH2 0x155D JUMP JUMPDEST PUSH1 0x40 MLOAD DUP1 SWAP2 SUB SWAP1 RETURN JUMPDEST CALLVALUE DUP1 ISZERO PUSH2 0x127 JUMPI PUSH0 DUP1 REVERT JUMPDEST POP PUSH2 0x142 PUSH1 0x4 DUP1 CALLDATASIZE SUB DUP2 ADD SWAP1 PUSH2 0x13D SWAP2 SWAP1 PUSH2 0x1518 JUMP JUMPDEST PUSH2 0x343 JUMP JUMPDEST STOP JUMPDEST CALLVALUE DUP1 ISZERO PUSH2 0x14F JUMPI PUSH0 DUP1 REVERT JUMPDEST POP PUSH2 0x158 PUSH2 0x470 JUMP JUMPDEST PUSH1 0x40 MLOAD PUSH2 0x165 SWAP2 SWAP1 PUSH2 0x158E JUMP JUMPDEST PUSH1 0x40 MLOAD DUP1 SWAP2 SUB SWAP1 RETURN JUMPDEST PUSH2 0x188 PUSH1 0x4 DUP1 CALLDATASIZE SUB DUP2 ADD SWAP1 PUSH2 0x183 SWAP2 SWAP1 PUSH2 0x16E3 JUMP JUMPDEST PUSH2 0x476 JUMP JUMPDEST STOP JUMPDEST CALLVALUE DUP1 ISZERO PUSH2 0x195 JUMPI PUSH0 DUP1 REVERT JUMPDEST POP PUSH2 0x19E PUSH2 0x495 JUMP JUMPDEST PUSH1 0x40 MLOAD PUSH2 0x1AB SWAP2 SWAP1 PUSH2 0x1755 JUMP JUMPDEST PUSH1 0x40 MLOAD DUP1 SWAP2 SUB SWAP1 RETURN JUMPDEST CALLVALUE DUP1 ISZERO PUSH2 0x1BF JUMPI PUSH0 DUP1 REVERT JUMPDEST POP PUSH2 0x1DA PUSH1 0x4 DUP1 CALLDATASIZE SUB DUP2 ADD SWAP1 PUSH2 0x1D5 SWAP2 SWAP1 PUSH2 0x17CB JUMP JUMPDEST PUSH2 0x4C6 JUMP JUMPDEST STOP JUMPDEST CALLVALUE DUP1 ISZERO PUSH2 0x1E7 JUMPI PUSH0 DUP1 REVERT JUMPDEST POP PUSH2 0x1F0 PUSH2 0x727 JUMP JUMPDEST STOP JUMPDEST CALLVALUE DUP1 ISZERO PUSH2 0x1FD JUMPI PUSH0 DUP1 REVERT JUMPDEST POP PUSH2 0x206 PUSH2 0x73A JUMP JUMPDEST STOP JUMPDEST CALLVALUE DUP1 ISZERO PUSH2 0x213 JUMPI PUSH0 DUP1 REVERT JUMPDEST POP PUSH2 0x22E PUSH1 0x4 DUP1 CALLDATASIZE SUB DUP2 ADD SWAP1 PUSH2 0x229 SWAP2 SWAP1 PUSH2 0x1852 JUMP JUMPDEST PUSH2 0x8D9 JUMP JUMPDEST PUSH1 0x40 MLOAD PUSH2 0x23D SWAP4 SWAP3 SWAP2 SWAP1 PUSH2 0x18EC JUMP JUMPDEST PUSH1 0x40 MLOAD DUP1 SWAP2 SUB SWAP1 RETURN JUMPDEST CALLVALUE DUP1 ISZERO PUSH2 0x251 JUMPI PUSH0 DUP1 REVERT JUMPDEST POP PUSH2 0x25A PUSH2 0x9A4 JUMP JUMPDEST PUSH1 0x40 MLOAD PUSH2 0x267 SWAP2 SWAP1 PUSH2 0x1928 JUMP JUMPDEST PUSH1 0x40 MLOAD DUP1 SWAP2 SUB SWAP1 RETURN JUMPDEST CALLVALUE DUP1 ISZERO PUSH2 0x27B JUMPI PUSH0 DUP1 REVERT JUMPDEST POP PUSH2 0x296 PUSH1 0x4 DUP1 CALLDATASIZE SUB DUP2 ADD SWAP1 PUSH2 0x291 SWAP2 SWAP1 PUSH2 0x1941 JUMP JUMPDEST PUSH2 0x9D9 JUMP JUMPDEST STOP JUMPDEST CALLVALUE DUP1 ISZERO PUSH2 0x2A3 JUMPI PUSH0 DUP1 REVERT JUMPDEST POP PUSH2 0x2AC PUSH2 0xAC3 JUMP JUMPDEST PUSH1 0x40 MLOAD PUSH2 0x2B9 SWAP2 SWAP1 PUSH2 0x198C JUMP JUMPDEST PUSH1 0x40 MLOAD DUP1 SWAP2 SUB SWAP1 RETURN JUMPDEST CALLVALUE DUP1 ISZERO PUSH2 0x2CD JUMPI PUSH0 DUP1 REVERT JUMPDEST POP PUSH2 0x2E8 PUSH1 0x4 DUP1 CALLDATASIZE SUB DUP2 ADD SWAP1 PUSH2 0x2E3 SWAP2 SWAP1 PUSH2 0x1A4A JUMP JUMPDEST PUSH2 0xAFC JUMP JUMPDEST PUSH1 0x40 MLOAD PUSH2 0x2F5 SWAP2 SWAP1 PUSH2 0x155D JUMP JUMPDEST PUSH1 0x40 MLOAD DUP1 SWAP2 SUB SWAP1 RETURN JUMPDEST CALLVALUE DUP1 ISZERO PUSH2 0x309 JUMPI PUSH0 DUP1 REVERT JUMPDEST POP PUSH2 0x324 PUSH1 0x4 DUP1 CALLDATASIZE SUB DUP2 ADD SWAP1 PUSH2 0x31F SWAP2 SWAP1 PUSH2 0x1518 JUMP JUMPDEST PUSH2 0xB31 JUMP JUMPDEST STOP JUMPDEST PUSH1 0x35 PUSH1 0x20 MSTORE DUP1 PUSH0 MSTORE PUSH1 0x40 PUSH0 KECCAK256 PUSH0 SWAP2 POP SLOAD SWAP1 PUSH2 0x100 EXP SWAP1 DIV PUSH1 0xFF AND DUP2 JUMP JUMPDEST PUSH2 0x34B PUSH2 0xBB5 JUMP JUMPDEST PUSH1 0x35 PUSH0 DUP3 PUSH20 0xFFFFFFFFFFFFFFFFFFFFFFFFFFFFFFFFFFFFFFFF AND PUSH20 0xFFFFFFFFFFFFFFFFFFFFFFFFFFFFFFFFFFFFFFFF AND DUP2 MSTORE PUSH1 0x20 ADD SWAP1 DUP2 MSTORE PUSH1 0x20 ADD PUSH0 KECCAK256 PUSH0 SWAP1 SLOAD SWAP1 PUSH2 0x100 EXP SWAP1 DIV PUSH1 0xFF AND ISZERO PUSH2 0x3D5 JUMPI PUSH1 0x40 MLOAD PUSH32 0x8C379A000000000000000000000000000000000000000000000000000000000 DUP2 MSTORE PUSH1 0x4 ADD PUSH2 0x3CC SWAP1 PUSH2 0x1ADB JUMP JUMPDEST PUSH1 0x40 MLOAD DUP1 SWAP2 SUB SWAP1 REVERT JUMPDEST PUSH1 0x1 PUSH1 0x35 PUSH0 DUP4 PUSH20 0xFFFFFFFFFFFFFFFFFFFFFFFFFFFFFFFFFFFFFFFF AND PUSH20 0xFFFFFFFFFFFFFFFFFFFFFFFFFFFFFFFFFFFFFFFF AND DUP2 MSTORE PUSH1 0x20 ADD SWAP1 DUP2 MSTORE PUSH1 0x20 ADD PUSH0 KECCAK256 PUSH0 PUSH2 0x100 EXP DUP2 SLOAD DUP2 PUSH1 0xFF MUL NOT AND SWAP1 DUP4 ISZERO ISZERO MUL OR SWAP1 SSTORE POP DUP1 PUSH20 0xFFFFFFFFFFFFFFFFFFFFFFFFFFFFFFFFFFFFFFFF AND PUSH32 0x54DB7A5CB4735E1AAC1F53DB512D3390390BB6637BD30AD4BF9FC98667D9B9B9 PUSH1 0x40 MLOAD PUSH1 0x40 MLOAD DUP1 SWAP2 SUB SWAP1 LOG2 POP JUMP JUMPDEST PUSH1 0x33 SLOAD DUP2 JUMP JUMPDEST PUSH2 0x47E PUSH2 0xC3C JUMP JUMPDEST PUSH2 0x487 DUP3 PUSH2 0xD22 JUMP JUMPDEST PUSH2 0x491 DUP3 DUP3 PUSH2 0xD2D JUMP JUMPDEST POP POP JUMP JUMPDEST PUSH0 PUSH2 0x49E PUSH2 0xE4B JUMP JUMPDEST PUSH32 0x360894A13BA1A3210667C828492DB98DCA3E2076CC3735A920A3CA505D382BBC PUSH0 SHL SWAP1 POP SWAP1 JUMP JUMPDEST PUSH2 0x4CE PUSH2 0xED2 JUMP JUMPDEST PUSH1 0x35 PUSH0 DUP5 PUSH20 0xFFFFFFFFFFFFFFFFFFFFFFFFFFFFFFFFFFFFFFFF AND PUSH20 0xFFFFFFFFFFFFFFFFFFFFFFFFFFFFFFFFFFFFFFFF AND DUP2 MSTORE PUSH1 0x20 ADD SWAP1 DUP2 MSTORE PUSH1 0x20 ADD PUSH0 KECCAK256 PUSH0 SWAP1 SLOAD SWAP1 PUSH2 0x100 EXP SWAP1 DIV PUSH1 0xFF AND PUSH2 0x557 JUMPI PUSH1 0x40 MLOAD PUSH32 0x8C379A000000000000000000000000000000000000000000000000000000000 DUP2 MSTORE PUSH1 0x4 ADD PUSH2 0x54E SWAP1 PUSH2 0x1B43 JUMP JUMPDEST PUSH1 0x40 MLOAD DUP1 SWAP2 SUB SWAP1 REVERT JUMPDEST PUSH1 0x34 DUP3 DUP3 PUSH1 0x40 MLOAD PUSH2 0x569 SWAP3 SWAP2 SWAP1 PUSH2 0x1B8F JUMP JUMPDEST SWAP1 DUP2 MSTORE PUSH1 0x20 ADD PUSH1 0x40 MLOAD DUP1 SWAP2 SUB SWAP1 KECCAK256 PUSH0 SWAP1 SLOAD SWAP1 PUSH2 0x100 EXP SWAP1 DIV PUSH1 0xFF AND PUSH2 0x5C3 JUMPI PUSH1 0x40 MLOAD PUSH32 0x8C379A000000000000000000000000000000000000000000000000000000000 DUP2 MSTORE PUSH1 0x4 ADD PUSH2 0x5BA SWAP1 PUSH2 0x1BF1 JUMP JUMPDEST PUSH1 0x40 MLOAD DUP1 SWAP2 SUB SWAP1 REVERT JUMPDEST PUSH1 0x40 MLOAD DUP1 PUSH1 0x60 ADD PUSH1 0x40 MSTORE DUP1 DUP5 PUSH20 0xFFFFFFFFFFFFFFFFFFFFFFFFFFFFFFFFFFFFFFFF AND DUP2 MSTORE PUSH1 0x20 ADD DUP4 DUP4 DUP1 DUP1 PUSH1 0x1F ADD PUSH1 0x20 DUP1 SWAP2 DIV MUL PUSH1 0x20 ADD PUSH1 0x40 MLOAD SWAP1 DUP2 ADD PUSH1 0x40 MSTORE DUP1 SWAP4 SWAP3 SWAP2 SWAP1 DUP2 DUP2 MSTORE PUSH1 0x20 ADD DUP4 DUP4 DUP1 DUP3 DUP5 CALLDATACOPY PUSH0 DUP2 DUP5 ADD MSTORE PUSH1 0x1F NOT PUSH1 0x1F DUP3 ADD AND SWAP1 POP DUP1 DUP4 ADD SWAP3 POP POP POP POP POP POP POP DUP2 MSTORE PUSH1 0x20 ADD TIMESTAMP DUP2 MSTORE POP PUSH1 0x32 PUSH0 PUSH1 0x33 SLOAD DUP2 MSTORE PUSH1 0x20 ADD SWAP1 DUP2 MSTORE PUSH1 0x20 ADD PUSH0 KECCAK256 PUSH0 DUP3 ADD MLOAD DUP2 PUSH0 ADD PUSH0 PUSH2 0x100 EXP DUP2 SLOAD DUP2 PUSH20 0xFFFFFFFFFFFFFFFFFFFFFFFFFFFFFFFFFFFFFFFF MUL NOT AND SWAP1 DUP4 PUSH20 0xFFFFFFFFFFFFFFFFFFFFFFFFFFFFFFFFFFFFFFFF AND MUL OR SWAP1 SSTORE POP PUSH1 0x20 DUP3 ADD MLOAD DUP2 PUSH1 0x1 ADD SWAP1 DUP2 PUSH2 0x6A3 SWAP2 SWAP1 PUSH2 0x1E09 JUMP JUMPDEST POP PUSH1 0x40 DUP3 ADD MLOAD DUP2 PUSH1 0x2 ADD SSTORE SWAP1 POP POP DUP3 PUSH20 0xFFFFFFFFFFFFFFFFFFFFFFFFFFFFFFFFFFFFFFFF AND PUSH32 0x533F0A86420848556053ACB6D591F6533CD0F33A263FFF71497F9B2842EE6A72 DUP4 DUP4 TIMESTAMP PUSH1 0x40 MLOAD PUSH2 0x6FB SWAP4 SWAP3 SWAP2 SWAP1 PUSH2 0x1F04 JUMP JUMPDEST PUSH1 0x40 MLOAD DUP1 SWAP2 SUB SWAP1 LOG2 PUSH1 0x33 PUSH0 DUP2 SLOAD DUP1 SWAP3 SWAP2 SWAP1 PUSH2 0x715 SWAP1 PUSH2 0x1F61 JUMP JUMPDEST SWAP2 SWAP1 POP SSTORE POP PUSH2 0x722 PUSH2 0xF1F JUMP JUMPDEST POP POP POP JUMP JUMPDEST PUSH2 0x72F PUSH2 0xBB5 JUMP JUMPDEST PUSH2 0x738 PUSH0 PUSH2 0xF28 JUMP JUMPDEST JUMP JUMPDEST PUSH0 PUSH2 0x743 PUSH2 0xFF9 JUMP JUMPDEST SWAP1 POP PUSH0 DUP2 PUSH0 ADD PUSH1 0x8 SWAP1 SLOAD SWAP1 PUSH2 0x100 EXP SWAP1 DIV PUSH1 0xFF AND ISZERO SWAP1 POP PUSH0 DUP3 PUSH0 ADD PUSH0 SWAP1 SLOAD SWAP1 PUSH2 0x100 EXP SWAP1 DIV PUSH8 0xFFFFFFFFFFFFFFFF AND SWAP1 POP PUSH0 DUP1 DUP3 PUSH8 0xFFFFFFFFFFFFFFFF AND EQ DUP1 ISZERO PUSH2 0x78B JUMPI POP DUP3 JUMPDEST SWAP1 POP PUSH0 PUSH1 0x1 DUP4 PUSH8 0xFFFFFFFFFFFFFFFF AND EQ DUP1 ISZERO PUSH2 0x7BE JUMPI POP PUSH0 ADDRESS PUSH20 0xFFFFFFFFFFFFFFFFFFFFFFFFFFFFFFFFFFFFFFFF AND EXTCODESIZE EQ JUMPDEST SWAP1 POP DUP2 ISZERO DUP1 ISZERO PUSH2 0x7CC JUMPI POP DUP1 ISZERO JUMPDEST ISZERO PUSH2 0x803 JUMPI PUSH1 0x40 MLOAD PUSH32 0xF92EE8A900000000000000000000000000000000000000000000000000000000 DUP2 MSTORE PUSH1 0x4 ADD PUSH1 0x40 MLOAD DUP1 SWAP2 SUB SWAP1 REVERT JUMPDEST PUSH1 0x1 DUP6 PUSH0 ADD PUSH0 PUSH2 0x100 EXP DUP2 SLOAD DUP2 PUSH8 0xFFFFFFFFFFFFFFFF MUL NOT AND SWAP1 DUP4 PUSH8 0xFFFFFFFFFFFFFFFF AND MUL OR SWAP1 SSTORE POP DUP4 ISZERO PUSH2 0x850 JUMPI PUSH1 0x1 DUP6 PUSH0 ADD PUSH1 0x8 PUSH2 0x100 EXP DUP2 SLOAD DUP2 PUSH1 0xFF MUL NOT AND SWAP1 DUP4 ISZERO ISZERO MUL OR SWAP1 SSTORE POP JUMPDEST PUSH2 0x859 CALLER PUSH2 0x1020 JUMP JUMPDEST PUSH2 0x861 PUSH2 0x1034 JUMP JUMPDEST PUSH2 0x869 PUSH2 0x103E JUMP JUMPDEST PUSH2 0x871 PUSH2 0x1048 JUMP JUMPDEST PUSH0 PUSH1 0x33 DUP2 SWAP1 SSTORE POP DUP4 ISZERO PUSH2 0x8D2 JUMPI PUSH0 DUP6 PUSH0 ADD PUSH1 0x8 PUSH2 0x100 EXP DUP2 SLOAD DUP2 PUSH1 0xFF MUL NOT AND SWAP1 DUP4 ISZERO ISZERO MUL OR SWAP1 SSTORE POP PUSH32 0xC7F505B2F371AE2175EE4913F4499E1F2633A7B5936321EED1CDAEB6115181D2 PUSH1 0x1 PUSH1 0x40 MLOAD PUSH2 0x8C9 SWAP2 SWAP1 PUSH2 0x1FF4 JUMP JUMPDEST PUSH1 0x40 MLOAD DUP1 SWAP2 SUB SWAP1 LOG1 JUMPDEST POP POP POP POP POP JUMP JUMPDEST PUSH1 0x32 PUSH1 0x20 MSTORE DUP1 PUSH0 MSTORE PUSH1 0x40 PUSH0 KECCAK256 PUSH0 SWAP2 POP SWAP1 POP DUP1 PUSH0 ADD PUSH0 SWAP1 SLOAD SWAP1 PUSH2 0x100 EXP SWAP1 DIV PUSH20 0xFFFFFFFFFFFFFFFFFFFFFFFFFFFFFFFFFFFFFFFF AND SWAP1 DUP1 PUSH1 0x1 ADD DUP1 SLOAD PUSH2 0x91D SWAP1 PUSH2 0x1C3C JUMP JUMPDEST DUP1 PUSH1 0x1F ADD PUSH1 0x20 DUP1 SWAP2 DIV MUL PUSH1 0x20 ADD PUSH1 0x40 MLOAD SWAP1 DUP2 ADD PUSH1 0x40 MSTORE DUP1 SWAP3 SWAP2 SWAP1 DUP2 DUP2 MSTORE PUSH1 0x20 ADD DUP3 DUP1 SLOAD PUSH2 0x949 SWAP1 PUSH2 0x1C3C JUMP JUMPDEST DUP1 ISZERO PUSH2 0x994 JUMPI DUP1 PUSH1 0x1F LT PUSH2 0x96B JUMPI PUSH2 0x100 DUP1 DUP4 SLOAD DIV MUL DUP4 MSTORE SWAP2 PUSH1 0x20 ADD SWAP2 PUSH2 0x994 JUMP JUMPDEST DUP3 ADD SWAP2 SWAP1 PUSH0 MSTORE PUSH1 0x20 PUSH0 KECCAK256 SWAP1 JUMPDEST DUP2 SLOAD DUP2 MSTORE SWAP1 PUSH1 0x1 ADD SWAP1 PUSH1 0x20 ADD DUP1 DUP4 GT PUSH2 0x977 JUMPI DUP3 SWAP1 SUB PUSH1 0x1F AND DUP3 ADD SWAP2 JUMPDEST POP POP POP POP POP SWAP1 DUP1 PUSH1 0x2 ADD SLOAD SWAP1 POP DUP4 JUMP JUMPDEST PUSH0 DUP1 PUSH2 0x9AE PUSH2 0x105A JUMP JUMPDEST SWAP1 POP DUP1 PUSH0 ADD PUSH0 SWAP1 SLOAD SWAP1 PUSH2 0x100 EXP SWAP1 DIV PUSH20 0xFFFFFFFFFFFFFFFFFFFFFFFFFFFFFFFFFFFFFFFF AND SWAP2 POP POP SWAP1 JUMP JUMPDEST PUSH2 0x9E1 PUSH2 0xBB5 JUMP JUMPDEST PUSH1 0x34 DUP3 DUP3 PUSH1 0x40 MLOAD PUSH2 0x9F3 SWAP3 SWAP2 SWAP1 PUSH2 0x1B8F JUMP JUMPDEST SWAP1 DUP2 MSTORE PUSH1 0x20 ADD PUSH1 0x40 MLOAD DUP1 SWAP2 SUB SWAP1 KECCAK256 PUSH0 SWAP1 SLOAD SWAP1 PUSH2 0x100 EXP SWAP1 DIV PUSH1 0xFF AND ISZERO PUSH2 0xA4E JUMPI PUSH1 0x40 MLOAD PUSH32 0x8C379A000000000000000000000000000000000000000000000000000000000 DUP2 MSTORE PUSH1 0x4 ADD PUSH2 0xA45 SWAP1 PUSH2 0x2057 JUMP JUMPDEST PUSH1 0x40 MLOAD DUP1 SWAP2 SUB SWAP1 REVERT JUMPDEST PUSH1 0x1 PUSH1 0x34 DUP4 DUP4 PUSH1 0x40 MLOAD PUSH2 0xA62 SWAP3 SWAP2 SWAP1 PUSH2 0x1B8F JUMP JUMPDEST SWAP1 DUP2 MSTORE PUSH1 0x20 ADD PUSH1 0x40 MLOAD DUP1 SWAP2 SUB SWAP1 KECCAK256 PUSH0 PUSH2 0x100 EXP DUP2 SLOAD DUP2 PUSH1 0xFF MUL NOT AND SWAP1 DUP4 ISZERO ISZERO MUL OR SWAP1 SSTORE POP PUSH32 0xD87F5FB4A18FDF6F8930E7DC0B120B68EE3677D2B64526AE81D70AA82882A753 DUP3 DUP3 PUSH1 0x40 MLOAD PUSH2 0xAB7 SWAP3 SWAP2 SWAP1 PUSH2 0x2075 JUMP JUMPDEST PUSH1 0x40 MLOAD DUP1 SWAP2 SUB SWAP1 LOG1 POP POP JUMP JUMPDEST PUSH1 0x40 MLOAD DUP1 PUSH1 0x40 ADD PUSH1 0x40 MSTORE DUP1 PUSH1 0x5 DUP2 MSTORE PUSH1 0x20 ADD PUSH32 0x352E302E30000000000000000000000000000000000000000000000000000000 DUP2 MSTORE POP DUP2 JUMP JUMPDEST PUSH1 0x34 DUP2 DUP1 MLOAD PUSH1 0x20 DUP2 ADD DUP3 ADD DUP1 MLOAD DUP5 DUP3 MSTORE PUSH1 0x20 DUP4 ADD PUSH1 0x20 DUP6 ADD KECCAK256 DUP2 DUP4 MSTORE DUP1 SWAP6 POP POP POP POP POP POP PUSH0 SWAP2 POP SLOAD SWAP1 PUSH2 0x100 EXP SWAP1 DIV PUSH1 0xFF AND DUP2 JUMP JUMPDEST PUSH2 0xB39 PUSH2 0xBB5 JUMP JUMPDEST PUSH0 PUSH20 0xFFFFFFFFFFFFFFFFFFFFFFFFFFFFFFFFFFFFFFFF AND DUP2 PUSH20 0xFFFFFFFFFFFFFFFFFFFFFFFFFFFFFFFFFFFFFFFF AND SUB PUSH2 0xBA9 JUMPI PUSH0 PUSH1 0x40 MLOAD PUSH32 0x1E4FBDF700000000000000000000000000000000000000000000000000000000 DUP2 MSTORE PUSH1 0x4 ADD PUSH2 0xBA0 SWAP2 SWAP1 PUSH2 0x1928 JUMP JUMPDEST PUSH1 0x40 MLOAD DUP1 SWAP2 SUB SWAP1 REVERT JUMPDEST PUSH2 0xBB2 DUP2 PUSH2 0xF28 JUMP JUMPDEST POP JUMP JUMPDEST PUSH2 0xBBD PUSH2 0x1081 JUMP JUMPDEST PUSH20 0xFFFFFFFFFFFFFFFFFFFFFFFFFFFFFFFFFFFFFFFF AND PUSH2 0xBDB PUSH2 0x9A4 JUMP JUMPDEST PUSH20 0xFFFFFFFFFFFFFFFFFFFFFFFFFFFFFFFFFFFFFFFF AND EQ PUSH2 0xC3A JUMPI PUSH2 0xBFE PUSH2 0x1081 JUMP JUMPDEST PUSH1 0x40 MLOAD PUSH32 0x118CDAA700000000000000000000000000000000000000000000000000000000 DUP2 MSTORE PUSH1 0x4 ADD PUSH2 0xC31 SWAP2 SWAP1 PUSH2 0x1928 JUMP JUMPDEST PUSH1 0x40 MLOAD DUP1 SWAP2 SUB SWAP1 REVERT JUMPDEST JUMP JUMPDEST PUSH32 0x0 PUSH20 0xFFFFFFFFFFFFFFFFFFFFFFFFFFFFFFFFFFFFFFFF AND ADDRESS PUSH20 0xFFFFFFFFFFFFFFFFFFFFFFFFFFFFFFFFFFFFFFFF AND EQ DUP1 PUSH2 0xCE9 JUMPI POP PUSH32 0x0 PUSH20 0xFFFFFFFFFFFFFFFFFFFFFFFFFFFFFFFFFFFFFFFF AND PUSH2 0xCD0 PUSH2 0x108F JUMP JUMPDEST PUSH20 0xFFFFFFFFFFFFFFFFFFFFFFFFFFFFFFFFFFFFFFFF AND EQ ISZERO JUMPDEST ISZERO PUSH2 0xD20 JUMPI PUSH1 0x40 MLOAD PUSH32 0xE07C8DBA00000000000000000000000000000000000000000000000000000000 DUP2 MSTORE PUSH1 0x4 ADD PUSH1 0x40 MLOAD DUP1 SWAP2 SUB SWAP1 REVERT JUMPDEST JUMP JUMPDEST PUSH2 0xD2A PUSH2 0xBB5 JUMP JUMPDEST POP JUMP JUMPDEST DUP2 PUSH20 0xFFFFFFFFFFFFFFFFFFFFFFFFFFFFFFFFFFFFFFFF AND PUSH4 0x52D1902D PUSH1 0x40 MLOAD DUP2 PUSH4 0xFFFFFFFF AND PUSH1 0xE0 SHL DUP2 MSTORE PUSH1 0x4 ADD PUSH1 0x20 PUSH1 0x40 MLOAD DUP1 DUP4 SUB DUP2 DUP7 GAS STATICCALL SWAP3 POP POP POP DUP1 ISZERO PUSH2 0xD95 JUMPI POP PUSH1 0x40 MLOAD RETURNDATASIZE PUSH1 0x1F NOT PUSH1 0x1F DUP3 ADD AND DUP3 ADD DUP1 PUSH1 0x40 MSTORE POP DUP2 ADD SWAP1 PUSH2 0xD92 SWAP2 SWAP1 PUSH2 0x20C1 JUMP JUMPDEST PUSH1 0x1 JUMPDEST PUSH2 0xDD6 JUMPI DUP2 PUSH1 0x40 MLOAD PUSH32 0x4C9C8CE300000000000000000000000000000000000000000000000000000000 DUP2 MSTORE PUSH1 0x4 ADD PUSH2 0xDCD SWAP2 SWAP1 PUSH2 0x1928 JUMP JUMPDEST PUSH1 0x40 MLOAD DUP1 SWAP2 SUB SWAP1 REVERT JUMPDEST PUSH32 0x360894A13BA1A3210667C828492DB98DCA3E2076CC3735A920A3CA505D382BBC PUSH0 SHL DUP2 EQ PUSH2 0xE3C JUMPI DUP1 PUSH1 0x40 MLOAD PUSH32 0xAA1D49A400000000000000000000000000000000000000000000000000000000 DUP2 MSTORE PUSH1 0x4 ADD PUSH2 0xE33 SWAP2 SWAP1 PUSH2 0x1755 JUMP JUMPDEST PUSH1 0x40 MLOAD DUP1 SWAP2 SUB SWAP1 REVERT JUMPDEST PUSH2 0xE46 DUP4 DUP4 PUSH2 0x10E2 JUMP JUMPDEST POP POP POP JUMP JUMPDEST PUSH32 0x0 PUSH20 0xFFFFFFFFFFFFFFFFFFFFFFFFFFFFFFFFFFFFFFFF AND ADDRESS PUSH20 0xFFFFFFFFFFFFFFFFFFFFFFFFFFFFFFFFFFFFFFFF AND EQ PUSH2 0xED0 JUMPI PUSH1 0x40 MLOAD PUSH32 0xE07C8DBA00000000000000000000000000000000000000000000000000000000 DUP2 MSTORE PUSH1 0x4 ADD PUSH1 0x40 MLOAD DUP1 SWAP2 SUB SWAP1 REVERT JUMPDEST JUMP JUMPDEST PUSH1 0x2 PUSH0 SLOAD SUB PUSH2 0xF16 JUMPI PUSH1 0x40 MLOAD PUSH32 0x8C379A000000000000000000000000000000000000000000000000000000000 DUP2 MSTORE PUSH1 0x4 ADD PUSH2 0xF0D SWAP1 PUSH2 0x2136 JUMP JUMPDEST PUSH1 0x40 MLOAD DUP1 SWAP2 SUB SWAP1 REVERT JUMPDEST PUSH1 0x2 PUSH0 DUP2 SWAP1 SSTORE POP JUMP JUMPDEST PUSH1 0x1 PUSH0 DUP2 SWAP1 SSTORE POP JUMP JUMPDEST PUSH0 PUSH2 0xF31 PUSH2 0x105A JUMP JUMPDEST SWAP1 POP PUSH0 DUP2 PUSH0 ADD PUSH0 SWAP1 SLOAD SWAP1 PUSH2 0x100 EXP SWAP1 DIV PUSH20 0xFFFFFFFFFFFFFFFFFFFFFFFFFFFFFFFFFFFFFFFF AND SWAP1 POP DUP3 DUP3 PUSH0 ADD PUSH0 PUSH2 0x100 EXP DUP2 SLOAD DUP2 PUSH20 0xFFFFFFFFFFFFFFFFFFFFFFFFFFFFFFFFFFFFFFFF MUL NOT AND SWAP1 DUP4 PUSH20 0xFFFFFFFFFFFFFFFFFFFFFFFFFFFFFFFFFFFFFFFF AND MUL OR SWAP1 SSTORE POP DUP3 PUSH20 0xFFFFFFFFFFFFFFFFFFFFFFFFFFFFFFFFFFFFFFFF AND DUP2 PUSH20 0xFFFFFFFFFFFFFFFFFFFFFFFFFFFFFFFFFFFFFFFF AND PUSH32 0x8BE0079C531659141344CD1FD0A4F28419497F9722A3DAAFE3B4186F6B6457E0 PUSH1 0x40 MLOAD PUSH1 0x40 MLOAD DUP1 SWAP2 SUB SWAP1 LOG3 POP POP POP JUMP JUMPDEST PUSH0 PUSH32 0xF0C57E16840DF040F15088DC2F81FE391C3923BEC73E23A9662EFC9C229C6A00 SWAP1 POP SWAP1 JUMP JUMPDEST PUSH2 0x1028 PUSH2 0x1154 JUMP JUMPDEST PUSH2 0x1031 DUP2 PUSH2 0x1194 JUMP JUMPDEST POP JUMP JUMPDEST PUSH2 0x103C PUSH2 0x1154 JUMP JUMPDEST JUMP JUMPDEST PUSH2 0x1046 PUSH2 0x1154 JUMP JUMPDEST JUMP JUMPDEST PUSH2 0x1050 PUSH2 0x1154 JUMP JUMPDEST PUSH2 0x1058 PUSH2 0x1218 JUMP JUMPDEST JUMP JUMPDEST PUSH0 PUSH32 0x9016D09D72D40FDAE2FD8CEAC6B6234C7706214FD39C1CD1E609A0528C199300 SWAP1 POP SWAP1 JUMP JUMPDEST PUSH0 PUSH2 0x108A PUSH2 0x1229 JUMP JUMPDEST SWAP1 POP SWAP1 JUMP JUMPDEST PUSH0 PUSH2 0x10BB PUSH32 0x360894A13BA1A3210667C828492DB98DCA3E2076CC3735A920A3CA505D382BBC PUSH0 SHL PUSH2 0x1230 JUMP JUMPDEST PUSH0 ADD PUSH0 SWAP1 SLOAD SWAP1 PUSH2 0x100 EXP SWAP1 DIV PUSH20 0xFFFFFFFFFFFFFFFFFFFFFFFFFFFFFFFFFFFFFFFF AND SWAP1 POP SWAP1 JUMP JUMPDEST PUSH2 0x10EB DUP3 PUSH2 0x1239 JUMP JUMPDEST DUP2 PUSH20 0xFFFFFFFFFFFFFFFFFFFFFFFFFFFFFFFFFFFFFFFF AND PUSH32 0xBC7CD75A20EE27FD9ADEBAB32041F755214DBC6BFFA90CC0225B39DA2E5C2D3B PUSH1 0x40 MLOAD PUSH1 0x40 MLOAD DUP1 SWAP2 SUB SWAP1 LOG2 PUSH0 DUP2 MLOAD GT ISZERO PUSH2 0x1147 JUMPI PUSH2 0x1141 DUP3 DUP3 PUSH2 0x1302 JUMP JUMPDEST POP PUSH2 0x1150 JUMP JUMPDEST PUSH2 0x114F PUSH2 0x1382 JUMP JUMPDEST JUMPDEST POP POP JUMP JUMPDEST PUSH2 0x115C PUSH2 0x13BE JUMP JUMPDEST PUSH2 0x1192 JUMPI PUSH1 0x40 MLOAD PUSH32 0xD7E6BCF800000000000000000000000000000000000000000000000000000000 DUP2 MSTORE PUSH1 0x4 ADD PUSH1 0x40 MLOAD DUP1 SWAP2 SUB SWAP1 REVERT JUMPDEST JUMP JUMPDEST PUSH2 0x119C PUSH2 0x1154 JUMP JUMPDEST PUSH0 PUSH20 0xFFFFFFFFFFFFFFFFFFFFFFFFFFFFFFFFFFFFFFFF AND DUP2 PUSH20 0xFFFFFFFFFFFFFFFFFFFFFFFFFFFFFFFFFFFFFFFF AND SUB PUSH2 0x120C JUMPI PUSH0 PUSH1 0x40 MLOAD PUSH32 0x1E4FBDF700000000000000000000000000000000000000000000000000000000 DUP2 MSTORE PUSH1 0x4 ADD PUSH2 0x1203 SWAP2 SWAP1 PUSH2 0x1928 JUMP JUMPDEST PUSH1 0x40 MLOAD DUP1 SWAP2 SUB SWAP1 REVERT JUMPDEST PUSH2 0x1215 DUP2 PUSH2 0xF28 JUMP JUMPDEST POP JUMP JUMPDEST PUSH2 0x1220 PUSH2 0x1154 JUMP JUMPDEST PUSH1 0x1 PUSH0 DUP2 SWAP1 SSTORE POP JUMP JUMPDEST PUSH0 CALLER SWAP1 POP SWAP1 JUMP JUMPDEST PUSH0 DUP2 SWAP1 POP SWAP2 SWAP1 POP JUMP JUMPDEST PUSH0 DUP2 PUSH20 0xFFFFFFFFFFFFFFFFFFFFFFFFFFFFFFFFFFFFFFFF AND EXTCODESIZE SUB PUSH2 0x1294 JUMPI DUP1 PUSH1 0x40 MLOAD PUSH32 0x4C9C8CE300000000000000000000000000000000000000000000000000000000 DUP2 MSTORE PUSH1 0x4 ADD PUSH2 0x128B SWAP2 SWAP1 PUSH2 0x1928 JUMP JUMPDEST PUSH1 0x40 MLOAD DUP1 SWAP2 SUB SWAP1 REVERT JUMPDEST DUP1 PUSH2 0x12C0 PUSH32 0x360894A13BA1A3210667C828492DB98DCA3E2076CC3735A920A3CA505D382BBC PUSH0 SHL PUSH2 0x1230 JUMP JUMPDEST PUSH0 ADD PUSH0 PUSH2 0x100 EXP DUP2 SLOAD DUP2 PUSH20 0xFFFFFFFFFFFFFFFFFFFFFFFFFFFFFFFFFFFFFFFF MUL NOT AND SWAP1 DUP4 PUSH20 0xFFFFFFFFFFFFFFFFFFFFFFFFFFFFFFFFFFFFFFFF AND MUL OR SWAP1 SSTORE POP POP JUMP JUMPDEST PUSH1 0x60 PUSH0 DUP1 DUP5 PUSH20 0xFFFFFFFFFFFFFFFFFFFFFFFFFFFFFFFFFFFFFFFF AND DUP5 PUSH1 0x40 MLOAD PUSH2 0x132B SWAP2 SWAP1 PUSH2 0x2198 JUMP JUMPDEST PUSH0 PUSH1 0x40 MLOAD DUP1 DUP4 SUB DUP2 DUP6 GAS DELEGATECALL SWAP2 POP POP RETURNDATASIZE DUP1 PUSH0 DUP2 EQ PUSH2 0x1363 JUMPI PUSH1 0x40 MLOAD SWAP2 POP PUSH1 0x1F NOT PUSH1 0x3F RETURNDATASIZE ADD AND DUP3 ADD PUSH1 0x40 MSTORE RETURNDATASIZE DUP3 MSTORE RETURNDATASIZE PUSH0 PUSH1 0x20 DUP5 ADD RETURNDATACOPY PUSH2 0x1368 JUMP JUMPDEST PUSH1 0x60 SWAP2 POP JUMPDEST POP SWAP2 POP SWAP2 POP PUSH2 0x1378 DUP6 DUP4 DUP4 PUSH2 0x13DC JUMP JUMPDEST SWAP3 POP POP POP SWAP3 SWAP2 POP POP JUMP JUMPDEST PUSH0 CALLVALUE GT ISZERO PUSH2 0x13BC JUMPI PUSH1 0x40 MLOAD PUSH32 0xB398979F00000000000000000000000000000000000000000000000000000000 DUP2 MSTORE PUSH1 0x4 ADD PUSH1 0x40 MLOAD DUP1 SWAP2 SUB SWAP1 REVERT JUMPDEST JUMP JUMPDEST PUSH0 PUSH2 0x13C7 PUSH2 0xFF9 JUMP JUMPDEST PUSH0 ADD PUSH1 0x8 SWAP1 SLOAD SWAP1 PUSH2 0x100 EXP SWAP1 DIV PUSH1 0xFF AND SWAP1 POP SWAP1 JUMP JUMPDEST PUSH1 0x60 DUP3 PUSH2 0x13F1 JUMPI PUSH2 0x13EC DUP3 PUSH2 0x1469 JUMP JUMPDEST PUSH2 0x1461 JUMP JUMPDEST PUSH0 DUP3 MLOAD EQ DUP1 ISZERO PUSH2 0x1417 JUMPI POP PUSH0 DUP5 PUSH20 0xFFFFFFFFFFFFFFFFFFFFFFFFFFFFFFFFFFFFFFFF AND EXTCODESIZE EQ JUMPDEST ISZERO PUSH2 0x1459 JUMPI DUP4 PUSH1 0x40 MLOAD PUSH32 0x9996B31500000000000000000000000000000000000000000000000000000000 DUP2 MSTORE PUSH1 0x4 ADD PUSH2 0x1450 SWAP2 SWAP1 PUSH2 0x1928 JUMP JUMPDEST PUSH1 0x40 MLOAD DUP1 SWAP2 SUB SWAP1 REVERT JUMPDEST DUP2 SWAP1 POP PUSH2 0x1462 JUMP JUMPDEST JUMPDEST SWAP4 SWAP3 POP POP POP JUMP JUMPDEST PUSH0 DUP2 MLOAD GT ISZERO PUSH2 0x147B JUMPI DUP1 MLOAD DUP1 DUP3 PUSH1 0x20 ADD REVERT JUMPDEST PUSH1 0x40 MLOAD PUSH32 0xD6BDA27500000000000000000000000000000000000000000000000000000000 DUP2 MSTORE PUSH1 0x4 ADD PUSH1 0x40 MLOAD DUP1 SWAP2 SUB SWAP1 REVERT JUMPDEST PUSH0 PUSH1 0x40 MLOAD SWAP1 POP SWAP1 JUMP JUMPDEST PUSH0 DUP1 REVERT JUMPDEST PUSH0 DUP1 REVERT JUMPDEST PUSH0 PUSH20 0xFFFFFFFFFFFFFFFFFFFFFFFFFFFFFFFFFFFFFFFF DUP3 AND SWAP1 POP SWAP2 SWAP1 POP JUMP JUMPDEST PUSH0 PUSH2 0x14E7 DUP3 PUSH2 0x14BE JUMP JUMPDEST SWAP1 POP SWAP2 SWAP1 POP JUMP JUMPDEST PUSH2 0x14F7 DUP2 PUSH2 0x14DD JUMP JUMPDEST DUP2 EQ PUSH2 0x1501 JUMPI PUSH0 DUP1 REVERT JUMPDEST POP JUMP JUMPDEST PUSH0 DUP2 CALLDATALOAD SWAP1 POP PUSH2 0x1512 DUP2 PUSH2 0x14EE JUMP JUMPDEST SWAP3 SWAP2 POP POP JUMP JUMPDEST PUSH0 PUSH1 0x20 DUP3 DUP5 SUB SLT ISZERO PUSH2 0x152D JUMPI PUSH2 0x152C PUSH2 0x14B6 JUMP JUMPDEST JUMPDEST PUSH0 PUSH2 0x153A DUP5 DUP3 DUP6 ADD PUSH2 0x1504 JUMP JUMPDEST SWAP2 POP POP SWAP3 SWAP2 POP POP JUMP JUMPDEST PUSH0 DUP2 ISZERO ISZERO SWAP1 POP SWAP2 SWAP1 POP JUMP JUMPDEST PUSH2 0x1557 DUP2 PUSH2 0x1543 JUMP JUMPDEST DUP3 MSTORE POP POP JUMP JUMPDEST PUSH0 PUSH1 0x20 DUP3 ADD SWAP1 POP PUSH2 0x1570 PUSH0 DUP4 ADD DUP5 PUSH2 0x154E JUMP JUMPDEST SWAP3 SWAP2 POP POP JUMP JUMPDEST PUSH0 DUP2 SWAP1 POP SWAP2 SWAP1 POP JUMP JUMPDEST PUSH2 0x1588 DUP2 PUSH2 0x1576 JUMP JUMPDEST DUP3 MSTORE POP POP JUMP JUMPDEST PUSH0 PUSH1 0x20 DUP3 ADD SWAP1 POP PUSH2 0x15A1 PUSH0 DUP4 ADD DUP5 PUSH2 0x157F JUMP JUMPDEST SWAP3 SWAP2 POP POP JUMP JUMPDEST PUSH0 DUP1 REVERT JUMPDEST PUSH0 DUP1 REVERT JUMPDEST PUSH0 PUSH1 0x1F NOT PUSH1 0x1F DUP4 ADD AND SWAP1 POP SWAP2 SWAP1 POP JUMP JUMPDEST PUSH32 0x4E487B7100000000000000000000000000000000000000000000000000000000 PUSH0 MSTORE PUSH1 0x41 PUSH1 0x4 MSTORE PUSH1 0x24 PUSH0 REVERT JUMPDEST PUSH2 0x15F5 DUP3 PUSH2 0x15AF JUMP JUMPDEST DUP2 ADD DUP2 DUP2 LT PUSH8 0xFFFFFFFFFFFFFFFF DUP3 GT OR ISZERO PUSH2 0x1614 JUMPI PUSH2 0x1613 PUSH2 0x15BF JUMP JUMPDEST JUMPDEST DUP1 PUSH1 0x40 MSTORE POP POP POP JUMP JUMPDEST PUSH0 PUSH2 0x1626 PUSH2 0x14AD JUMP JUMPDEST SWAP1 POP PUSH2 0x1632 DUP3 DUP3 PUSH2 0x15EC JUMP JUMPDEST SWAP2 SWAP1 POP JUMP JUMPDEST PUSH0 PUSH8 0xFFFFFFFFFFFFFFFF DUP3 GT ISZERO PUSH2 0x1651 JUMPI PUSH2 0x1650 PUSH2 0x15BF JUMP JUMPDEST JUMPDEST PUSH2 0x165A DUP3 PUSH2 0x15AF JUMP JUMPDEST SWAP1 POP PUSH1 0x20 DUP2 ADD SWAP1 POP SWAP2 SWAP1 POP JUMP JUMPDEST DUP3 DUP2 DUP4 CALLDATACOPY PUSH0 DUP4 DUP4 ADD MSTORE POP POP POP JUMP JUMPDEST PUSH0 PUSH2 0x1687 PUSH2 0x1682 DUP5 PUSH2 0x1637 JUMP JUMPDEST PUSH2 0x161D JUMP JUMPDEST SWAP1 POP DUP3 DUP2 MSTORE PUSH1 0x20 DUP2 ADD DUP5 DUP5 DUP5 ADD GT ISZERO PUSH2 0x16A3 JUMPI PUSH2 0x16A2 PUSH2 0x15AB JUMP JUMPDEST JUMPDEST PUSH2 0x16AE DUP5 DUP3 DUP6 PUSH2 0x1667 JUMP JUMPDEST POP SWAP4 SWAP3 POP POP POP JUMP JUMPDEST PUSH0 DUP3 PUSH1 0x1F DUP4 ADD SLT PUSH2 0x16CA JUMPI PUSH2 0x16C9 PUSH2 0x15A7 JUMP JUMPDEST JUMPDEST DUP2 CALLDATALOAD PUSH2 0x16DA DUP5 DUP3 PUSH1 0x20 DUP7 ADD PUSH2 0x1675 JUMP JUMPDEST SWAP2 POP POP SWAP3 SWAP2 POP POP JUMP JUMPDEST PUSH0 DUP1 PUSH1 0x40 DUP4 DUP6 SUB SLT ISZERO PUSH2 0x16F9 JUMPI PUSH2 0x16F8 PUSH2 0x14B6 JUMP JUMPDEST JUMPDEST PUSH0 PUSH2 0x1706 DUP6 DUP3 DUP7 ADD PUSH2 0x1504 JUMP JUMPDEST SWAP3 POP POP PUSH1 0x20 DUP4 ADD CALLDATALOAD PUSH8 0xFFFFFFFFFFFFFFFF DUP2 GT ISZERO PUSH2 0x1727 JUMPI PUSH2 0x1726 PUSH2 0x14BA JUMP JUMPDEST JUMPDEST PUSH2 0x1733 DUP6 DUP3 DUP7 ADD PUSH2 0x16B6 JUMP JUMPDEST SWAP2 POP POP SWAP3 POP SWAP3 SWAP1 POP JUMP JUMPDEST PUSH0 DUP2 SWAP1 POP SWAP2 SWAP1 POP JUMP JUMPDEST PUSH2 0x174F DUP2 PUSH2 0x173D JUMP JUMPDEST DUP3 MSTORE POP POP JUMP JUMPDEST PUSH0 PUSH1 0x20 DUP3 ADD SWAP1 POP PUSH2 0x1768 PUSH0 DUP4 ADD DUP5 PUSH2 0x1746 JUMP JUMPDEST SWAP3 SWAP2 POP POP JUMP JUMPDEST PUSH0 DUP1 REVERT JUMPDEST PUSH0 DUP1 REVERT JUMPDEST PUSH0 DUP1 DUP4 PUSH1 0x1F DUP5 ADD SLT PUSH2 0x178B JUMPI PUSH2 0x178A PUSH2 0x15A7 JUMP JUMPDEST JUMPDEST DUP3 CALLDATALOAD SWAP1 POP PUSH8 0xFFFFFFFFFFFFFFFF DUP2 GT ISZERO PUSH2 0x17A8 JUMPI PUSH2 0x17A7 PUSH2 0x176E JUMP JUMPDEST JUMPDEST PUSH1 0x20 DUP4 ADD SWAP2 POP DUP4 PUSH1 0x1 DUP3 MUL DUP4 ADD GT ISZERO PUSH2 0x17C4 JUMPI PUSH2 0x17C3 PUSH2 0x1772 JUMP JUMPDEST JUMPDEST SWAP3 POP SWAP3 SWAP1 POP JUMP JUMPDEST PUSH0 DUP1 PUSH0 PUSH1 0x40 DUP5 DUP7 SUB SLT ISZERO PUSH2 0x17E2 JUMPI PUSH2 0x17E1 PUSH2 0x14B6 JUMP JUMPDEST JUMPDEST PUSH0 PUSH2 0x17EF DUP7 DUP3 DUP8 ADD PUSH2 0x1504 JUMP JUMPDEST SWAP4 POP POP PUSH1 0x20 DUP5 ADD CALLDATALOAD PUSH8 0xFFFFFFFFFFFFFFFF DUP2 GT ISZERO PUSH2 0x1810 JUMPI PUSH2 0x180F PUSH2 0x14BA JUMP JUMPDEST JUMPDEST PUSH2 0x181C DUP7 DUP3 DUP8 ADD PUSH2 0x1776 JUMP JUMPDEST SWAP3 POP SWAP3 POP POP SWAP3 POP SWAP3 POP SWAP3 JUMP JUMPDEST PUSH2 0x1831 DUP2 PUSH2 0x1576 JUMP JUMPDEST DUP2 EQ PUSH2 0x183B JUMPI PUSH0 DUP1 REVERT JUMPDEST POP JUMP JUMPDEST PUSH0 DUP2 CALLDATALOAD SWAP1 POP PUSH2 0x184C DUP2 PUSH2 0x1828 JUMP JUMPDEST SWAP3 SWAP2 POP POP JUMP JUMPDEST PUSH0 PUSH1 0x20 DUP3 DUP5 SUB SLT ISZERO PUSH2 0x1867 JUMPI PUSH2 0x1866 PUSH2 0x14B6 JUMP JUMPDEST JUMPDEST PUSH0 PUSH2 0x1874 DUP5 DUP3 DUP6 ADD PUSH2 0x183E JUMP JUMPDEST SWAP2 POP POP SWAP3 SWAP2 POP POP JUMP JUMPDEST PUSH2 0x1886 DUP2 PUSH2 0x14DD JUMP JUMPDEST DUP3 MSTORE POP POP JUMP JUMPDEST PUSH0 DUP2 MLOAD SWAP1 POP SWAP2 SWAP1 POP JUMP JUMPDEST PUSH0 DUP3 DUP3 MSTORE PUSH1 0x20 DUP3 ADD SWAP1 POP SWAP3 SWAP2 POP POP JUMP JUMPDEST DUP3 DUP2 DUP4 MCOPY PUSH0 DUP4 DUP4 ADD MSTORE POP POP POP JUMP JUMPDEST PUSH0 PUSH2 0x18BE DUP3 PUSH2 0x188C JUMP JUMPDEST PUSH2 0x18C8 DUP2 DUP6 PUSH2 0x1896 JUMP JUMPDEST SWAP4 POP PUSH2 0x18D8 DUP2 DUP6 PUSH1 0x20 DUP7 ADD PUSH2 0x18A6 JUMP JUMPDEST PUSH2 0x18E1 DUP2 PUSH2 0x15AF JUMP JUMPDEST DUP5 ADD SWAP2 POP POP SWAP3 SWAP2 POP POP JUMP JUMPDEST PUSH0 PUSH1 0x60 DUP3 ADD SWAP1 POP PUSH2 0x18FF PUSH0 DUP4 ADD DUP7 PUSH2 0x187D JUMP JUMPDEST DUP2 DUP2 SUB PUSH1 0x20 DUP4 ADD MSTORE PUSH2 0x1911 DUP2 DUP6 PUSH2 0x18B4 JUMP JUMPDEST SWAP1 POP PUSH2 0x1920 PUSH1 0x40 DUP4 ADD DUP5 PUSH2 0x157F JUMP JUMPDEST SWAP5 SWAP4 POP POP POP POP JUMP JUMPDEST PUSH0 PUSH1 0x20 DUP3 ADD SWAP1 POP PUSH2 0x193B PUSH0 DUP4 ADD DUP5 PUSH2 0x187D JUMP JUMPDEST SWAP3 SWAP2 POP POP JUMP JUMPDEST PUSH0 DUP1 PUSH1 0x20 DUP4 DUP6 SUB SLT ISZERO PUSH2 0x1957 JUMPI PUSH2 0x1956 PUSH2 0x14B6 JUMP JUMPDEST JUMPDEST PUSH0 DUP4 ADD CALLDATALOAD PUSH8 0xFFFFFFFFFFFFFFFF DUP2 GT ISZERO PUSH2 0x1974 JUMPI PUSH2 0x1973 PUSH2 0x14BA JUMP JUMPDEST JUMPDEST PUSH2 0x1980 DUP6 DUP3 DUP7 ADD PUSH2 0x1776 JUMP JUMPDEST SWAP3 POP SWAP3 POP POP SWAP3 POP SWAP3 SWAP1 POP JUMP JUMPDEST PUSH0 PUSH1 0x20 DUP3 ADD SWAP1 POP DUP2 DUP2 SUB PUSH0 DUP4 ADD MSTORE PUSH2 0x19A4 DUP2 DUP5 PUSH2 0x18B4 JUMP JUMPDEST SWAP1 POP SWAP3 SWAP2 POP POP JUMP JUMPDEST PUSH0 PUSH8 0xFFFFFFFFFFFFFFFF DUP3 GT ISZERO PUSH2 0x19C6 JUMPI PUSH2 0x19C5 PUSH2 0x15BF JUMP JUMPDEST JUMPDEST PUSH2 0x19CF DUP3 PUSH2 0x15AF JUMP JUMPDEST SWAP1 POP PUSH1 0x20 DUP2 ADD SWAP1 POP SWAP2 SWAP1 POP JUMP JUMPDEST PUSH0 PUSH2 0x19EE PUSH2 0x19E9 DUP5 PUSH2 0x19AC JUMP JUMPDEST PUSH2 0x161D JUMP JUMPDEST SWAP1 POP DUP3 DUP2 MSTORE PUSH1 0x20 DUP2 ADD DUP5 DUP5 DUP5 ADD GT ISZERO PUSH2 0x1A0A JUMPI PUSH2 0x1A09 PUSH2 0x15AB JUMP JUMPDEST JUMPDEST PUSH2 0x1A15 DUP5 DUP3 DUP6 PUSH2 0x1667 JUMP JUMPDEST POP SWAP4 SWAP3 POP POP POP JUMP JUMPDEST PUSH0 DUP3 PUSH1 0x1F DUP4 ADD SLT PUSH2 0x1A31 JUMPI PUSH2 0x1A30 PUSH2 0x15A7 JUMP JUMPDEST JUMPDEST DUP2 CALLDATALOAD PUSH2 0x1A41 DUP5 DUP3 PUSH1 0x20 DUP7 ADD PUSH2 0x19DC JUMP JUMPDEST SWAP2 POP POP SWAP3 SWAP2 POP POP JUMP JUMPDEST PUSH0 PUSH1 0x20 DUP3 DUP5 SUB SLT ISZERO PUSH2 0x1A5F JUMPI PUSH2 0x1A5E PUSH2 0x14B6 JUMP JUMPDEST JUMPDEST PUSH0 DUP3 ADD CALLDATALOAD PUSH8 0xFFFFFFFFFFFFFFFF DUP2 GT ISZERO PUSH2 0x1A7C JUMPI PUSH2 0x1A7B PUSH2 0x14BA JUMP JUMPDEST JUMPDEST PUSH2 0x1A88 DUP5 DUP3 DUP6 ADD PUSH2 0x1A1D JUMP JUMPDEST SWAP2 POP POP SWAP3 SWAP2 POP POP JUMP JUMPDEST PUSH32 0x5573657220616C72656164792072656769737465726564000000000000000000 PUSH0 DUP3 ADD MSTORE POP JUMP JUMPDEST PUSH0 PUSH2 0x1AC5 PUSH1 0x17 DUP4 PUSH2 0x1896 JUMP JUMPDEST SWAP2 POP PUSH2 0x1AD0 DUP3 PUSH2 0x1A91 JUMP JUMPDEST PUSH1 0x20 DUP3 ADD SWAP1 POP SWAP2 SWAP1 POP JUMP JUMPDEST PUSH0 PUSH1 0x20 DUP3 ADD SWAP1 POP DUP2 DUP2 SUB PUSH0 DUP4 ADD MSTORE PUSH2 0x1AF2 DUP2 PUSH2 0x1AB9 JUMP JUMPDEST SWAP1 POP SWAP2 SWAP1 POP JUMP JUMPDEST PUSH32 0x55736572206E6F74207265676973746572656400000000000000000000000000 PUSH0 DUP3 ADD MSTORE POP JUMP JUMPDEST PUSH0 PUSH2 0x1B2D PUSH1 0x13 DUP4 PUSH2 0x1896 JUMP JUMPDEST SWAP2 POP PUSH2 0x1B38 DUP3 PUSH2 0x1AF9 JUMP JUMPDEST PUSH1 0x20 DUP3 ADD SWAP1 POP SWAP2 SWAP1 POP JUMP JUMPDEST PUSH0 PUSH1 0x20 DUP3 ADD SWAP1 POP DUP2 DUP2 SUB PUSH0 DUP4 ADD MSTORE PUSH2 0x1B5A DUP2 PUSH2 0x1B21 JUMP JUMPDEST SWAP1 POP SWAP2 SWAP1 POP JUMP JUMPDEST PUSH0 DUP2 SWAP1 POP SWAP3 SWAP2 POP POP JUMP JUMPDEST PUSH0 PUSH2 0x1B76 DUP4 DUP6 PUSH2 0x1B61 JUMP JUMPDEST SWAP4 POP PUSH2 0x1B83 DUP4 DUP6 DUP5 PUSH2 0x1667 JUMP JUMPDEST DUP3 DUP5 ADD SWAP1 POP SWAP4 SWAP3 POP POP POP JUMP JUMPDEST PUSH0 PUSH2 0x1B9B DUP3 DUP5 DUP7 PUSH2 0x1B6B JUMP JUMPDEST SWAP2 POP DUP2 SWAP1 POP SWAP4 SWAP3 POP POP POP JUMP JUMPDEST PUSH32 0x496E76616C696420616374696F6E207479706500000000000000000000000000 PUSH0 DUP3 ADD MSTORE POP JUMP JUMPDEST PUSH0 PUSH2 0x1BDB PUSH1 0x13 DUP4 PUSH2 0x1896 JUMP JUMPDEST SWAP2 POP PUSH2 0x1BE6 DUP3 PUSH2 0x1BA7 JUMP JUMPDEST PUSH1 0x20 DUP3 ADD SWAP1 POP SWAP2 SWAP1 POP JUMP JUMPDEST PUSH0 PUSH1 0x20 DUP3 ADD SWAP1 POP DUP2 DUP2 SUB PUSH0 DUP4 ADD MSTORE PUSH2 0x1C08 DUP2 PUSH2 0x1BCF JUMP JUMPDEST SWAP1 POP SWAP2 SWAP1 POP JUMP JUMPDEST PUSH32 0x4E487B7100000000000000000000000000000000000000000000000000000000 PUSH0 MSTORE PUSH1 0x22 PUSH1 0x4 MSTORE PUSH1 0x24 PUSH0 REVERT JUMPDEST PUSH0 PUSH1 0x2 DUP3 DIV SWAP1 POP PUSH1 0x1 DUP3 AND DUP1 PUSH2 0x1C53 JUMPI PUSH1 0x7F DUP3 AND SWAP2 POP JUMPDEST PUSH1 0x20 DUP3 LT DUP2 SUB PUSH2 0x1C66 JUMPI PUSH2 0x1C65 PUSH2 0x1C0F JUMP JUMPDEST JUMPDEST POP SWAP2 SWAP1 POP JUMP JUMPDEST PUSH0 DUP2 SWAP1 POP DUP2 PUSH0 MSTORE PUSH1 0x20 PUSH0 KECCAK256 SWAP1 POP SWAP2 SWAP1 POP JUMP JUMPDEST PUSH0 PUSH1 0x20 PUSH1 0x1F DUP4 ADD DIV SWAP1 POP SWAP2 SWAP1 POP JUMP JUMPDEST PUSH0 DUP3 DUP3 SHL SWAP1 POP SWAP3 SWAP2 POP POP JUMP JUMPDEST PUSH0 PUSH1 0x8 DUP4 MUL PUSH2 0x1CC8 PUSH32 0xFFFFFFFFFFFFFFFFFFFFFFFFFFFFFFFFFFFFFFFFFFFFFFFFFFFFFFFFFFFFFFFF DUP3 PUSH2 0x1C8D JUMP JUMPDEST PUSH2 0x1CD2 DUP7 DUP4 PUSH2 0x1C8D JUMP JUMPDEST SWAP6 POP DUP1 NOT DUP5 AND SWAP4 POP DUP1 DUP7 AND DUP5 OR SWAP3 POP POP POP SWAP4 SWAP3 POP POP POP JUMP JUMPDEST PUSH0 DUP2 SWAP1 POP SWAP2 SWAP1 POP JUMP JUMPDEST PUSH0 PUSH2 0x1D0D PUSH2 0x1D08 PUSH2 0x1D03 DUP5 PUSH2 0x1576 JUMP JUMPDEST PUSH2 0x1CEA JUMP JUMPDEST PUSH2 0x1576 JUMP JUMPDEST SWAP1 POP SWAP2 SWAP1 POP JUMP JUMPDEST PUSH0 DUP2 SWAP1 POP SWAP2 SWAP1 POP JUMP JUMPDEST PUSH2 0x1D26 DUP4 PUSH2 0x1CF3 JUMP JUMPDEST PUSH2 0x1D3A PUSH2 0x1D32 DUP3 PUSH2 0x1D14 JUMP JUMPDEST DUP5 DUP5 SLOAD PUSH2 0x1C99 JUMP JUMPDEST DUP3 SSTORE POP POP POP POP JUMP JUMPDEST PUSH0 SWAP1 JUMP JUMPDEST PUSH2 0x1D4E PUSH2 0x1D42 JUMP JUMPDEST PUSH2 0x1D59 DUP2 DUP5 DUP5 PUSH2 0x1D1D JUMP JUMPDEST POP POP POP JUMP JUMPDEST JUMPDEST DUP2 DUP2 LT ISZERO PUSH2 0x1D7C JUMPI PUSH2 0x1D71 PUSH0 DUP3 PUSH2 0x1D46 JUMP JUMPDEST PUSH1 0x1 DUP2 ADD SWAP1 POP PUSH2 0x1D5F JUMP JUMPDEST POP POP JUMP JUMPDEST PUSH1 0x1F DUP3 GT ISZERO PUSH2 0x1DC1 JUMPI PUSH2 0x1D92 DUP2 PUSH2 0x1C6C JUMP JUMPDEST PUSH2 0x1D9B DUP5 PUSH2 0x1C7E JUMP JUMPDEST DUP2 ADD PUSH1 0x20 DUP6 LT ISZERO PUSH2 0x1DAA JUMPI DUP2 SWAP1 POP JUMPDEST PUSH2 0x1DBE PUSH2 0x1DB6 DUP6 PUSH2 0x1C7E JUMP JUMPDEST DUP4 ADD DUP3 PUSH2 0x1D5E JUMP JUMPDEST POP POP JUMPDEST POP POP POP JUMP JUMPDEST PUSH0 DUP3 DUP3 SHR SWAP1 POP SWAP3 SWAP2 POP POP JUMP JUMPDEST PUSH0 PUSH2 0x1DE1 PUSH0 NOT DUP5 PUSH1 0x8 MUL PUSH2 0x1DC6 JUMP JUMPDEST NOT DUP1 DUP4 AND SWAP2 POP POP SWAP3 SWAP2 POP POP JUMP JUMPDEST PUSH0 PUSH2 0x1DF9 DUP4 DUP4 PUSH2 0x1DD2 JUMP JUMPDEST SWAP2 POP DUP3 PUSH1 0x2 MUL DUP3 OR SWAP1 POP SWAP3 SWAP2 POP POP JUMP JUMPDEST PUSH2 0x1E12 DUP3 PUSH2 0x188C JUMP JUMPDEST PUSH8 0xFFFFFFFFFFFFFFFF DUP2 GT ISZERO PUSH2 0x1E2B JUMPI PUSH2 0x1E2A PUSH2 0x15BF JUMP JUMPDEST JUMPDEST PUSH2 0x1E35 DUP3 SLOAD PUSH2 0x1C3C JUMP JUMPDEST PUSH2 0x1E40 DUP3 DUP3 DUP6 PUSH2 0x1D80 JUMP JUMPDEST PUSH0 PUSH1 0x20 SWAP1 POP PUSH1 0x1F DUP4 GT PUSH1 0x1 DUP2 EQ PUSH2 0x1E71 JUMPI PUSH0 DUP5 ISZERO PUSH2 0x1E5F JUMPI DUP3 DUP8 ADD MLOAD SWAP1 POP JUMPDEST PUSH2 0x1E69 DUP6 DUP3 PUSH2 0x1DEE JUMP JUMPDEST DUP7 SSTORE POP PUSH2 0x1ED0 JUMP JUMPDEST PUSH1 0x1F NOT DUP5 AND PUSH2 0x1E7F DUP7 PUSH2 0x1C6C JUMP JUMPDEST PUSH0 JUMPDEST DUP3 DUP2 LT ISZERO PUSH2 0x1EA6 JUMPI DUP5 DUP10 ADD MLOAD DUP3 SSTORE PUSH1 0x1 DUP3 ADD SWAP2 POP PUSH1 0x20 DUP6 ADD SWAP5 POP PUSH1 0x20 DUP2 ADD SWAP1 POP PUSH2 0x1E81 JUMP JUMPDEST DUP7 DUP4 LT ISZERO PUSH2 0x1EC3 JUMPI DUP5 DUP10 ADD MLOAD PUSH2 0x1EBF PUSH1 0x1F DUP10 AND DUP3 PUSH2 0x1DD2 JUMP JUMPDEST DUP4 SSTORE POP JUMPDEST PUSH1 0x1 PUSH1 0x2 DUP9 MUL ADD DUP9 SSTORE POP POP POP JUMPDEST POP POP POP POP POP POP JUMP JUMPDEST PUSH0 PUSH2 0x1EE3 DUP4 DUP6 PUSH2 0x1896 JUMP JUMPDEST SWAP4 POP PUSH2 0x1EF0 DUP4 DUP6 DUP5 PUSH2 0x1667 JUMP JUMPDEST PUSH2 0x1EF9 DUP4 PUSH2 0x15AF JUMP JUMPDEST DUP5 ADD SWAP1 POP SWAP4 SWAP3 POP POP POP JUMP JUMPDEST PUSH0 PUSH1 0x40 DUP3 ADD SWAP1 POP DUP2 DUP2 SUB PUSH0 DUP4 ADD MSTORE PUSH2 0x1F1D DUP2 DUP6 DUP8 PUSH2 0x1ED8 JUMP JUMPDEST SWAP1 POP PUSH2 0x1F2C PUSH1 0x20 DUP4 ADD DUP5 PUSH2 0x157F JUMP JUMPDEST SWAP5 SWAP4 POP POP POP POP JUMP JUMPDEST PUSH32 0x4E487B7100000000000000000000000000000000000000000000000000000000 PUSH0 MSTORE PUSH1 0x11 PUSH1 0x4 MSTORE PUSH1 0x24 PUSH0 REVERT JUMPDEST PUSH0 PUSH2 0x1F6B DUP3 PUSH2 0x1576 JUMP JUMPDEST SWAP2 POP PUSH32 0xFFFFFFFFFFFFFFFFFFFFFFFFFFFFFFFFFFFFFFFFFFFFFFFFFFFFFFFFFFFFFFFF DUP3 SUB PUSH2 0x1F9D JUMPI PUSH2 0x1F9C PUSH2 0x1F34 JUMP JUMPDEST JUMPDEST PUSH1 0x1 DUP3 ADD SWAP1 POP SWAP2 SWAP1 POP JUMP JUMPDEST PUSH0 DUP2 SWAP1 POP SWAP2 SWAP1 POP JUMP JUMPDEST PUSH0 PUSH8 0xFFFFFFFFFFFFFFFF DUP3 AND SWAP1 POP SWAP2 SWAP1 POP JUMP JUMPDEST PUSH0 PUSH2 0x1FDE PUSH2 0x1FD9 PUSH2 0x1FD4 DUP5 PUSH2 0x1FA8 JUMP JUMPDEST PUSH2 0x1CEA JUMP JUMPDEST PUSH2 0x1FB1 JUMP JUMPDEST SWAP1 POP SWAP2 SWAP1 POP JUMP JUMPDEST PUSH2 0x1FEE DUP2 PUSH2 0x1FC4 JUMP JUMPDEST DUP3 MSTORE POP POP JUMP JUMPDEST PUSH0 PUSH1 0x20 DUP3 ADD SWAP1 POP PUSH2 0x2007 PUSH0 DUP4 ADD DUP5 PUSH2 0x1FE5 JUMP JUMPDEST SWAP3 SWAP2 POP POP JUMP JUMPDEST PUSH32 0x416374696F6E207479706520616C726561647920657869737473000000000000 PUSH0 DUP3 ADD MSTORE POP JUMP JUMPDEST PUSH0 PUSH2 0x2041 PUSH1 0x1A DUP4 PUSH2 0x1896 JUMP JUMPDEST SWAP2 POP PUSH2 0x204C DUP3 PUSH2 0x200D JUMP JUMPDEST PUSH1 0x20 DUP3 ADD SWAP1 POP SWAP2 SWAP1 POP JUMP JUMPDEST PUSH0 PUSH1 0x20 DUP3 ADD SWAP1 POP DUP2 DUP2 SUB PUSH0 DUP4 ADD MSTORE PUSH2 0x206E DUP2 PUSH2 0x2035 JUMP JUMPDEST SWAP1 POP SWAP2 SWAP1 POP JUMP JUMPDEST PUSH0 PUSH1 0x20 DUP3 ADD SWAP1 POP DUP2 DUP2 SUB PUSH0 DUP4 ADD MSTORE PUSH2 0x208E DUP2 DUP5 DUP7 PUSH2 0x1ED8 JUMP JUMPDEST SWAP1 POP SWAP4 SWAP3 POP POP POP JUMP JUMPDEST PUSH2 0x20A0 DUP2 PUSH2 0x173D JUMP JUMPDEST DUP2 EQ PUSH2 0x20AA JUMPI PUSH0 DUP1 REVERT JUMPDEST POP JUMP JUMPDEST PUSH0 DUP2 MLOAD SWAP1 POP PUSH2 0x20BB DUP2 PUSH2 0x2097 JUMP JUMPDEST SWAP3 SWAP2 POP POP JUMP JUMPDEST PUSH0 PUSH1 0x20 DUP3 DUP5 SUB SLT ISZERO PUSH2 0x20D6 JUMPI PUSH2 0x20D5 PUSH2 0x14B6 JUMP JUMPDEST JUMPDEST PUSH0 PUSH2 0x20E3 DUP5 DUP3 DUP6 ADD PUSH2 0x20AD JUMP JUMPDEST SWAP2 POP POP SWAP3 SWAP2 POP POP JUMP JUMPDEST PUSH32 0x5265656E7472616E637947756172643A207265656E7472616E742063616C6C00 PUSH0 DUP3 ADD MSTORE POP JUMP JUMPDEST PUSH0 PUSH2 0x2120 PUSH1 0x1F DUP4 PUSH2 0x1896 JUMP JUMPDEST SWAP2 POP PUSH2 0x212B DUP3 PUSH2 0x20EC JUMP JUMPDEST PUSH1 0x20 DUP3 ADD SWAP1 POP SWAP2 SWAP1 POP JUMP JUMPDEST PUSH0 PUSH1 0x20 DUP3 ADD SWAP1 POP DUP2 DUP2 SUB PUSH0 DUP4 ADD MSTORE PUSH2 0x214D DUP2 PUSH2 0x2114 JUMP JUMPDEST SWAP1 POP SWAP2 SWAP1 POP JUMP JUMPDEST PUSH0 DUP2 MLOAD SWAP1 POP SWAP2 SWAP1 POP JUMP JUMPDEST PUSH0 DUP2 SWAP1 POP SWAP3 SWAP2 POP POP JUMP JUMPDEST PUSH0 PUSH2 0x2172 DUP3 PUSH2 0x2154 JUMP JUMPDEST PUSH2 0x217C DUP2 DUP6 PUSH2 0x215E JUMP JUMPDEST SWAP4 POP PUSH2 0x218C DUP2 DUP6 PUSH1 0x20 DUP7 ADD PUSH2 0x18A6 JUMP JUMPDEST DUP1 DUP5 ADD SWAP2 POP POP SWAP3 SWAP2 POP POP JUMP JUMPDEST PUSH0 PUSH2 0x21A3 DUP3 DUP5 PUSH2 0x2168 JUMP JUMPDEST SWAP2 POP DUP2 SWAP1 POP SWAP3 SWAP2 POP POP JUMP INVALID LOG2 PUSH5 0x6970667358 0x22 SLT KECCAK256 0xCB 0xAD SWAP8 PUSH16 0x296449EA965832D14182D2AD8E089026 0xBA 0xDE DELEGATECALL PUSH30 0x736A9D4A8D5E90AD64736F6C634300081A00330000000000000000000000 "
				},
				"gasEstimates": {
					"creation": {
						"codeDepositCost": "1735200",
						"executionCost": "infinite",
						"totalCost": "infinite"
					},
					"external": {
						"UPGRADE_INTERFACE_VERSION()": "infinite",
						"actionCount()": "2493",
						"actions(uint256)": "infinite",
						"addActionType(string)": "infinite",
						"allowedActions(string)": "infinite",
						"initialize()": "infinite",
						"owner()": "2634",
						"proxiableUUID()": "infinite",
						"recordAction(address,string)": "infinite",
						"registerUser(address)": "infinite",
						"registeredUsers(address)": "2857",
						"renounceOwnership()": "infinite",
						"transferOwnership(address)": "infinite",
						"upgradeToAndCall(address,bytes)": "infinite"
					},
					"internal": {
						"_authorizeUpgrade(address)": "infinite",
						"_msgData()": "infinite",
						"_msgSender()": "55"
					}
				},
				"methodIdentifiers": {
					"UPGRADE_INTERFACE_VERSION()": "ad3cb1cc",
					"actionCount()": "29da5738",
					"actions(uint256)": "83240f83",
					"addActionType(string)": "9fea7aae",
					"allowedActions(string)": "d7a88d17",
					"initialize()": "8129fc1c",
					"owner()": "8da5cb5b",
					"proxiableUUID()": "52d1902d",
					"recordAction(address,string)": "578b8cf5",
					"registerUser(address)": "2199d5cd",
					"registeredUsers(address)": "0e50cee5",
					"renounceOwnership()": "715018a6",
					"transferOwnership(address)": "f2fde38b",
					"upgradeToAndCall(address,bytes)": "4f1ef286"
				}
			},
			"storageLayout": {
				"storage": [
					{
						"astId": 645,
						"contract": "contracts/SocilaPeTransactions.sol:SocialPeTransactions",
						"label": "_status",
						"offset": 0,
						"slot": "0",
						"type": "t_uint256"
					},
					{
						"astId": 714,
						"contract": "contracts/SocilaPeTransactions.sol:SocialPeTransactions",
						"label": "__gap",
						"offset": 0,
						"slot": "1",
						"type": "t_array(t_uint256)49_storage"
					},
					{
						"astId": 1529,
						"contract": "contracts/SocilaPeTransactions.sol:SocialPeTransactions",
						"label": "actions",
						"offset": 0,
						"slot": "50",
						"type": "t_mapping(t_uint256,t_struct(Action)1524_storage)"
					},
					{
						"astId": 1531,
						"contract": "contracts/SocilaPeTransactions.sol:SocialPeTransactions",
						"label": "actionCount",
						"offset": 0,
						"slot": "51",
						"type": "t_uint256"
					},
					{
						"astId": 1535,
						"contract": "contracts/SocilaPeTransactions.sol:SocialPeTransactions",
						"label": "allowedActions",
						"offset": 0,
						"slot": "52",
						"type": "t_mapping(t_string_memory_ptr,t_bool)"
					},
					{
						"astId": 1539,
						"contract": "contracts/SocilaPeTransactions.sol:SocialPeTransactions",
						"label": "registeredUsers",
						"offset": 0,
						"slot": "53",
						"type": "t_mapping(t_address,t_bool)"
					}
				],
				"types": {
					"t_address": {
						"encoding": "inplace",
						"label": "address",
						"numberOfBytes": "20"
					},
					"t_array(t_uint256)49_storage": {
						"base": "t_uint256",
						"encoding": "inplace",
						"label": "uint256[49]",
						"numberOfBytes": "1568"
					},
					"t_bool": {
						"encoding": "inplace",
						"label": "bool",
						"numberOfBytes": "1"
					},
					"t_mapping(t_address,t_bool)": {
						"encoding": "mapping",
						"key": "t_address",
						"label": "mapping(address => bool)",
						"numberOfBytes": "32",
						"value": "t_bool"
					},
					"t_mapping(t_string_memory_ptr,t_bool)": {
						"encoding": "mapping",
						"key": "t_string_memory_ptr",
						"label": "mapping(string => bool)",
						"numberOfBytes": "32",
						"value": "t_bool"
					},
					"t_mapping(t_uint256,t_struct(Action)1524_storage)": {
						"encoding": "mapping",
						"key": "t_uint256",
						"label": "mapping(uint256 => struct SocialPeTransactions.Action)",
						"numberOfBytes": "32",
						"value": "t_struct(Action)1524_storage"
					},
					"t_string_memory_ptr": {
						"encoding": "bytes",
						"label": "string",
						"numberOfBytes": "32"
					},
					"t_string_storage": {
						"encoding": "bytes",
						"label": "string",
						"numberOfBytes": "32"
					},
					"t_struct(Action)1524_storage": {
						"encoding": "inplace",
						"label": "struct SocialPeTransactions.Action",
						"members": [
							{
								"astId": 1519,
								"contract": "contracts/SocilaPeTransactions.sol:SocialPeTransactions",
								"label": "user",
								"offset": 0,
								"slot": "0",
								"type": "t_address"
							},
							{
								"astId": 1521,
								"contract": "contracts/SocilaPeTransactions.sol:SocialPeTransactions",
								"label": "actionType",
								"offset": 0,
								"slot": "1",
								"type": "t_string_storage"
							},
							{
								"astId": 1523,
								"contract": "contracts/SocilaPeTransactions.sol:SocialPeTransactions",
								"label": "timestamp",
								"offset": 0,
								"slot": "2",
								"type": "t_uint256"
							}
						],
						"numberOfBytes": "96"
					},
					"t_uint256": {
						"encoding": "inplace",
						"label": "uint256",
						"numberOfBytes": "32"
					}
				}
			},
			"userdoc": {
				"kind": "user",
				"methods": {
					"addActionType(string)": {
						"notice": "Admin adds a new action type dynamically"
					},
					"recordAction(address,string)": {
						"notice": "Users can record actions ONLY if registered"
					},
					"registerUser(address)": {
						"notice": "Admin registers a user (Only registered users can transact)"
					}
				},
				"version": 1
			}
		}
	}
}